{
	"contracts/FloodHelpV2.sol": {
		"FloodHelpV2": {
			"abi": [
				{
					"inputs": [],
					"stateMutability": "nonpayable",
					"type": "constructor"
				},
				{
					"inputs": [
						{
							"internalType": "uint256",
							"name": "",
							"type": "uint256"
						}
					],
					"name": "addblacklist",
					"outputs": [
						{
							"internalType": "address",
							"name": "",
							"type": "address"
						}
					],
					"stateMutability": "view",
					"type": "function"
				},
				{
					"inputs": [],
					"name": "admin",
					"outputs": [
						{
							"internalType": "address",
							"name": "",
							"type": "address"
						}
					],
					"stateMutability": "view",
					"type": "function"
				},
				{
					"inputs": [
						{
							"internalType": "uint256",
							"name": "id",
							"type": "uint256"
						}
					],
					"name": "aprove",
					"outputs": [],
					"stateMutability": "nonpayable",
					"type": "function"
				},
				{
					"inputs": [
						{
							"internalType": "uint256",
							"name": "id",
							"type": "uint256"
						}
					],
					"name": "closeRequest",
					"outputs": [],
					"stateMutability": "nonpayable",
					"type": "function"
				},
				{
					"inputs": [
						{
							"internalType": "uint256",
							"name": "id",
							"type": "uint256"
						}
					],
					"name": "donate",
					"outputs": [],
					"stateMutability": "payable",
					"type": "function"
				},
				{
					"inputs": [
						{
							"internalType": "uint256",
							"name": "startId",
							"type": "uint256"
						},
						{
							"internalType": "uint256",
							"name": "quantity",
							"type": "uint256"
						}
					],
					"name": "getOpenRequests",
					"outputs": [
						{
							"components": [
								{
									"internalType": "uint256",
									"name": "id",
									"type": "uint256"
								},
								{
									"internalType": "address",
									"name": "author",
									"type": "address"
								},
								{
									"internalType": "string",
									"name": "title",
									"type": "string"
								},
								{
									"internalType": "string",
									"name": "description",
									"type": "string"
								},
								{
									"internalType": "string",
									"name": "contact",
									"type": "string"
								},
								{
									"internalType": "uint256",
									"name": "timestamp",
									"type": "uint256"
								},
								{
									"internalType": "uint256",
									"name": "goal",
									"type": "uint256"
								},
								{
									"internalType": "uint256",
									"name": "balance",
									"type": "uint256"
								},
								{
									"internalType": "uint256",
									"name": "totaldoacoes",
									"type": "uint256"
								},
								{
									"internalType": "bool",
									"name": "open",
									"type": "bool"
								},
								{
									"internalType": "bool",
									"name": "aproved",
									"type": "bool"
								},
								{
									"internalType": "uint256",
									"name": "timeduration",
									"type": "uint256"
								}
							],
							"internalType": "struct Request[]",
							"name": "",
							"type": "tuple[]"
						}
					],
					"stateMutability": "view",
					"type": "function"
				},
				{
					"inputs": [],
					"name": "lastId",
					"outputs": [
						{
							"internalType": "uint256",
							"name": "",
							"type": "uint256"
						}
					],
					"stateMutability": "view",
					"type": "function"
				},
				{
					"inputs": [],
					"name": "nBlacklist",
					"outputs": [
						{
							"internalType": "uint256",
							"name": "",
							"type": "uint256"
						}
					],
					"stateMutability": "view",
					"type": "function"
				},
				{
					"inputs": [
						{
							"internalType": "address",
							"name": "bladd",
							"type": "address"
						}
					],
					"name": "newBlackList",
					"outputs": [],
					"stateMutability": "nonpayable",
					"type": "function"
				},
				{
					"inputs": [
						{
							"internalType": "string",
							"name": "title",
							"type": "string"
						},
						{
							"internalType": "string",
							"name": "description",
							"type": "string"
						},
						{
							"internalType": "string",
							"name": "contact",
							"type": "string"
						},
						{
							"internalType": "uint256",
							"name": "goal",
							"type": "uint256"
						},
						{
							"internalType": "uint256",
							"name": "timeduration",
							"type": "uint256"
						}
					],
					"name": "openRequest",
					"outputs": [],
					"stateMutability": "nonpayable",
					"type": "function"
				},
				{
					"inputs": [
						{
							"internalType": "uint256",
							"name": "",
							"type": "uint256"
						}
					],
					"name": "requests",
					"outputs": [
						{
							"internalType": "uint256",
							"name": "id",
							"type": "uint256"
						},
						{
							"internalType": "address",
							"name": "author",
							"type": "address"
						},
						{
							"internalType": "string",
							"name": "title",
							"type": "string"
						},
						{
							"internalType": "string",
							"name": "description",
							"type": "string"
						},
						{
							"internalType": "string",
							"name": "contact",
							"type": "string"
						},
						{
							"internalType": "uint256",
							"name": "timestamp",
							"type": "uint256"
						},
						{
							"internalType": "uint256",
							"name": "goal",
							"type": "uint256"
						},
						{
							"internalType": "uint256",
							"name": "balance",
							"type": "uint256"
						},
						{
							"internalType": "uint256",
							"name": "totaldoacoes",
							"type": "uint256"
						},
						{
							"internalType": "bool",
							"name": "open",
							"type": "bool"
						},
						{
							"internalType": "bool",
							"name": "aproved",
							"type": "bool"
						},
						{
							"internalType": "uint256",
							"name": "timeduration",
							"type": "uint256"
						}
					],
					"stateMutability": "view",
					"type": "function"
				}
			],
			"devdoc": {
				"kind": "dev",
				"methods": {},
				"version": 1
			},
			"evm": {
				"assembly": "    /* \"contracts/FloodHelpV2.sol\":959:6764  contract FloodHelpV2 {... */\n  mstore(0x40, 0x80)\n    /* \"contracts/FloodHelpV2.sol\":1010:1011  0 */\n  0x00\n    /* \"contracts/FloodHelpV2.sol\":989:1011  uint public lastId = 0 */\n  dup1\n  sstore\n    /* \"contracts/FloodHelpV2.sol\":1265:1266  0 */\n  0x00\n    /* \"contracts/FloodHelpV2.sol\":1240:1266  uint public nBlacklist = 0 */\n  0x04\n  sstore\n    /* \"contracts/FloodHelpV2.sol\":1275:1326  constructor() {... */\n  callvalue\n  dup1\n  iszero\n  tag_1\n  jumpi\n  0x00\n  dup1\n  revert\ntag_1:\n  pop\n    /* \"contracts/FloodHelpV2.sol\":1308:1318  msg.sender */\n  caller\n    /* \"contracts/FloodHelpV2.sol\":1300:1305  admin */\n  0x02\n  0x00\n    /* \"contracts/FloodHelpV2.sol\":1300:1318  admin = msg.sender */\n  0x0100\n  exp\n  dup2\n  sload\n  dup2\n  0xffffffffffffffffffffffffffffffffffffffff\n  mul\n  not\n  and\n  swap1\n  dup4\n  0xffffffffffffffffffffffffffffffffffffffff\n  and\n  mul\n  or\n  swap1\n  sstore\n  pop\n    /* \"contracts/FloodHelpV2.sol\":959:6764  contract FloodHelpV2 {... */\n  dataSize(sub_0)\n  dup1\n  dataOffset(sub_0)\n  0x00\n  codecopy\n  0x00\n  return\nstop\n\nsub_0: assembly {\n        /* \"contracts/FloodHelpV2.sol\":959:6764  contract FloodHelpV2 {... */\n      mstore(0x40, 0x80)\n      jumpi(tag_1, lt(calldatasize, 0x04))\n      shr(0xe0, calldataload(0x00))\n      dup1\n      0xc1292cc3\n      gt\n      tag_13\n      jumpi\n      dup1\n      0xc1292cc3\n      eq\n      tag_7\n      jumpi\n      dup1\n      0xd6121c22\n      eq\n      tag_8\n      jumpi\n      dup1\n      0xdc6deb47\n      eq\n      tag_9\n      jumpi\n      dup1\n      0xf0282b7f\n      eq\n      tag_10\n      jumpi\n      dup1\n      0xf14faf6f\n      eq\n      tag_11\n      jumpi\n      dup1\n      0xf851a440\n      eq\n      tag_12\n      jumpi\n      jump(tag_1)\n    tag_13:\n      dup1\n      0x540021ad\n      eq\n      tag_2\n      jumpi\n      dup1\n      0x81d12c58\n      eq\n      tag_3\n      jumpi\n      dup1\n      0xa4de13e5\n      eq\n      tag_4\n      jumpi\n      dup1\n      0xb45243dc\n      eq\n      tag_5\n      jumpi\n      dup1\n      0xb7aaeb4d\n      eq\n      tag_6\n      jumpi\n    tag_1:\n      0x00\n      dup1\n      revert\n        /* \"contracts/FloodHelpV2.sol\":1240:1266  uint public nBlacklist = 0 */\n    tag_2:\n      callvalue\n      dup1\n      iszero\n      tag_14\n      jumpi\n      0x00\n      dup1\n      revert\n    tag_14:\n      pop\n      tag_15\n      tag_16\n      jump\t// in\n    tag_15:\n      mload(0x40)\n      tag_17\n      swap2\n      swap1\n      tag_18\n      jump\t// in\n    tag_17:\n      mload(0x40)\n      dup1\n      swap2\n      sub\n      swap1\n      return\n        /* \"contracts/FloodHelpV2.sol\":1018:1058  mapping(uint => Request) public requests */\n    tag_3:\n      callvalue\n      dup1\n      iszero\n      tag_19\n      jumpi\n      0x00\n      dup1\n      revert\n    tag_19:\n      pop\n      tag_20\n      0x04\n      dup1\n      calldatasize\n      sub\n      dup2\n      add\n      swap1\n      tag_21\n      swap2\n      swap1\n      tag_22\n      jump\t// in\n    tag_21:\n      tag_23\n      jump\t// in\n    tag_20:\n      mload(0x40)\n      tag_24\n      swap13\n      swap12\n      swap11\n      swap10\n      swap9\n      swap8\n      swap7\n      swap6\n      swap5\n      swap4\n      swap3\n      swap2\n      swap1\n      tag_25\n      jump\t// in\n    tag_24:\n      mload(0x40)\n      dup1\n      swap2\n      sub\n      swap1\n      return\n        /* \"contracts/FloodHelpV2.sol\":1204:1233  address[] public addblacklist */\n    tag_4:\n      callvalue\n      dup1\n      iszero\n      tag_26\n      jumpi\n      0x00\n      dup1\n      revert\n    tag_26:\n      pop\n      tag_27\n      0x04\n      dup1\n      calldatasize\n      sub\n      dup2\n      add\n      swap1\n      tag_28\n      swap2\n      swap1\n      tag_22\n      jump\t// in\n    tag_28:\n      tag_29\n      jump\t// in\n    tag_27:\n      mload(0x40)\n      tag_30\n      swap2\n      swap1\n      tag_31\n      jump\t// in\n    tag_30:\n      mload(0x40)\n      dup1\n      swap2\n      sub\n      swap1\n      return\n        /* \"contracts/FloodHelpV2.sol\":5963:6761  function getOpenRequests(uint startId, uint quantity) public view returns (Request[] memory){... */\n    tag_5:\n      callvalue\n      dup1\n      iszero\n      tag_32\n      jumpi\n      0x00\n      dup1\n      revert\n    tag_32:\n      pop\n      tag_33\n      0x04\n      dup1\n      calldatasize\n      sub\n      dup2\n      add\n      swap1\n      tag_34\n      swap2\n      swap1\n      tag_35\n      jump\t// in\n    tag_34:\n      tag_36\n      jump\t// in\n    tag_33:\n      mload(0x40)\n      tag_37\n      swap2\n      swap1\n      tag_38\n      jump\t// in\n    tag_37:\n      mload(0x40)\n      dup1\n      swap2\n      sub\n      swap1\n      return\n        /* \"contracts/FloodHelpV2.sol\":4888:5063  function aprove(uint id) public {... */\n    tag_6:\n      callvalue\n      dup1\n      iszero\n      tag_39\n      jumpi\n      0x00\n      dup1\n      revert\n    tag_39:\n      pop\n      tag_40\n      0x04\n      dup1\n      calldatasize\n      sub\n      dup2\n      add\n      swap1\n      tag_41\n      swap2\n      swap1\n      tag_22\n      jump\t// in\n    tag_41:\n      tag_42\n      jump\t// in\n    tag_40:\n      stop\n        /* \"contracts/FloodHelpV2.sol\":989:1011  uint public lastId = 0 */\n    tag_7:\n      callvalue\n      dup1\n      iszero\n      tag_43\n      jumpi\n      0x00\n      dup1\n      revert\n    tag_43:\n      pop\n      tag_44\n      tag_45\n      jump\t// in\n    tag_44:\n      mload(0x40)\n      tag_46\n      swap2\n      swap1\n      tag_18\n      jump\t// in\n    tag_46:\n      mload(0x40)\n      dup1\n      swap2\n      sub\n      swap1\n      return\n        /* \"contracts/FloodHelpV2.sol\":1334:3036  function openRequest(string memory title, string memory description, string memory contact, uint goal, uint timeduration) public {... */\n    tag_8:\n      callvalue\n      dup1\n      iszero\n      tag_47\n      jumpi\n      0x00\n      dup1\n      revert\n    tag_47:\n      pop\n      tag_48\n      0x04\n      dup1\n      calldatasize\n      sub\n      dup2\n      add\n      swap1\n      tag_49\n      swap2\n      swap1\n      tag_50\n      jump\t// in\n    tag_49:\n      tag_51\n      jump\t// in\n    tag_48:\n      stop\n        /* \"contracts/FloodHelpV2.sol\":5236:5951  function newBlackList(address bladd) public {... */\n    tag_9:\n      callvalue\n      dup1\n      iszero\n      tag_52\n      jumpi\n      0x00\n      dup1\n      revert\n    tag_52:\n      pop\n      tag_53\n      0x04\n      dup1\n      calldatasize\n      sub\n      dup2\n      add\n      swap1\n      tag_54\n      swap2\n      swap1\n      tag_55\n      jump\t// in\n    tag_54:\n      tag_56\n      jump\t// in\n    tag_53:\n      stop\n        /* \"contracts/FloodHelpV2.sol\":3044:3735  function closeRequest(uint id) public {... */\n    tag_10:\n      callvalue\n      dup1\n      iszero\n      tag_57\n      jumpi\n      0x00\n      dup1\n      revert\n    tag_57:\n      pop\n      tag_58\n      0x04\n      dup1\n      calldatasize\n      sub\n      dup2\n      add\n      swap1\n      tag_59\n      swap2\n      swap1\n      tag_22\n      jump\t// in\n    tag_59:\n      tag_60\n      jump\t// in\n    tag_58:\n      stop\n        /* \"contracts/FloodHelpV2.sol\":3743:4820  function donate(uint id) public payable {... */\n    tag_11:\n      tag_61\n      0x04\n      dup1\n      calldatasize\n      sub\n      dup2\n      add\n      swap1\n      tag_62\n      swap2\n      swap1\n      tag_22\n      jump\t// in\n    tag_62:\n      tag_63\n      jump\t// in\n    tag_61:\n      stop\n        /* \"contracts/FloodHelpV2.sol\":1120:1140  address public admin */\n    tag_12:\n      callvalue\n      dup1\n      iszero\n      tag_64\n      jumpi\n      0x00\n      dup1\n      revert\n    tag_64:\n      pop\n      tag_65\n      tag_66\n      jump\t// in\n    tag_65:\n      mload(0x40)\n      tag_67\n      swap2\n      swap1\n      tag_31\n      jump\t// in\n    tag_67:\n      mload(0x40)\n      dup1\n      swap2\n      sub\n      swap1\n      return\n        /* \"contracts/FloodHelpV2.sol\":1240:1266  uint public nBlacklist = 0 */\n    tag_16:\n      sload(0x04)\n      dup2\n      jump\t// out\n        /* \"contracts/FloodHelpV2.sol\":1018:1058  mapping(uint => Request) public requests */\n    tag_23:\n      mstore(0x20, 0x01)\n      dup1\n      0x00\n      mstore\n      keccak256(0x00, 0x40)\n      0x00\n      swap2\n      pop\n      swap1\n      pop\n      dup1\n      0x00\n      add\n      sload\n      swap1\n      dup1\n      0x01\n      add\n      0x00\n      swap1\n      sload\n      swap1\n      0x0100\n      exp\n      swap1\n      div\n      0xffffffffffffffffffffffffffffffffffffffff\n      and\n      swap1\n      dup1\n      0x02\n      add\n      dup1\n      sload\n      tag_68\n      swap1\n      tag_69\n      jump\t// in\n    tag_68:\n      dup1\n      0x1f\n      add\n      0x20\n      dup1\n      swap2\n      div\n      mul\n      0x20\n      add\n      mload(0x40)\n      swap1\n      dup2\n      add\n      0x40\n      mstore\n      dup1\n      swap3\n      swap2\n      swap1\n      dup2\n      dup2\n      mstore\n      0x20\n      add\n      dup3\n      dup1\n      sload\n      tag_70\n      swap1\n      tag_69\n      jump\t// in\n    tag_70:\n      dup1\n      iszero\n      tag_71\n      jumpi\n      dup1\n      0x1f\n      lt\n      tag_72\n      jumpi\n      0x0100\n      dup1\n      dup4\n      sload\n      div\n      mul\n      dup4\n      mstore\n      swap2\n      0x20\n      add\n      swap2\n      jump(tag_71)\n    tag_72:\n      dup3\n      add\n      swap2\n      swap1\n      0x00\n      mstore\n      keccak256(0x00, 0x20)\n      swap1\n    tag_73:\n      dup2\n      sload\n      dup2\n      mstore\n      swap1\n      0x01\n      add\n      swap1\n      0x20\n      add\n      dup1\n      dup4\n      gt\n      tag_73\n      jumpi\n      dup3\n      swap1\n      sub\n      0x1f\n      and\n      dup3\n      add\n      swap2\n    tag_71:\n      pop\n      pop\n      pop\n      pop\n      pop\n      swap1\n      dup1\n      0x03\n      add\n      dup1\n      sload\n      tag_74\n      swap1\n      tag_69\n      jump\t// in\n    tag_74:\n      dup1\n      0x1f\n      add\n      0x20\n      dup1\n      swap2\n      div\n      mul\n      0x20\n      add\n      mload(0x40)\n      swap1\n      dup2\n      add\n      0x40\n      mstore\n      dup1\n      swap3\n      swap2\n      swap1\n      dup2\n      dup2\n      mstore\n      0x20\n      add\n      dup3\n      dup1\n      sload\n      tag_75\n      swap1\n      tag_69\n      jump\t// in\n    tag_75:\n      dup1\n      iszero\n      tag_76\n      jumpi\n      dup1\n      0x1f\n      lt\n      tag_77\n      jumpi\n      0x0100\n      dup1\n      dup4\n      sload\n      div\n      mul\n      dup4\n      mstore\n      swap2\n      0x20\n      add\n      swap2\n      jump(tag_76)\n    tag_77:\n      dup3\n      add\n      swap2\n      swap1\n      0x00\n      mstore\n      keccak256(0x00, 0x20)\n      swap1\n    tag_78:\n      dup2\n      sload\n      dup2\n      mstore\n      swap1\n      0x01\n      add\n      swap1\n      0x20\n      add\n      dup1\n      dup4\n      gt\n      tag_78\n      jumpi\n      dup3\n      swap1\n      sub\n      0x1f\n      and\n      dup3\n      add\n      swap2\n    tag_76:\n      pop\n      pop\n      pop\n      pop\n      pop\n      swap1\n      dup1\n      0x04\n      add\n      dup1\n      sload\n      tag_79\n      swap1\n      tag_69\n      jump\t// in\n    tag_79:\n      dup1\n      0x1f\n      add\n      0x20\n      dup1\n      swap2\n      div\n      mul\n      0x20\n      add\n      mload(0x40)\n      swap1\n      dup2\n      add\n      0x40\n      mstore\n      dup1\n      swap3\n      swap2\n      swap1\n      dup2\n      dup2\n      mstore\n      0x20\n      add\n      dup3\n      dup1\n      sload\n      tag_80\n      swap1\n      tag_69\n      jump\t// in\n    tag_80:\n      dup1\n      iszero\n      tag_81\n      jumpi\n      dup1\n      0x1f\n      lt\n      tag_82\n      jumpi\n      0x0100\n      dup1\n      dup4\n      sload\n      div\n      mul\n      dup4\n      mstore\n      swap2\n      0x20\n      add\n      swap2\n      jump(tag_81)\n    tag_82:\n      dup3\n      add\n      swap2\n      swap1\n      0x00\n      mstore\n      keccak256(0x00, 0x20)\n      swap1\n    tag_83:\n      dup2\n      sload\n      dup2\n      mstore\n      swap1\n      0x01\n      add\n      swap1\n      0x20\n      add\n      dup1\n      dup4\n      gt\n      tag_83\n      jumpi\n      dup3\n      swap1\n      sub\n      0x1f\n      and\n      dup3\n      add\n      swap2\n    tag_81:\n      pop\n      pop\n      pop\n      pop\n      pop\n      swap1\n      dup1\n      0x05\n      add\n      sload\n      swap1\n      dup1\n      0x06\n      add\n      sload\n      swap1\n      dup1\n      0x07\n      add\n      sload\n      swap1\n      dup1\n      0x08\n      add\n      sload\n      swap1\n      dup1\n      0x09\n      add\n      0x00\n      swap1\n      sload\n      swap1\n      0x0100\n      exp\n      swap1\n      div\n      0xff\n      and\n      swap1\n      dup1\n      0x09\n      add\n      0x01\n      swap1\n      sload\n      swap1\n      0x0100\n      exp\n      swap1\n      div\n      0xff\n      and\n      swap1\n      dup1\n      0x0a\n      add\n      sload\n      swap1\n      pop\n      dup13\n      jump\t// out\n        /* \"contracts/FloodHelpV2.sol\":1204:1233  address[] public addblacklist */\n    tag_29:\n      0x03\n      dup2\n      dup2\n      sload\n      dup2\n      lt\n      tag_84\n      jumpi\n      0x00\n      dup1\n      revert\n    tag_84:\n      swap1\n      0x00\n      mstore\n      keccak256(0x00, 0x20)\n      add\n      0x00\n      swap2\n      pop\n      sload\n      swap1\n      0x0100\n      exp\n      swap1\n      div\n      0xffffffffffffffffffffffffffffffffffffffff\n      and\n      dup2\n      jump\t// out\n        /* \"contracts/FloodHelpV2.sol\":5963:6761  function getOpenRequests(uint startId, uint quantity) public view returns (Request[] memory){... */\n    tag_36:\n        /* \"contracts/FloodHelpV2.sol\":6038:6054  Request[] memory */\n      0x60\n        /* \"contracts/FloodHelpV2.sol\":6072:6078  uint i */\n      0x00\n        /* \"contracts/FloodHelpV2.sol\":6068:6224  for(uint i = 0; i < addblacklist.length; i++)... */\n    tag_87:\n        /* \"contracts/FloodHelpV2.sol\":6088:6100  addblacklist */\n      0x03\n        /* \"contracts/FloodHelpV2.sol\":6088:6107  addblacklist.length */\n      dup1\n      sload\n      swap1\n      pop\n        /* \"contracts/FloodHelpV2.sol\":6084:6085  i */\n      dup2\n        /* \"contracts/FloodHelpV2.sol\":6084:6107  i < addblacklist.length */\n      lt\n        /* \"contracts/FloodHelpV2.sol\":6068:6224  for(uint i = 0; i < addblacklist.length; i++)... */\n      iszero\n      tag_88\n      jumpi\n        /* \"contracts/FloodHelpV2.sol\":6160:6172  addblacklist */\n      0x03\n        /* \"contracts/FloodHelpV2.sol\":6173:6174  i */\n      dup2\n        /* \"contracts/FloodHelpV2.sol\":6160:6175  addblacklist[i] */\n      dup2\n      sload\n      dup2\n      lt\n      tag_90\n      jumpi\n      tag_91\n      tag_92\n      jump\t// in\n    tag_91:\n    tag_90:\n      swap1\n      0x00\n      mstore\n      keccak256(0x00, 0x20)\n      add\n      0x00\n      swap1\n      sload\n      swap1\n      0x0100\n      exp\n      swap1\n      div\n      0xffffffffffffffffffffffffffffffffffffffff\n      and\n        /* \"contracts/FloodHelpV2.sol\":6146:6175  msg.sender != addblacklist[i] */\n      0xffffffffffffffffffffffffffffffffffffffff\n      and\n        /* \"contracts/FloodHelpV2.sol\":6146:6156  msg.sender */\n      caller\n        /* \"contracts/FloodHelpV2.sol\":6146:6175  msg.sender != addblacklist[i] */\n      0xffffffffffffffffffffffffffffffffffffffff\n      and\n      sub\n        /* \"contracts/FloodHelpV2.sol\":6138:6212  require(msg.sender != addblacklist[i], unicode\"endereço na lista negra\" ) */\n      tag_94\n      jumpi\n      mload(0x40)\n      0x08c379a000000000000000000000000000000000000000000000000000000000\n      dup2\n      mstore\n      0x04\n      add\n      tag_95\n      swap1\n      tag_96\n      jump\t// in\n    tag_95:\n      mload(0x40)\n      dup1\n      swap2\n      sub\n      swap1\n      revert\n    tag_94:\n        /* \"contracts/FloodHelpV2.sol\":6109:6112  i++ */\n      dup1\n      dup1\n      0x01\n      add\n      swap2\n      pop\n      pop\n        /* \"contracts/FloodHelpV2.sol\":6068:6224  for(uint i = 0; i < addblacklist.length; i++)... */\n      jump(tag_87)\n    tag_88:\n      pop\n        /* \"contracts/FloodHelpV2.sol\":6352:6358  lastId */\n      sload(0x00)\n        /* \"contracts/FloodHelpV2.sol\":6341:6349  quantity */\n      dup3\n        /* \"contracts/FloodHelpV2.sol\":6341:6358  quantity > lastId */\n      gt\n        /* \"contracts/FloodHelpV2.sol\":6338:6390  if(quantity > lastId)... */\n      iszero\n      tag_97\n      jumpi\n        /* \"contracts/FloodHelpV2.sol\":6384:6390  lastId */\n      sload(0x00)\n        /* \"contracts/FloodHelpV2.sol\":6373:6390  quantity = lastId */\n      swap2\n      pop\n        /* \"contracts/FloodHelpV2.sol\":6338:6390  if(quantity > lastId)... */\n    tag_97:\n        /* \"contracts/FloodHelpV2.sol\":6403:6426  Request[] memory result */\n      0x00\n        /* \"contracts/FloodHelpV2.sol\":6443:6451  quantity */\n      dup3\n        /* \"contracts/FloodHelpV2.sol\":6429:6452  new Request[](quantity) */\n      0xffffffffffffffff\n      dup2\n      gt\n      iszero\n      tag_98\n      jumpi\n      tag_99\n      tag_100\n      jump\t// in\n    tag_99:\n    tag_98:\n      mload(0x40)\n      swap1\n      dup1\n      dup3\n      mstore\n      dup1\n      0x20\n      mul\n      0x20\n      add\n      dup3\n      add\n      0x40\n      mstore\n      dup1\n      iszero\n      tag_101\n      jumpi\n      dup2\n      0x20\n      add\n    tag_102:\n      tag_103\n      tag_104\n      jump\t// in\n    tag_103:\n      dup2\n      mstore\n      0x20\n      add\n      swap1\n      0x01\n      swap1\n      sub\n      swap1\n      dup2\n      tag_102\n      jumpi\n      swap1\n      pop\n    tag_101:\n      pop\n        /* \"contracts/FloodHelpV2.sol\":6403:6452  Request[] memory result = new Request[](quantity) */\n      swap1\n      pop\n        /* \"contracts/FloodHelpV2.sol\":6463:6470  uint id */\n      0x00\n        /* \"contracts/FloodHelpV2.sol\":6473:6480  startId */\n      dup5\n        /* \"contracts/FloodHelpV2.sol\":6463:6480  uint id = startId */\n      swap1\n      pop\n        /* \"contracts/FloodHelpV2.sol\":6491:6501  uint count */\n      0x00\n        /* \"contracts/FloodHelpV2.sol\":6518:6728  do {... */\n    tag_105:\n        /* \"contracts/FloodHelpV2.sol\":6539:6547  requests */\n      0x01\n        /* \"contracts/FloodHelpV2.sol\":6539:6551  requests[id] */\n      0x00\n        /* \"contracts/FloodHelpV2.sol\":6548:6550  id */\n      dup4\n        /* \"contracts/FloodHelpV2.sol\":6539:6551  requests[id] */\n      dup2\n      mstore\n      0x20\n      add\n      swap1\n      dup2\n      mstore\n      0x20\n      add\n      0x00\n      keccak256\n        /* \"contracts/FloodHelpV2.sol\":6539:6556  requests[id].open */\n      0x09\n      add\n      0x00\n      swap1\n      sload\n      swap1\n      0x0100\n      exp\n      swap1\n      div\n      0xff\n      and\n        /* \"contracts/FloodHelpV2.sol\":6536:6646  if(requests[id].open){... */\n      iszero\n      tag_108\n      jumpi\n        /* \"contracts/FloodHelpV2.sol\":6592:6600  requests */\n      0x01\n        /* \"contracts/FloodHelpV2.sol\":6592:6604  requests[id] */\n      0x00\n        /* \"contracts/FloodHelpV2.sol\":6601:6603  id */\n      dup4\n        /* \"contracts/FloodHelpV2.sol\":6592:6604  requests[id] */\n      dup2\n      mstore\n      0x20\n      add\n      swap1\n      dup2\n      mstore\n      0x20\n      add\n      0x00\n      keccak256\n        /* \"contracts/FloodHelpV2.sol\":6576:6604  result[count] = requests[id] */\n      mload(0x40)\n      dup1\n      0x0180\n      add\n      0x40\n      mstore\n      swap1\n      dup2\n      0x00\n      dup3\n      add\n      sload\n      dup2\n      mstore\n      0x20\n      add\n      0x01\n      dup3\n      add\n      0x00\n      swap1\n      sload\n      swap1\n      0x0100\n      exp\n      swap1\n      div\n      0xffffffffffffffffffffffffffffffffffffffff\n      and\n      0xffffffffffffffffffffffffffffffffffffffff\n      and\n      0xffffffffffffffffffffffffffffffffffffffff\n      and\n      dup2\n      mstore\n      0x20\n      add\n      0x02\n      dup3\n      add\n      dup1\n      sload\n      tag_109\n      swap1\n      tag_69\n      jump\t// in\n    tag_109:\n      dup1\n      0x1f\n      add\n      0x20\n      dup1\n      swap2\n      div\n      mul\n      0x20\n      add\n      mload(0x40)\n      swap1\n      dup2\n      add\n      0x40\n      mstore\n      dup1\n      swap3\n      swap2\n      swap1\n      dup2\n      dup2\n      mstore\n      0x20\n      add\n      dup3\n      dup1\n      sload\n      tag_110\n      swap1\n      tag_69\n      jump\t// in\n    tag_110:\n      dup1\n      iszero\n      tag_111\n      jumpi\n      dup1\n      0x1f\n      lt\n      tag_112\n      jumpi\n      0x0100\n      dup1\n      dup4\n      sload\n      div\n      mul\n      dup4\n      mstore\n      swap2\n      0x20\n      add\n      swap2\n      jump(tag_111)\n    tag_112:\n      dup3\n      add\n      swap2\n      swap1\n      0x00\n      mstore\n      keccak256(0x00, 0x20)\n      swap1\n    tag_113:\n      dup2\n      sload\n      dup2\n      mstore\n      swap1\n      0x01\n      add\n      swap1\n      0x20\n      add\n      dup1\n      dup4\n      gt\n      tag_113\n      jumpi\n      dup3\n      swap1\n      sub\n      0x1f\n      and\n      dup3\n      add\n      swap2\n    tag_111:\n      pop\n      pop\n      pop\n      pop\n      pop\n      dup2\n      mstore\n      0x20\n      add\n      0x03\n      dup3\n      add\n      dup1\n      sload\n      tag_114\n      swap1\n      tag_69\n      jump\t// in\n    tag_114:\n      dup1\n      0x1f\n      add\n      0x20\n      dup1\n      swap2\n      div\n      mul\n      0x20\n      add\n      mload(0x40)\n      swap1\n      dup2\n      add\n      0x40\n      mstore\n      dup1\n      swap3\n      swap2\n      swap1\n      dup2\n      dup2\n      mstore\n      0x20\n      add\n      dup3\n      dup1\n      sload\n      tag_115\n      swap1\n      tag_69\n      jump\t// in\n    tag_115:\n      dup1\n      iszero\n      tag_116\n      jumpi\n      dup1\n      0x1f\n      lt\n      tag_117\n      jumpi\n      0x0100\n      dup1\n      dup4\n      sload\n      div\n      mul\n      dup4\n      mstore\n      swap2\n      0x20\n      add\n      swap2\n      jump(tag_116)\n    tag_117:\n      dup3\n      add\n      swap2\n      swap1\n      0x00\n      mstore\n      keccak256(0x00, 0x20)\n      swap1\n    tag_118:\n      dup2\n      sload\n      dup2\n      mstore\n      swap1\n      0x01\n      add\n      swap1\n      0x20\n      add\n      dup1\n      dup4\n      gt\n      tag_118\n      jumpi\n      dup3\n      swap1\n      sub\n      0x1f\n      and\n      dup3\n      add\n      swap2\n    tag_116:\n      pop\n      pop\n      pop\n      pop\n      pop\n      dup2\n      mstore\n      0x20\n      add\n      0x04\n      dup3\n      add\n      dup1\n      sload\n      tag_119\n      swap1\n      tag_69\n      jump\t// in\n    tag_119:\n      dup1\n      0x1f\n      add\n      0x20\n      dup1\n      swap2\n      div\n      mul\n      0x20\n      add\n      mload(0x40)\n      swap1\n      dup2\n      add\n      0x40\n      mstore\n      dup1\n      swap3\n      swap2\n      swap1\n      dup2\n      dup2\n      mstore\n      0x20\n      add\n      dup3\n      dup1\n      sload\n      tag_120\n      swap1\n      tag_69\n      jump\t// in\n    tag_120:\n      dup1\n      iszero\n      tag_121\n      jumpi\n      dup1\n      0x1f\n      lt\n      tag_122\n      jumpi\n      0x0100\n      dup1\n      dup4\n      sload\n      div\n      mul\n      dup4\n      mstore\n      swap2\n      0x20\n      add\n      swap2\n      jump(tag_121)\n    tag_122:\n      dup3\n      add\n      swap2\n      swap1\n      0x00\n      mstore\n      keccak256(0x00, 0x20)\n      swap1\n    tag_123:\n      dup2\n      sload\n      dup2\n      mstore\n      swap1\n      0x01\n      add\n      swap1\n      0x20\n      add\n      dup1\n      dup4\n      gt\n      tag_123\n      jumpi\n      dup3\n      swap1\n      sub\n      0x1f\n      and\n      dup3\n      add\n      swap2\n    tag_121:\n      pop\n      pop\n      pop\n      pop\n      pop\n      dup2\n      mstore\n      0x20\n      add\n      0x05\n      dup3\n      add\n      sload\n      dup2\n      mstore\n      0x20\n      add\n      0x06\n      dup3\n      add\n      sload\n      dup2\n      mstore\n      0x20\n      add\n      0x07\n      dup3\n      add\n      sload\n      dup2\n      mstore\n      0x20\n      add\n      0x08\n      dup3\n      add\n      sload\n      dup2\n      mstore\n      0x20\n      add\n      0x09\n      dup3\n      add\n      0x00\n      swap1\n      sload\n      swap1\n      0x0100\n      exp\n      swap1\n      div\n      0xff\n      and\n      iszero\n      iszero\n      iszero\n      iszero\n      dup2\n      mstore\n      0x20\n      add\n      0x09\n      dup3\n      add\n      0x01\n      swap1\n      sload\n      swap1\n      0x0100\n      exp\n      swap1\n      div\n      0xff\n      and\n      iszero\n      iszero\n      iszero\n      iszero\n      dup2\n      mstore\n      0x20\n      add\n      0x0a\n      dup3\n      add\n      sload\n      dup2\n      mstore\n      pop\n      pop\n        /* \"contracts/FloodHelpV2.sol\":6576:6582  result */\n      dup4\n        /* \"contracts/FloodHelpV2.sol\":6583:6588  count */\n      dup3\n        /* \"contracts/FloodHelpV2.sol\":6576:6589  result[count] */\n      dup2\n      mload\n      dup2\n      lt\n      tag_124\n      jumpi\n      tag_125\n      tag_92\n      jump\t// in\n    tag_125:\n    tag_124:\n      0x20\n      mul\n      0x20\n      add\n      add\n        /* \"contracts/FloodHelpV2.sol\":6576:6604  result[count] = requests[id] */\n      dup2\n      swap1\n      mstore\n      pop\n        /* \"contracts/FloodHelpV2.sol\":6623:6630  count++ */\n      dup1\n      dup1\n      tag_126\n      swap1\n      tag_127\n      jump\t// in\n    tag_126:\n      swap2\n      pop\n      pop\n        /* \"contracts/FloodHelpV2.sol\":6536:6646  if(requests[id].open){... */\n    tag_108:\n        /* \"contracts/FloodHelpV2.sol\":6662:6666  id++ */\n      dup2\n      dup1\n      tag_128\n      swap1\n      tag_127\n      jump\t// in\n    tag_128:\n      swap3\n      pop\n      pop\n        /* \"contracts/FloodHelpV2.sol\":6702:6710  quantity */\n      dup5\n        /* \"contracts/FloodHelpV2.sol\":6694:6699  count */\n      dup2\n        /* \"contracts/FloodHelpV2.sol\":6694:6710  count < quantity */\n      lt\n        /* \"contracts/FloodHelpV2.sol\":6694:6726  count < quantity && id <= lastId */\n      dup1\n      iszero\n      tag_129\n      jumpi\n      pop\n        /* \"contracts/FloodHelpV2.sol\":6720:6726  lastId */\n      sload(0x00)\n        /* \"contracts/FloodHelpV2.sol\":6714:6716  id */\n      dup3\n        /* \"contracts/FloodHelpV2.sol\":6714:6726  id <= lastId */\n      gt\n      iszero\n        /* \"contracts/FloodHelpV2.sol\":6694:6726  count < quantity && id <= lastId */\n    tag_129:\n        /* \"contracts/FloodHelpV2.sol\":6518:6728  do {... */\n      tag_105\n      jumpi\n        /* \"contracts/FloodHelpV2.sol\":6747:6753  result */\n      dup3\n        /* \"contracts/FloodHelpV2.sol\":6740:6753  return result */\n      swap4\n      pop\n      pop\n      pop\n      pop\n        /* \"contracts/FloodHelpV2.sol\":5963:6761  function getOpenRequests(uint startId, uint quantity) public view returns (Request[] memory){... */\n      swap3\n      swap2\n      pop\n      pop\n      jump\t// out\n        /* \"contracts/FloodHelpV2.sol\":4888:5063  function aprove(uint id) public {... */\n    tag_42:\n        /* \"contracts/FloodHelpV2.sol\":4953:4958  admin */\n      0x02\n      0x00\n      swap1\n      sload\n      swap1\n      0x0100\n      exp\n      swap1\n      div\n      0xffffffffffffffffffffffffffffffffffffffff\n      and\n        /* \"contracts/FloodHelpV2.sol\":4939:4958  msg.sender == admin */\n      0xffffffffffffffffffffffffffffffffffffffff\n      and\n        /* \"contracts/FloodHelpV2.sol\":4939:4949  msg.sender */\n      caller\n        /* \"contracts/FloodHelpV2.sol\":4939:4958  msg.sender == admin */\n      0xffffffffffffffffffffffffffffffffffffffff\n      and\n      eq\n        /* \"contracts/FloodHelpV2.sol\":4931:5017  require(msg.sender == admin, unicode\"somente o administrador pode aprovar o contrato\") */\n      tag_131\n      jumpi\n      mload(0x40)\n      0x08c379a000000000000000000000000000000000000000000000000000000000\n      dup2\n      mstore\n      0x04\n      add\n      tag_132\n      swap1\n      tag_133\n      jump\t// in\n    tag_132:\n      mload(0x40)\n      dup1\n      swap2\n      sub\n      swap1\n      revert\n    tag_131:\n        /* \"contracts/FloodHelpV2.sol\":5051:5055  true */\n      0x01\n        /* \"contracts/FloodHelpV2.sol\":5028:5036  requests */\n      dup1\n        /* \"contracts/FloodHelpV2.sol\":5028:5040  requests[id] */\n      0x00\n        /* \"contracts/FloodHelpV2.sol\":5037:5039  id */\n      dup4\n        /* \"contracts/FloodHelpV2.sol\":5028:5040  requests[id] */\n      dup2\n      mstore\n      0x20\n      add\n      swap1\n      dup2\n      mstore\n      0x20\n      add\n      0x00\n      keccak256\n        /* \"contracts/FloodHelpV2.sol\":5028:5048  requests[id].aproved */\n      0x09\n      add\n      0x01\n        /* \"contracts/FloodHelpV2.sol\":5028:5055  requests[id].aproved = true */\n      0x0100\n      exp\n      dup2\n      sload\n      dup2\n      0xff\n      mul\n      not\n      and\n      swap1\n      dup4\n      iszero\n      iszero\n      mul\n      or\n      swap1\n      sstore\n      pop\n        /* \"contracts/FloodHelpV2.sol\":4888:5063  function aprove(uint id) public {... */\n      pop\n      jump\t// out\n        /* \"contracts/FloodHelpV2.sol\":989:1011  uint public lastId = 0 */\n    tag_45:\n      sload(0x00)\n      dup2\n      jump\t// out\n        /* \"contracts/FloodHelpV2.sol\":1334:3036  function openRequest(string memory title, string memory description, string memory contact, uint goal, uint timeduration) public {... */\n    tag_51:\n        /* \"contracts/FloodHelpV2.sol\":1573:1574  0 */\n      0x00\n        /* \"contracts/FloodHelpV2.sol\":1558:1570  timeduration */\n      dup2\n        /* \"contracts/FloodHelpV2.sol\":1558:1574  timeduration > 0 */\n      gt\n        /* \"contracts/FloodHelpV2.sol\":1558:1586  timeduration > 0 && goal > 0 */\n      dup1\n      iszero\n      tag_135\n      jumpi\n      pop\n        /* \"contracts/FloodHelpV2.sol\":1585:1586  0 */\n      0x00\n        /* \"contracts/FloodHelpV2.sol\":1578:1582  goal */\n      dup3\n        /* \"contracts/FloodHelpV2.sol\":1578:1586  goal > 0 */\n      gt\n        /* \"contracts/FloodHelpV2.sol\":1558:1586  timeduration > 0 && goal > 0 */\n    tag_135:\n        /* \"contracts/FloodHelpV2.sol\":1550:1622  require(timeduration > 0 && goal > 0, unicode\"informações inválidas\") */\n      tag_136\n      jumpi\n      mload(0x40)\n      0x08c379a000000000000000000000000000000000000000000000000000000000\n      dup2\n      mstore\n      0x04\n      add\n      tag_137\n      swap1\n      tag_138\n      jump\t// in\n    tag_137:\n      mload(0x40)\n      dup1\n      swap2\n      sub\n      swap1\n      revert\n    tag_136:\n        /* \"contracts/FloodHelpV2.sol\":1736:1742  uint i */\n      0x00\n        /* \"contracts/FloodHelpV2.sol\":1732:1888  for(uint i = 0; i < addblacklist.length; i++)... */\n    tag_139:\n        /* \"contracts/FloodHelpV2.sol\":1752:1764  addblacklist */\n      0x03\n        /* \"contracts/FloodHelpV2.sol\":1752:1771  addblacklist.length */\n      dup1\n      sload\n      swap1\n      pop\n        /* \"contracts/FloodHelpV2.sol\":1748:1749  i */\n      dup2\n        /* \"contracts/FloodHelpV2.sol\":1748:1771  i < addblacklist.length */\n      lt\n        /* \"contracts/FloodHelpV2.sol\":1732:1888  for(uint i = 0; i < addblacklist.length; i++)... */\n      iszero\n      tag_140\n      jumpi\n        /* \"contracts/FloodHelpV2.sol\":1824:1836  addblacklist */\n      0x03\n        /* \"contracts/FloodHelpV2.sol\":1837:1838  i */\n      dup2\n        /* \"contracts/FloodHelpV2.sol\":1824:1839  addblacklist[i] */\n      dup2\n      sload\n      dup2\n      lt\n      tag_142\n      jumpi\n      tag_143\n      tag_92\n      jump\t// in\n    tag_143:\n    tag_142:\n      swap1\n      0x00\n      mstore\n      keccak256(0x00, 0x20)\n      add\n      0x00\n      swap1\n      sload\n      swap1\n      0x0100\n      exp\n      swap1\n      div\n      0xffffffffffffffffffffffffffffffffffffffff\n      and\n        /* \"contracts/FloodHelpV2.sol\":1810:1839  msg.sender != addblacklist[i] */\n      0xffffffffffffffffffffffffffffffffffffffff\n      and\n        /* \"contracts/FloodHelpV2.sol\":1810:1820  msg.sender */\n      caller\n        /* \"contracts/FloodHelpV2.sol\":1810:1839  msg.sender != addblacklist[i] */\n      0xffffffffffffffffffffffffffffffffffffffff\n      and\n      sub\n        /* \"contracts/FloodHelpV2.sol\":1802:1876  require(msg.sender != addblacklist[i], unicode\"endereço na lista negra\" ) */\n      tag_145\n      jumpi\n      mload(0x40)\n      0x08c379a000000000000000000000000000000000000000000000000000000000\n      dup2\n      mstore\n      0x04\n      add\n      tag_146\n      swap1\n      tag_96\n      jump\t// in\n    tag_146:\n      mload(0x40)\n      dup1\n      swap2\n      sub\n      swap1\n      revert\n    tag_145:\n        /* \"contracts/FloodHelpV2.sol\":1773:1776  i++ */\n      dup1\n      dup1\n      0x01\n      add\n      swap2\n      pop\n      pop\n        /* \"contracts/FloodHelpV2.sol\":1732:1888  for(uint i = 0; i < addblacklist.length; i++)... */\n      jump(tag_139)\n    tag_140:\n      pop\n        /* \"contracts/FloodHelpV2.sol\":1900:1906  lastId */\n      0x00\n      dup1\n        /* \"contracts/FloodHelpV2.sol\":1900:1908  lastId++ */\n      dup2\n      sload\n      dup1\n      swap3\n      swap2\n      swap1\n      tag_147\n      swap1\n      tag_127\n      jump\t// in\n    tag_147:\n      swap2\n      swap1\n      pop\n      sstore\n      pop\n        /* \"contracts/FloodHelpV2.sol\":1938:2330  Request({... */\n      mload(0x40)\n      dup1\n      0x0180\n      add\n      0x40\n      mstore\n      dup1\n        /* \"contracts/FloodHelpV2.sol\":1965:1971  lastId */\n      sload(0x00)\n        /* \"contracts/FloodHelpV2.sol\":1938:2330  Request({... */\n      dup2\n      mstore\n      0x20\n      add\n        /* \"contracts/FloodHelpV2.sol\":2182:2192  msg.sender */\n      caller\n        /* \"contracts/FloodHelpV2.sol\":1938:2330  Request({... */\n      0xffffffffffffffffffffffffffffffffffffffff\n      and\n      dup2\n      mstore\n      0x20\n      add\n        /* \"contracts/FloodHelpV2.sol\":1993:1998  title */\n      dup7\n        /* \"contracts/FloodHelpV2.sol\":1938:2330  Request({... */\n      dup2\n      mstore\n      0x20\n      add\n        /* \"contracts/FloodHelpV2.sol\":2026:2037  description */\n      dup6\n        /* \"contracts/FloodHelpV2.sol\":1938:2330  Request({... */\n      dup2\n      mstore\n      0x20\n      add\n        /* \"contracts/FloodHelpV2.sol\":2061:2068  contact */\n      dup5\n        /* \"contracts/FloodHelpV2.sol\":1938:2330  Request({... */\n      dup2\n      mstore\n      0x20\n      add\n        /* \"contracts/FloodHelpV2.sol\":2144:2159  block.timestamp */\n      timestamp\n        /* \"contracts/FloodHelpV2.sol\":1938:2330  Request({... */\n      dup2\n      mstore\n      0x20\n      add\n        /* \"contracts/FloodHelpV2.sol\":2089:2093  goal */\n      dup4\n        /* \"contracts/FloodHelpV2.sol\":1938:2330  Request({... */\n      dup2\n      mstore\n      0x20\n      add\n        /* \"contracts/FloodHelpV2.sol\":2117:2118  0 */\n      0x00\n        /* \"contracts/FloodHelpV2.sol\":1938:2330  Request({... */\n      dup2\n      mstore\n      0x20\n      add\n        /* \"contracts/FloodHelpV2.sol\":2221:2222  0 */\n      0x00\n        /* \"contracts/FloodHelpV2.sol\":1938:2330  Request({... */\n      dup2\n      mstore\n      0x20\n      add\n        /* \"contracts/FloodHelpV2.sol\":2243:2247  true */\n      0x01\n        /* \"contracts/FloodHelpV2.sol\":1938:2330  Request({... */\n      iszero\n      iszero\n      dup2\n      mstore\n      0x20\n      add\n        /* \"contracts/FloodHelpV2.sol\":2271:2276  false */\n      0x00\n        /* \"contracts/FloodHelpV2.sol\":1938:2330  Request({... */\n      iszero\n      iszero\n      dup2\n      mstore\n      0x20\n      add\n        /* \"contracts/FloodHelpV2.sol\":2305:2317  timeduration */\n      dup3\n        /* \"contracts/FloodHelpV2.sol\":1938:2330  Request({... */\n      dup2\n      mstore\n      pop\n        /* \"contracts/FloodHelpV2.sol\":1919:1927  requests */\n      0x01\n        /* \"contracts/FloodHelpV2.sol\":1919:1935  requests[lastId] */\n      0x00\n        /* \"contracts/FloodHelpV2.sol\":1928:1934  lastId */\n      dup1\n      sload\n        /* \"contracts/FloodHelpV2.sol\":1919:1935  requests[lastId] */\n      dup2\n      mstore\n      0x20\n      add\n      swap1\n      dup2\n      mstore\n      0x20\n      add\n      0x00\n      keccak256\n        /* \"contracts/FloodHelpV2.sol\":1919:2330  requests[lastId] = Request({... */\n      0x00\n      dup3\n      add\n      mload\n      dup2\n      0x00\n      add\n      sstore\n      0x20\n      dup3\n      add\n      mload\n      dup2\n      0x01\n      add\n      exp(0x0100, 0x00)\n      dup2\n      sload\n      dup2\n      0xffffffffffffffffffffffffffffffffffffffff\n      mul\n      not\n      and\n      swap1\n      dup4\n      0xffffffffffffffffffffffffffffffffffffffff\n      and\n      mul\n      or\n      swap1\n      sstore\n      pop\n      0x40\n      dup3\n      add\n      mload\n      dup2\n      0x02\n      add\n      swap1\n      dup2\n      tag_148\n      swap2\n      swap1\n      tag_149\n      jump\t// in\n    tag_148:\n      pop\n      0x60\n      dup3\n      add\n      mload\n      dup2\n      0x03\n      add\n      swap1\n      dup2\n      tag_150\n      swap2\n      swap1\n      tag_149\n      jump\t// in\n    tag_150:\n      pop\n      0x80\n      dup3\n      add\n      mload\n      dup2\n      0x04\n      add\n      swap1\n      dup2\n      tag_151\n      swap2\n      swap1\n      tag_149\n      jump\t// in\n    tag_151:\n      pop\n      0xa0\n      dup3\n      add\n      mload\n      dup2\n      0x05\n      add\n      sstore\n      0xc0\n      dup3\n      add\n      mload\n      dup2\n      0x06\n      add\n      sstore\n      0xe0\n      dup3\n      add\n      mload\n      dup2\n      0x07\n      add\n      sstore\n      0x0100\n      dup3\n      add\n      mload\n      dup2\n      0x08\n      add\n      sstore\n      0x0120\n      dup3\n      add\n      mload\n      dup2\n      0x09\n      add\n      exp(0x0100, 0x00)\n      dup2\n      sload\n      dup2\n      0xff\n      mul\n      not\n      and\n      swap1\n      dup4\n      iszero\n      iszero\n      mul\n      or\n      swap1\n      sstore\n      pop\n      0x0140\n      dup3\n      add\n      mload\n      dup2\n      0x09\n      add\n      exp(0x0100, 0x01)\n      dup2\n      sload\n      dup2\n      0xff\n      mul\n      not\n      and\n      swap1\n      dup4\n      iszero\n      iszero\n      mul\n      or\n      swap1\n      sstore\n      pop\n      0x0160\n      dup3\n      add\n      mload\n      dup2\n      0x0a\n      add\n      sstore\n      swap1\n      pop\n      pop\n        /* \"contracts/FloodHelpV2.sol\":2414:2415  1 */\n      0x01\n        /* \"contracts/FloodHelpV2.sol\":2405:2411  lastId */\n      sload(0x00)\n        /* \"contracts/FloodHelpV2.sol\":2405:2415  lastId > 1 */\n      gt\n        /* \"contracts/FloodHelpV2.sol\":2402:3019  if(lastId > 1)... */\n      iszero\n      tag_152\n      jumpi\n        /* \"contracts/FloodHelpV2.sol\":2441:2464  Request[] memory result */\n      0x00\n        /* \"contracts/FloodHelpV2.sol\":2467:2497  getOpenRequests(1, lastId - 1) */\n      tag_153\n        /* \"contracts/FloodHelpV2.sol\":2483:2484  1 */\n      0x01\n        /* \"contracts/FloodHelpV2.sol\":2495:2496  1 */\n      dup1\n        /* \"contracts/FloodHelpV2.sol\":2486:2492  lastId */\n      sload(0x00)\n        /* \"contracts/FloodHelpV2.sol\":2486:2496  lastId - 1 */\n      tag_154\n      swap2\n      swap1\n      tag_155\n      jump\t// in\n    tag_154:\n        /* \"contracts/FloodHelpV2.sol\":2467:2482  getOpenRequests */\n      tag_36\n        /* \"contracts/FloodHelpV2.sol\":2467:2497  getOpenRequests(1, lastId - 1) */\n      jump\t// in\n    tag_153:\n        /* \"contracts/FloodHelpV2.sol\":2441:2497  Request[] memory result = getOpenRequests(1, lastId - 1) */\n      swap1\n      pop\n        /* \"contracts/FloodHelpV2.sol\":2518:2524  uint i */\n      0x00\n        /* \"contracts/FloodHelpV2.sol\":2514:3007  for(uint i = 0; i < result.length; i ++)... */\n    tag_156:\n        /* \"contracts/FloodHelpV2.sol\":2534:2540  result */\n      dup2\n        /* \"contracts/FloodHelpV2.sol\":2534:2547  result.length */\n      mload\n        /* \"contracts/FloodHelpV2.sol\":2530:2531  i */\n      dup2\n        /* \"contracts/FloodHelpV2.sol\":2530:2547  i < result.length */\n      lt\n        /* \"contracts/FloodHelpV2.sol\":2514:3007  for(uint i = 0; i < result.length; i ++)... */\n      iszero\n      tag_157\n      jumpi\n        /* \"contracts/FloodHelpV2.sol\":2645:2655  msg.sender */\n      caller\n        /* \"contracts/FloodHelpV2.sol\":2625:2655  result[i].author != msg.sender */\n      0xffffffffffffffffffffffffffffffffffffffff\n      and\n        /* \"contracts/FloodHelpV2.sol\":2625:2631  result */\n      dup3\n        /* \"contracts/FloodHelpV2.sol\":2632:2633  i */\n      dup3\n        /* \"contracts/FloodHelpV2.sol\":2625:2634  result[i] */\n      dup2\n      mload\n      dup2\n      lt\n      tag_159\n      jumpi\n      tag_160\n      tag_92\n      jump\t// in\n    tag_160:\n    tag_159:\n      0x20\n      mul\n      0x20\n      add\n      add\n      mload\n        /* \"contracts/FloodHelpV2.sol\":2625:2641  result[i].author */\n      0x20\n      add\n      mload\n        /* \"contracts/FloodHelpV2.sol\":2625:2655  result[i].author != msg.sender */\n      0xffffffffffffffffffffffffffffffffffffffff\n      and\n      eq\n      iszero\n        /* \"contracts/FloodHelpV2.sol\":2625:2767  result[i].author != msg.sender ... */\n      dup1\n      iszero\n      tag_161\n      jumpi\n      pop\n        /* \"contracts/FloodHelpV2.sol\":2760:2765  title */\n      dup7\n        /* \"contracts/FloodHelpV2.sol\":2743:2766  abi.encodePacked(title) */\n      add(0x20, mload(0x40))\n      tag_162\n      swap2\n      swap1\n      tag_163\n      jump\t// in\n    tag_162:\n      mload(0x40)\n      0x20\n      dup2\n      dup4\n      sub\n      sub\n      dup2\n      mstore\n      swap1\n      0x40\n      mstore\n        /* \"contracts/FloodHelpV2.sol\":2733:2767  keccak256(abi.encodePacked(title)) */\n      dup1\n      mload\n      swap1\n      0x20\n      add\n      keccak256\n        /* \"contracts/FloodHelpV2.sol\":2712:2718  result */\n      dup3\n        /* \"contracts/FloodHelpV2.sol\":2719:2720  i */\n      dup3\n        /* \"contracts/FloodHelpV2.sol\":2712:2721  result[i] */\n      dup2\n      mload\n      dup2\n      lt\n      tag_164\n      jumpi\n      tag_165\n      tag_92\n      jump\t// in\n    tag_165:\n    tag_164:\n      0x20\n      mul\n      0x20\n      add\n      add\n      mload\n        /* \"contracts/FloodHelpV2.sol\":2712:2727  result[i].title */\n      0x40\n      add\n      mload\n        /* \"contracts/FloodHelpV2.sol\":2695:2728  abi.encodePacked(result[i].title) */\n      add(0x20, mload(0x40))\n      tag_166\n      swap2\n      swap1\n      tag_163\n      jump\t// in\n    tag_166:\n      mload(0x40)\n      0x20\n      dup2\n      dup4\n      sub\n      sub\n      dup2\n      mstore\n      swap1\n      0x40\n      mstore\n        /* \"contracts/FloodHelpV2.sol\":2685:2729  keccak256(abi.encodePacked(result[i].title)) */\n      dup1\n      mload\n      swap1\n      0x20\n      add\n      keccak256\n        /* \"contracts/FloodHelpV2.sol\":2685:2767  keccak256(abi.encodePacked(result[i].title)) != keccak256(abi.encodePacked(title)) */\n      eq\n      iszero\n        /* \"contracts/FloodHelpV2.sol\":2625:2767  result[i].author != msg.sender ... */\n    tag_161:\n        /* \"contracts/FloodHelpV2.sol\":2625:2890  result[i].author != msg.sender ... */\n      dup1\n      iszero\n      tag_167\n      jumpi\n      pop\n        /* \"contracts/FloodHelpV2.sol\":2877:2888  description */\n      dup6\n        /* \"contracts/FloodHelpV2.sol\":2860:2889  abi.encodePacked(description) */\n      add(0x20, mload(0x40))\n      tag_168\n      swap2\n      swap1\n      tag_163\n      jump\t// in\n    tag_168:\n      mload(0x40)\n      0x20\n      dup2\n      dup4\n      sub\n      sub\n      dup2\n      mstore\n      swap1\n      0x40\n      mstore\n        /* \"contracts/FloodHelpV2.sol\":2850:2890  keccak256(abi.encodePacked(description)) */\n      dup1\n      mload\n      swap1\n      0x20\n      add\n      keccak256\n        /* \"contracts/FloodHelpV2.sol\":2823:2829  result */\n      dup3\n        /* \"contracts/FloodHelpV2.sol\":2830:2831  i */\n      dup3\n        /* \"contracts/FloodHelpV2.sol\":2823:2832  result[i] */\n      dup2\n      mload\n      dup2\n      lt\n      tag_169\n      jumpi\n      tag_170\n      tag_92\n      jump\t// in\n    tag_170:\n    tag_169:\n      0x20\n      mul\n      0x20\n      add\n      add\n      mload\n        /* \"contracts/FloodHelpV2.sol\":2823:2844  result[i].description */\n      0x60\n      add\n      mload\n        /* \"contracts/FloodHelpV2.sol\":2806:2845  abi.encodePacked(result[i].description) */\n      add(0x20, mload(0x40))\n      tag_171\n      swap2\n      swap1\n      tag_163\n      jump\t// in\n    tag_171:\n      mload(0x40)\n      0x20\n      dup2\n      dup4\n      sub\n      sub\n      dup2\n      mstore\n      swap1\n      0x40\n      mstore\n        /* \"contracts/FloodHelpV2.sol\":2796:2846  keccak256(abi.encodePacked(result[i].description)) */\n      dup1\n      mload\n      swap1\n      0x20\n      add\n      keccak256\n        /* \"contracts/FloodHelpV2.sol\":2796:2890  keccak256(abi.encodePacked(result[i].description)) != keccak256(abi.encodePacked(description)) */\n      eq\n      iszero\n        /* \"contracts/FloodHelpV2.sol\":2625:2890  result[i].author != msg.sender ... */\n    tag_167:\n        /* \"contracts/FloodHelpV2.sol\":2591:2991  require(... */\n      tag_172\n      jumpi\n      mload(0x40)\n      0x08c379a000000000000000000000000000000000000000000000000000000000\n      dup2\n      mstore\n      0x04\n      add\n      tag_173\n      swap1\n      tag_174\n      jump\t// in\n    tag_173:\n      mload(0x40)\n      dup1\n      swap2\n      sub\n      swap1\n      revert\n    tag_172:\n        /* \"contracts/FloodHelpV2.sol\":2549:2553  i ++ */\n      dup1\n      dup1\n      0x01\n      add\n      swap2\n      pop\n      pop\n        /* \"contracts/FloodHelpV2.sol\":2514:3007  for(uint i = 0; i < result.length; i ++)... */\n      jump(tag_156)\n    tag_157:\n      pop\n        /* \"contracts/FloodHelpV2.sol\":2426:3019  {... */\n      pop\n        /* \"contracts/FloodHelpV2.sol\":2402:3019  if(lastId > 1)... */\n    tag_152:\n        /* \"contracts/FloodHelpV2.sol\":1334:3036  function openRequest(string memory title, string memory description, string memory contact, uint goal, uint timeduration) public {... */\n      pop\n      pop\n      pop\n      pop\n      pop\n      jump\t// out\n        /* \"contracts/FloodHelpV2.sol\":5236:5951  function newBlackList(address bladd) public {... */\n    tag_56:\n        /* \"contracts/FloodHelpV2.sol\":5313:5318  admin */\n      0x02\n      0x00\n      swap1\n      sload\n      swap1\n      0x0100\n      exp\n      swap1\n      div\n      0xffffffffffffffffffffffffffffffffffffffff\n      and\n        /* \"contracts/FloodHelpV2.sol\":5299:5318  msg.sender == admin */\n      0xffffffffffffffffffffffffffffffffffffffff\n      and\n        /* \"contracts/FloodHelpV2.sol\":5299:5309  msg.sender */\n      caller\n        /* \"contracts/FloodHelpV2.sol\":5299:5318  msg.sender == admin */\n      0xffffffffffffffffffffffffffffffffffffffff\n      and\n      eq\n        /* \"contracts/FloodHelpV2.sol\":5291:5379  require(msg.sender == admin, unicode\"somente o administrador pode inserir na blacklist\") */\n      tag_176\n      jumpi\n      mload(0x40)\n      0x08c379a000000000000000000000000000000000000000000000000000000000\n      dup2\n      mstore\n      0x04\n      add\n      tag_177\n      swap1\n      tag_178\n      jump\t// in\n    tag_177:\n      mload(0x40)\n      dup1\n      swap2\n      sub\n      swap1\n      revert\n    tag_176:\n        /* \"contracts/FloodHelpV2.sol\":5390:5400  nBlacklist */\n      0x04\n      0x00\n        /* \"contracts/FloodHelpV2.sol\":5390:5402  nBlacklist++ */\n      dup2\n      sload\n      dup1\n      swap3\n      swap2\n      swap1\n      tag_179\n      swap1\n      tag_127\n      jump\t// in\n    tag_179:\n      swap2\n      swap1\n      pop\n      sstore\n      pop\n        /* \"contracts/FloodHelpV2.sol\":5417:5423  uint i */\n      0x00\n        /* \"contracts/FloodHelpV2.sol\":5413:5572  for(uint i = 0; i < addblacklist.length; i++)... */\n    tag_180:\n        /* \"contracts/FloodHelpV2.sol\":5433:5445  addblacklist */\n      0x03\n        /* \"contracts/FloodHelpV2.sol\":5433:5452  addblacklist.length */\n      dup1\n      sload\n      swap1\n      pop\n        /* \"contracts/FloodHelpV2.sol\":5429:5430  i */\n      dup2\n        /* \"contracts/FloodHelpV2.sol\":5429:5452  i < addblacklist.length */\n      lt\n        /* \"contracts/FloodHelpV2.sol\":5413:5572  for(uint i = 0; i < addblacklist.length; i++)... */\n      iszero\n      tag_181\n      jumpi\n        /* \"contracts/FloodHelpV2.sol\":5500:5512  addblacklist */\n      0x03\n        /* \"contracts/FloodHelpV2.sol\":5513:5514  i */\n      dup2\n        /* \"contracts/FloodHelpV2.sol\":5500:5515  addblacklist[i] */\n      dup2\n      sload\n      dup2\n      lt\n      tag_183\n      jumpi\n      tag_184\n      tag_92\n      jump\t// in\n    tag_184:\n    tag_183:\n      swap1\n      0x00\n      mstore\n      keccak256(0x00, 0x20)\n      add\n      0x00\n      swap1\n      sload\n      swap1\n      0x0100\n      exp\n      swap1\n      div\n      0xffffffffffffffffffffffffffffffffffffffff\n      and\n        /* \"contracts/FloodHelpV2.sol\":5491:5515  bladd != addblacklist[i] */\n      0xffffffffffffffffffffffffffffffffffffffff\n      and\n        /* \"contracts/FloodHelpV2.sol\":5491:5496  bladd */\n      dup3\n        /* \"contracts/FloodHelpV2.sol\":5491:5515  bladd != addblacklist[i] */\n      0xffffffffffffffffffffffffffffffffffffffff\n      and\n      sub\n        /* \"contracts/FloodHelpV2.sol\":5483:5560  require(bladd != addblacklist[i], unicode\"endereço já está na blacklist\" ) */\n      tag_186\n      jumpi\n      mload(0x40)\n      0x08c379a000000000000000000000000000000000000000000000000000000000\n      dup2\n      mstore\n      0x04\n      add\n      tag_187\n      swap1\n      tag_188\n      jump\t// in\n    tag_187:\n      mload(0x40)\n      dup1\n      swap2\n      sub\n      swap1\n      revert\n    tag_186:\n        /* \"contracts/FloodHelpV2.sol\":5454:5457  i++ */\n      dup1\n      dup1\n      0x01\n      add\n      swap2\n      pop\n      pop\n        /* \"contracts/FloodHelpV2.sol\":5413:5572  for(uint i = 0; i < addblacklist.length; i++)... */\n      jump(tag_180)\n    tag_181:\n      pop\n        /* \"contracts/FloodHelpV2.sol\":5584:5596  addblacklist */\n      0x03\n        /* \"contracts/FloodHelpV2.sol\":5602:5607  bladd */\n      dup2\n        /* \"contracts/FloodHelpV2.sol\":5584:5608  addblacklist.push(bladd) */\n      swap1\n      dup1\n      0x01\n      dup2\n      sload\n      add\n      dup1\n      dup3\n      sstore\n      dup1\n      swap2\n      pop\n      pop\n      0x01\n      swap1\n      sub\n      swap1\n      0x00\n      mstore\n      keccak256(0x00, 0x20)\n      add\n      0x00\n      swap1\n      swap2\n      swap1\n      swap2\n      swap1\n      swap2\n      0x0100\n      exp\n      dup2\n      sload\n      dup2\n      0xffffffffffffffffffffffffffffffffffffffff\n      mul\n      not\n      and\n      swap1\n      dup4\n      0xffffffffffffffffffffffffffffffffffffffff\n      and\n      mul\n      or\n      swap1\n      sstore\n      pop\n        /* \"contracts/FloodHelpV2.sol\":5720:5743  Request[] memory result */\n      0x00\n        /* \"contracts/FloodHelpV2.sol\":5746:5772  getOpenRequests(1, lastId) */\n      tag_190\n        /* \"contracts/FloodHelpV2.sol\":5762:5763  1 */\n      0x01\n        /* \"contracts/FloodHelpV2.sol\":5765:5771  lastId */\n      sload(0x00)\n        /* \"contracts/FloodHelpV2.sol\":5746:5761  getOpenRequests */\n      tag_36\n        /* \"contracts/FloodHelpV2.sol\":5746:5772  getOpenRequests(1, lastId) */\n      jump\t// in\n    tag_190:\n        /* \"contracts/FloodHelpV2.sol\":5720:5772  Request[] memory result = getOpenRequests(1, lastId) */\n      swap1\n      pop\n        /* \"contracts/FloodHelpV2.sol\":5789:5795  uint i */\n      0x00\n        /* \"contracts/FloodHelpV2.sol\":5785:5931  for(uint i = 0; i < result.length; i ++)... */\n    tag_191:\n        /* \"contracts/FloodHelpV2.sol\":5805:5811  result */\n      dup2\n        /* \"contracts/FloodHelpV2.sol\":5805:5818  result.length */\n      mload\n        /* \"contracts/FloodHelpV2.sol\":5801:5802  i */\n      dup2\n        /* \"contracts/FloodHelpV2.sol\":5801:5818  i < result.length */\n      lt\n        /* \"contracts/FloodHelpV2.sol\":5785:5931  for(uint i = 0; i < result.length; i ++)... */\n      iszero\n      tag_192\n      jumpi\n        /* \"contracts/FloodHelpV2.sol\":5862:5868  result */\n      dup2\n        /* \"contracts/FloodHelpV2.sol\":5869:5870  i */\n      dup2\n        /* \"contracts/FloodHelpV2.sol\":5862:5871  result[i] */\n      dup2\n      mload\n      dup2\n      lt\n      tag_194\n      jumpi\n      tag_195\n      tag_92\n      jump\t// in\n    tag_195:\n    tag_194:\n      0x20\n      mul\n      0x20\n      add\n      add\n      mload\n        /* \"contracts/FloodHelpV2.sol\":5862:5878  result[i].author */\n      0x20\n      add\n      mload\n        /* \"contracts/FloodHelpV2.sol\":5853:5878  bladd == result[i].author */\n      0xffffffffffffffffffffffffffffffffffffffff\n      and\n        /* \"contracts/FloodHelpV2.sol\":5853:5858  bladd */\n      dup4\n        /* \"contracts/FloodHelpV2.sol\":5853:5878  bladd == result[i].author */\n      0xffffffffffffffffffffffffffffffffffffffff\n      and\n      sub\n        /* \"contracts/FloodHelpV2.sol\":5850:5919  if(bladd == result[i].author)... */\n      tag_196\n      jumpi\n        /* \"contracts/FloodHelpV2.sol\":5893:5919  closeRequest(result[i].id) */\n      tag_197\n        /* \"contracts/FloodHelpV2.sol\":5906:5912  result */\n      dup3\n        /* \"contracts/FloodHelpV2.sol\":5913:5914  i */\n      dup3\n        /* \"contracts/FloodHelpV2.sol\":5906:5915  result[i] */\n      dup2\n      mload\n      dup2\n      lt\n      tag_198\n      jumpi\n      tag_199\n      tag_92\n      jump\t// in\n    tag_199:\n    tag_198:\n      0x20\n      mul\n      0x20\n      add\n      add\n      mload\n        /* \"contracts/FloodHelpV2.sol\":5906:5918  result[i].id */\n      0x00\n      add\n      mload\n        /* \"contracts/FloodHelpV2.sol\":5893:5905  closeRequest */\n      tag_60\n        /* \"contracts/FloodHelpV2.sol\":5893:5919  closeRequest(result[i].id) */\n      jump\t// in\n    tag_197:\n        /* \"contracts/FloodHelpV2.sol\":5850:5919  if(bladd == result[i].author)... */\n    tag_196:\n        /* \"contracts/FloodHelpV2.sol\":5820:5824  i ++ */\n      dup1\n      dup1\n      0x01\n      add\n      swap2\n      pop\n      pop\n        /* \"contracts/FloodHelpV2.sol\":5785:5931  for(uint i = 0; i < result.length; i ++)... */\n      jump(tag_191)\n    tag_192:\n      pop\n        /* \"contracts/FloodHelpV2.sol\":5280:5951  {... */\n      pop\n        /* \"contracts/FloodHelpV2.sol\":5236:5951  function newBlackList(address bladd) public {... */\n      pop\n      jump\t// out\n        /* \"contracts/FloodHelpV2.sol\":3044:3735  function closeRequest(uint id) public {... */\n    tag_60:\n        /* \"contracts/FloodHelpV2.sol\":3093:3107  address author */\n      0x00\n        /* \"contracts/FloodHelpV2.sol\":3110:3118  requests */\n      0x01\n        /* \"contracts/FloodHelpV2.sol\":3110:3122  requests[id] */\n      0x00\n        /* \"contracts/FloodHelpV2.sol\":3119:3121  id */\n      dup4\n        /* \"contracts/FloodHelpV2.sol\":3110:3122  requests[id] */\n      dup2\n      mstore\n      0x20\n      add\n      swap1\n      dup2\n      mstore\n      0x20\n      add\n      0x00\n      keccak256\n        /* \"contracts/FloodHelpV2.sol\":3110:3129  requests[id].author */\n      0x01\n      add\n      0x00\n      swap1\n      sload\n      swap1\n      0x0100\n      exp\n      swap1\n      div\n      0xffffffffffffffffffffffffffffffffffffffff\n      and\n        /* \"contracts/FloodHelpV2.sol\":3093:3129  address author = requests[id].author */\n      swap1\n      pop\n        /* \"contracts/FloodHelpV2.sol\":3140:3152  uint balance */\n      0x00\n        /* \"contracts/FloodHelpV2.sol\":3155:3163  requests */\n      0x01\n        /* \"contracts/FloodHelpV2.sol\":3155:3167  requests[id] */\n      0x00\n        /* \"contracts/FloodHelpV2.sol\":3164:3166  id */\n      dup5\n        /* \"contracts/FloodHelpV2.sol\":3155:3167  requests[id] */\n      dup2\n      mstore\n      0x20\n      add\n      swap1\n      dup2\n      mstore\n      0x20\n      add\n      0x00\n      keccak256\n        /* \"contracts/FloodHelpV2.sol\":3155:3175  requests[id].balance */\n      0x07\n      add\n      sload\n        /* \"contracts/FloodHelpV2.sol\":3140:3175  uint balance = requests[id].balance */\n      swap1\n      pop\n        /* \"contracts/FloodHelpV2.sol\":3186:3195  uint goal */\n      0x00\n        /* \"contracts/FloodHelpV2.sol\":3198:3206  requests */\n      0x01\n        /* \"contracts/FloodHelpV2.sol\":3198:3210  requests[id] */\n      0x00\n        /* \"contracts/FloodHelpV2.sol\":3207:3209  id */\n      dup6\n        /* \"contracts/FloodHelpV2.sol\":3198:3210  requests[id] */\n      dup2\n      mstore\n      0x20\n      add\n      swap1\n      dup2\n      mstore\n      0x20\n      add\n      0x00\n      keccak256\n        /* \"contracts/FloodHelpV2.sol\":3198:3215  requests[id].goal */\n      0x06\n      add\n      sload\n        /* \"contracts/FloodHelpV2.sol\":3186:3215  uint goal = requests[id].goal */\n      swap1\n      pop\n        /* \"contracts/FloodHelpV2.sol\":3236:3244  requests */\n      0x01\n        /* \"contracts/FloodHelpV2.sol\":3236:3248  requests[id] */\n      0x00\n        /* \"contracts/FloodHelpV2.sol\":3245:3247  id */\n      dup6\n        /* \"contracts/FloodHelpV2.sol\":3236:3248  requests[id] */\n      dup2\n      mstore\n      0x20\n      add\n      swap1\n      dup2\n      mstore\n      0x20\n      add\n      0x00\n      keccak256\n        /* \"contracts/FloodHelpV2.sol\":3236:3253  requests[id].open */\n      0x09\n      add\n      0x00\n      swap1\n      sload\n      swap1\n      0x0100\n      exp\n      swap1\n      div\n      0xff\n      and\n        /* \"contracts/FloodHelpV2.sol\":3236:3507  requests[id].open && ... */\n      dup1\n      iszero\n      tag_201\n      jumpi\n      pop\n        /* \"contracts/FloodHelpV2.sol\":3282:3288  author */\n      dup3\n        /* \"contracts/FloodHelpV2.sol\":3268:3288  msg.sender == author */\n      0xffffffffffffffffffffffffffffffffffffffff\n      and\n        /* \"contracts/FloodHelpV2.sol\":3268:3278  msg.sender */\n      caller\n        /* \"contracts/FloodHelpV2.sol\":3268:3288  msg.sender == author */\n      0xffffffffffffffffffffffffffffffffffffffff\n      and\n      eq\n        /* \"contracts/FloodHelpV2.sol\":3268:3307  msg.sender == author || balance >= goal */\n      dup1\n      tag_202\n      jumpi\n      pop\n        /* \"contracts/FloodHelpV2.sol\":3303:3307  goal */\n      dup1\n        /* \"contracts/FloodHelpV2.sol\":3292:3299  balance */\n      dup3\n        /* \"contracts/FloodHelpV2.sol\":3292:3307  balance >= goal */\n      lt\n      iszero\n        /* \"contracts/FloodHelpV2.sol\":3268:3307  msg.sender == author || balance >= goal */\n    tag_202:\n        /* \"contracts/FloodHelpV2.sol\":3268:3422  msg.sender == author || balance >= goal... */\n      dup1\n      tag_203\n      jumpi\n      pop\n        /* \"contracts/FloodHelpV2.sol\":3417:3422  admin */\n      0x02\n      0x00\n      swap1\n      sload\n      swap1\n      0x0100\n      exp\n      swap1\n      div\n      0xffffffffffffffffffffffffffffffffffffffff\n      and\n        /* \"contracts/FloodHelpV2.sol\":3403:3422  msg.sender == admin */\n      0xffffffffffffffffffffffffffffffffffffffff\n      and\n        /* \"contracts/FloodHelpV2.sol\":3403:3413  msg.sender */\n      caller\n        /* \"contracts/FloodHelpV2.sol\":3403:3422  msg.sender == admin */\n      0xffffffffffffffffffffffffffffffffffffffff\n      and\n      eq\n        /* \"contracts/FloodHelpV2.sol\":3268:3422  msg.sender == author || balance >= goal... */\n    tag_203:\n        /* \"contracts/FloodHelpV2.sol\":3268:3506  msg.sender == author || balance >= goal... */\n      dup1\n      tag_204\n      jumpi\n      pop\n        /* \"contracts/FloodHelpV2.sol\":3480:3488  requests */\n      0x01\n        /* \"contracts/FloodHelpV2.sol\":3480:3492  requests[id] */\n      0x00\n        /* \"contracts/FloodHelpV2.sol\":3489:3491  id */\n      dup6\n        /* \"contracts/FloodHelpV2.sol\":3480:3492  requests[id] */\n      dup2\n      mstore\n      0x20\n      add\n      swap1\n      dup2\n      mstore\n      0x20\n      add\n      0x00\n      keccak256\n        /* \"contracts/FloodHelpV2.sol\":3480:3505  requests[id].timeduration */\n      0x0a\n      add\n      sload\n        /* \"contracts/FloodHelpV2.sol\":3455:3463  requests */\n      0x01\n        /* \"contracts/FloodHelpV2.sol\":3455:3467  requests[id] */\n      0x00\n        /* \"contracts/FloodHelpV2.sol\":3464:3466  id */\n      dup7\n        /* \"contracts/FloodHelpV2.sol\":3455:3467  requests[id] */\n      dup2\n      mstore\n      0x20\n      add\n      swap1\n      dup2\n      mstore\n      0x20\n      add\n      0x00\n      keccak256\n        /* \"contracts/FloodHelpV2.sol\":3455:3477  requests[id].timestamp */\n      0x05\n      add\n      sload\n        /* \"contracts/FloodHelpV2.sol\":3455:3505  requests[id].timestamp + requests[id].timeduration */\n      tag_205\n      swap2\n      swap1\n      tag_206\n      jump\t// in\n    tag_205:\n        /* \"contracts/FloodHelpV2.sol\":3436:3451  block.timestamp */\n      timestamp\n        /* \"contracts/FloodHelpV2.sol\":3436:3506  block.timestamp > (requests[id].timestamp + requests[id].timeduration) */\n      gt\n        /* \"contracts/FloodHelpV2.sol\":3268:3506  msg.sender == author || balance >= goal... */\n    tag_204:\n        /* \"contracts/FloodHelpV2.sol\":3236:3507  requests[id].open && ... */\n    tag_201:\n        /* \"contracts/FloodHelpV2.sol\":3228:3563  require(requests[id].open && ... */\n      tag_207\n      jumpi\n      mload(0x40)\n      0x08c379a000000000000000000000000000000000000000000000000000000000\n      dup2\n      mstore\n      0x04\n      add\n      tag_208\n      swap1\n      tag_209\n      jump\t// in\n    tag_208:\n      mload(0x40)\n      dup1\n      swap2\n      sub\n      swap1\n      revert\n    tag_207:\n        /* \"contracts/FloodHelpV2.sol\":3596:3601  false */\n      0x00\n        /* \"contracts/FloodHelpV2.sol\":3576:3584  requests */\n      0x01\n        /* \"contracts/FloodHelpV2.sol\":3576:3588  requests[id] */\n      0x00\n        /* \"contracts/FloodHelpV2.sol\":3585:3587  id */\n      dup7\n        /* \"contracts/FloodHelpV2.sol\":3576:3588  requests[id] */\n      dup2\n      mstore\n      0x20\n      add\n      swap1\n      dup2\n      mstore\n      0x20\n      add\n      0x00\n      keccak256\n        /* \"contracts/FloodHelpV2.sol\":3576:3593  requests[id].open */\n      0x09\n      add\n      0x00\n        /* \"contracts/FloodHelpV2.sol\":3576:3601  requests[id].open = false */\n      0x0100\n      exp\n      dup2\n      sload\n      dup2\n      0xff\n      mul\n      not\n      and\n      swap1\n      dup4\n      iszero\n      iszero\n      mul\n      or\n      swap1\n      sstore\n      pop\n        /* \"contracts/FloodHelpV2.sol\":3627:3628  0 */\n      0x00\n        /* \"contracts/FloodHelpV2.sol\":3617:3624  balance */\n      dup3\n        /* \"contracts/FloodHelpV2.sol\":3617:3628  balance > 0 */\n      gt\n        /* \"contracts/FloodHelpV2.sol\":3614:3728  if(balance > 0){... */\n      iszero\n      tag_210\n      jumpi\n        /* \"contracts/FloodHelpV2.sol\":3667:3668  0 */\n      0x00\n        /* \"contracts/FloodHelpV2.sol\":3644:3652  requests */\n      0x01\n        /* \"contracts/FloodHelpV2.sol\":3644:3656  requests[id] */\n      0x00\n        /* \"contracts/FloodHelpV2.sol\":3653:3655  id */\n      dup7\n        /* \"contracts/FloodHelpV2.sol\":3644:3656  requests[id] */\n      dup2\n      mstore\n      0x20\n      add\n      swap1\n      dup2\n      mstore\n      0x20\n      add\n      0x00\n      keccak256\n        /* \"contracts/FloodHelpV2.sol\":3644:3664  requests[id].balance */\n      0x07\n      add\n        /* \"contracts/FloodHelpV2.sol\":3644:3668  requests[id].balance = 0 */\n      dup2\n      swap1\n      sstore\n      pop\n        /* \"contracts/FloodHelpV2.sol\":3691:3697  author */\n      dup3\n        /* \"contracts/FloodHelpV2.sol\":3683:3707  payable(author).transfer */\n      0xffffffffffffffffffffffffffffffffffffffff\n      and\n        /* \"contracts/FloodHelpV2.sol\":3683:3716  payable(author).transfer(balance) */\n      0x08fc\n        /* \"contracts/FloodHelpV2.sol\":3708:3715  balance */\n      dup4\n        /* \"contracts/FloodHelpV2.sol\":3683:3716  payable(author).transfer(balance) */\n      swap1\n      dup2\n      iszero\n      mul\n      swap1\n      mload(0x40)\n      0x00\n      mload(0x40)\n      dup1\n      dup4\n      sub\n      dup2\n      dup6\n      dup9\n      dup9\n      call\n      swap4\n      pop\n      pop\n      pop\n      pop\n      iszero\n      dup1\n      iszero\n      tag_212\n      jumpi\n      returndatasize\n      0x00\n      dup1\n      returndatacopy\n      revert(0x00, returndatasize)\n    tag_212:\n      pop\n        /* \"contracts/FloodHelpV2.sol\":3614:3728  if(balance > 0){... */\n    tag_210:\n        /* \"contracts/FloodHelpV2.sol\":3082:3735  {... */\n      pop\n      pop\n      pop\n        /* \"contracts/FloodHelpV2.sol\":3044:3735  function closeRequest(uint id) public {... */\n      pop\n      jump\t// out\n        /* \"contracts/FloodHelpV2.sol\":3743:4820  function donate(uint id) public payable {... */\n    tag_63:\n        /* \"contracts/FloodHelpV2.sol\":3884:3890  uint i */\n      0x00\n        /* \"contracts/FloodHelpV2.sol\":3880:4036  for(uint i = 0; i < addblacklist.length; i++)... */\n    tag_214:\n        /* \"contracts/FloodHelpV2.sol\":3900:3912  addblacklist */\n      0x03\n        /* \"contracts/FloodHelpV2.sol\":3900:3919  addblacklist.length */\n      dup1\n      sload\n      swap1\n      pop\n        /* \"contracts/FloodHelpV2.sol\":3896:3897  i */\n      dup2\n        /* \"contracts/FloodHelpV2.sol\":3896:3919  i < addblacklist.length */\n      lt\n        /* \"contracts/FloodHelpV2.sol\":3880:4036  for(uint i = 0; i < addblacklist.length; i++)... */\n      iszero\n      tag_215\n      jumpi\n        /* \"contracts/FloodHelpV2.sol\":3972:3984  addblacklist */\n      0x03\n        /* \"contracts/FloodHelpV2.sol\":3985:3986  i */\n      dup2\n        /* \"contracts/FloodHelpV2.sol\":3972:3987  addblacklist[i] */\n      dup2\n      sload\n      dup2\n      lt\n      tag_217\n      jumpi\n      tag_218\n      tag_92\n      jump\t// in\n    tag_218:\n    tag_217:\n      swap1\n      0x00\n      mstore\n      keccak256(0x00, 0x20)\n      add\n      0x00\n      swap1\n      sload\n      swap1\n      0x0100\n      exp\n      swap1\n      div\n      0xffffffffffffffffffffffffffffffffffffffff\n      and\n        /* \"contracts/FloodHelpV2.sol\":3958:3987  msg.sender != addblacklist[i] */\n      0xffffffffffffffffffffffffffffffffffffffff\n      and\n        /* \"contracts/FloodHelpV2.sol\":3958:3968  msg.sender */\n      caller\n        /* \"contracts/FloodHelpV2.sol\":3958:3987  msg.sender != addblacklist[i] */\n      0xffffffffffffffffffffffffffffffffffffffff\n      and\n      sub\n        /* \"contracts/FloodHelpV2.sol\":3950:4024  require(msg.sender != addblacklist[i], unicode\"endereço na lista negra\" ) */\n      tag_220\n      jumpi\n      mload(0x40)\n      0x08c379a000000000000000000000000000000000000000000000000000000000\n      dup2\n      mstore\n      0x04\n      add\n      tag_221\n      swap1\n      tag_96\n      jump\t// in\n    tag_221:\n      mload(0x40)\n      dup1\n      swap2\n      sub\n      swap1\n      revert\n    tag_220:\n        /* \"contracts/FloodHelpV2.sol\":3921:3924  i++ */\n      dup1\n      dup1\n      0x01\n      add\n      swap2\n      pop\n      pop\n        /* \"contracts/FloodHelpV2.sol\":3880:4036  for(uint i = 0; i < addblacklist.length; i++)... */\n      jump(tag_214)\n    tag_215:\n      pop\n        /* \"contracts/FloodHelpV2.sol\":4248:4256  requests */\n      0x01\n        /* \"contracts/FloodHelpV2.sol\":4248:4260  requests[id] */\n      0x00\n        /* \"contracts/FloodHelpV2.sol\":4257:4259  id */\n      dup3\n        /* \"contracts/FloodHelpV2.sol\":4248:4260  requests[id] */\n      dup2\n      mstore\n      0x20\n      add\n      swap1\n      dup2\n      mstore\n      0x20\n      add\n      0x00\n      keccak256\n        /* \"contracts/FloodHelpV2.sol\":4248:4273  requests[id].timeduration */\n      0x0a\n      add\n      sload\n        /* \"contracts/FloodHelpV2.sol\":4223:4231  requests */\n      0x01\n        /* \"contracts/FloodHelpV2.sol\":4223:4235  requests[id] */\n      0x00\n        /* \"contracts/FloodHelpV2.sol\":4232:4234  id */\n      dup4\n        /* \"contracts/FloodHelpV2.sol\":4223:4235  requests[id] */\n      dup2\n      mstore\n      0x20\n      add\n      swap1\n      dup2\n      mstore\n      0x20\n      add\n      0x00\n      keccak256\n        /* \"contracts/FloodHelpV2.sol\":4223:4245  requests[id].timestamp */\n      0x05\n      add\n      sload\n        /* \"contracts/FloodHelpV2.sol\":4223:4273  requests[id].timestamp + requests[id].timeduration */\n      tag_222\n      swap2\n      swap1\n      tag_206\n      jump\t// in\n    tag_222:\n        /* \"contracts/FloodHelpV2.sol\":4204:4219  block.timestamp */\n      timestamp\n        /* \"contracts/FloodHelpV2.sol\":4204:4274  block.timestamp > (requests[id].timestamp + requests[id].timeduration) */\n      gt\n        /* \"contracts/FloodHelpV2.sol\":4201:4809  if(block.timestamp > (requests[id].timestamp + requests[id].timeduration))... */\n      iszero\n      tag_223\n      jumpi\n        /* \"contracts/FloodHelpV2.sol\":4289:4305  closeRequest(id) */\n      tag_224\n        /* \"contracts/FloodHelpV2.sol\":4302:4304  id */\n      dup2\n        /* \"contracts/FloodHelpV2.sol\":4289:4301  closeRequest */\n      tag_60\n        /* \"contracts/FloodHelpV2.sol\":4289:4305  closeRequest(id) */\n      jump\t// in\n    tag_224:\n        /* \"contracts/FloodHelpV2.sol\":4201:4809  if(block.timestamp > (requests[id].timestamp + requests[id].timeduration))... */\n      jump(tag_225)\n    tag_223:\n        /* \"contracts/FloodHelpV2.sol\":4412:4413  0 */\n      0x00\n        /* \"contracts/FloodHelpV2.sol\":4399:4408  msg.value */\n      callvalue\n        /* \"contracts/FloodHelpV2.sol\":4399:4413  msg.value != 0 */\n      sub\n        /* \"contracts/FloodHelpV2.sol\":4391:4450  require(msg.value != 0, unicode\"não pode doar valor nulo\") */\n      tag_226\n      jumpi\n      mload(0x40)\n      0x08c379a000000000000000000000000000000000000000000000000000000000\n      dup2\n      mstore\n      0x04\n      add\n      tag_227\n      swap1\n      tag_228\n      jump\t// in\n    tag_227:\n      mload(0x40)\n      dup1\n      swap2\n      sub\n      swap1\n      revert\n    tag_226:\n        /* \"contracts/FloodHelpV2.sol\":4553:4561  requests */\n      0x01\n        /* \"contracts/FloodHelpV2.sol\":4553:4565  requests[id] */\n      0x00\n        /* \"contracts/FloodHelpV2.sol\":4562:4564  id */\n      dup3\n        /* \"contracts/FloodHelpV2.sol\":4553:4565  requests[id] */\n      dup2\n      mstore\n      0x20\n      add\n      swap1\n      dup2\n      mstore\n      0x20\n      add\n      0x00\n      keccak256\n        /* \"contracts/FloodHelpV2.sol\":4553:4573  requests[id].aproved */\n      0x09\n      add\n      0x01\n      swap1\n      sload\n      swap1\n      0x0100\n      exp\n      swap1\n      div\n      0xff\n      and\n        /* \"contracts/FloodHelpV2.sol\":4545:4613  require(requests[id].aproved, unicode\"contrato ainda não aprovado\") */\n      tag_229\n      jumpi\n      mload(0x40)\n      0x08c379a000000000000000000000000000000000000000000000000000000000\n      dup2\n      mstore\n      0x04\n      add\n      tag_230\n      swap1\n      tag_231\n      jump\t// in\n    tag_230:\n      mload(0x40)\n      dup1\n      swap2\n      sub\n      swap1\n      revert\n    tag_229:\n        /* \"contracts/FloodHelpV2.sol\":4652:4661  msg.value */\n      callvalue\n        /* \"contracts/FloodHelpV2.sol\":4628:4636  requests */\n      0x01\n        /* \"contracts/FloodHelpV2.sol\":4628:4640  requests[id] */\n      0x00\n        /* \"contracts/FloodHelpV2.sol\":4637:4639  id */\n      dup4\n        /* \"contracts/FloodHelpV2.sol\":4628:4640  requests[id] */\n      dup2\n      mstore\n      0x20\n      add\n      swap1\n      dup2\n      mstore\n      0x20\n      add\n      0x00\n      keccak256\n        /* \"contracts/FloodHelpV2.sol\":4628:4648  requests[id].balance */\n      0x07\n      add\n      0x00\n        /* \"contracts/FloodHelpV2.sol\":4628:4661  requests[id].balance += msg.value */\n      dup3\n      dup3\n      sload\n      tag_232\n      swap2\n      swap1\n      tag_206\n      jump\t// in\n    tag_232:\n      swap3\n      pop\n      pop\n      dup2\n      swap1\n      sstore\n      pop\n        /* \"contracts/FloodHelpV2.sol\":4676:4684  requests */\n      0x01\n        /* \"contracts/FloodHelpV2.sol\":4676:4688  requests[id] */\n      0x00\n        /* \"contracts/FloodHelpV2.sol\":4685:4687  id */\n      dup3\n        /* \"contracts/FloodHelpV2.sol\":4676:4688  requests[id] */\n      dup2\n      mstore\n      0x20\n      add\n      swap1\n      dup2\n      mstore\n      0x20\n      add\n      0x00\n      keccak256\n        /* \"contracts/FloodHelpV2.sol\":4676:4701  requests[id].totaldoacoes */\n      0x08\n      add\n      0x00\n        /* \"contracts/FloodHelpV2.sol\":4676:4703  requests[id].totaldoacoes++ */\n      dup2\n      sload\n      dup1\n      swap3\n      swap2\n      swap1\n      tag_233\n      swap1\n      tag_127\n      jump\t// in\n    tag_233:\n      swap2\n      swap1\n      pop\n      sstore\n      pop\n        /* \"contracts/FloodHelpV2.sol\":4745:4753  requests */\n      0x01\n        /* \"contracts/FloodHelpV2.sol\":4745:4757  requests[id] */\n      0x00\n        /* \"contracts/FloodHelpV2.sol\":4754:4756  id */\n      dup3\n        /* \"contracts/FloodHelpV2.sol\":4745:4757  requests[id] */\n      dup2\n      mstore\n      0x20\n      add\n      swap1\n      dup2\n      mstore\n      0x20\n      add\n      0x00\n      keccak256\n        /* \"contracts/FloodHelpV2.sol\":4745:4762  requests[id].goal */\n      0x06\n      add\n      sload\n        /* \"contracts/FloodHelpV2.sol\":4721:4729  requests */\n      0x01\n        /* \"contracts/FloodHelpV2.sol\":4721:4733  requests[id] */\n      0x00\n        /* \"contracts/FloodHelpV2.sol\":4730:4732  id */\n      dup4\n        /* \"contracts/FloodHelpV2.sol\":4721:4733  requests[id] */\n      dup2\n      mstore\n      0x20\n      add\n      swap1\n      dup2\n      mstore\n      0x20\n      add\n      0x00\n      keccak256\n        /* \"contracts/FloodHelpV2.sol\":4721:4741  requests[id].balance */\n      0x07\n      add\n      sload\n        /* \"contracts/FloodHelpV2.sol\":4721:4762  requests[id].balance >= requests[id].goal */\n      lt\n        /* \"contracts/FloodHelpV2.sol\":4718:4797  if(requests[id].balance >= requests[id].goal)... */\n      tag_234\n      jumpi\n        /* \"contracts/FloodHelpV2.sol\":4781:4797  closeRequest(id) */\n      tag_235\n        /* \"contracts/FloodHelpV2.sol\":4794:4796  id */\n      dup2\n        /* \"contracts/FloodHelpV2.sol\":4781:4793  closeRequest */\n      tag_60\n        /* \"contracts/FloodHelpV2.sol\":4781:4797  closeRequest(id) */\n      jump\t// in\n    tag_235:\n        /* \"contracts/FloodHelpV2.sol\":4718:4797  if(requests[id].balance >= requests[id].goal)... */\n    tag_234:\n        /* \"contracts/FloodHelpV2.sol\":4201:4809  if(block.timestamp > (requests[id].timestamp + requests[id].timeduration))... */\n    tag_225:\n        /* \"contracts/FloodHelpV2.sol\":3743:4820  function donate(uint id) public payable {... */\n      pop\n      jump\t// out\n        /* \"contracts/FloodHelpV2.sol\":1120:1140  address public admin */\n    tag_66:\n      0x02\n      0x00\n      swap1\n      sload\n      swap1\n      0x0100\n      exp\n      swap1\n      div\n      0xffffffffffffffffffffffffffffffffffffffff\n      and\n      dup2\n      jump\t// out\n    tag_104:\n      mload(0x40)\n      dup1\n      0x0180\n      add\n      0x40\n      mstore\n      dup1\n      0x00\n      dup2\n      mstore\n      0x20\n      add\n      and(0xffffffffffffffffffffffffffffffffffffffff, 0x00)\n      dup2\n      mstore\n      0x20\n      add\n      0x60\n      dup2\n      mstore\n      0x20\n      add\n      0x60\n      dup2\n      mstore\n      0x20\n      add\n      0x60\n      dup2\n      mstore\n      0x20\n      add\n      0x00\n      dup2\n      mstore\n      0x20\n      add\n      0x00\n      dup2\n      mstore\n      0x20\n      add\n      0x00\n      dup2\n      mstore\n      0x20\n      add\n      0x00\n      dup2\n      mstore\n      0x20\n      add\n      iszero(iszero(0x00))\n      dup2\n      mstore\n      0x20\n      add\n      iszero(iszero(0x00))\n      dup2\n      mstore\n      0x20\n      add\n      0x00\n      dup2\n      mstore\n      pop\n      swap1\n      jump\t// out\n        /* \"#utility.yul\":7:84   */\n    tag_236:\n        /* \"#utility.yul\":44:51   */\n      0x00\n        /* \"#utility.yul\":73:78   */\n      dup2\n        /* \"#utility.yul\":62:78   */\n      swap1\n      pop\n        /* \"#utility.yul\":7:84   */\n      swap2\n      swap1\n      pop\n      jump\t// out\n        /* \"#utility.yul\":90:208   */\n    tag_237:\n        /* \"#utility.yul\":177:201   */\n      tag_315\n        /* \"#utility.yul\":195:200   */\n      dup2\n        /* \"#utility.yul\":177:201   */\n      tag_236\n      jump\t// in\n    tag_315:\n        /* \"#utility.yul\":172:175   */\n      dup3\n        /* \"#utility.yul\":165:202   */\n      mstore\n        /* \"#utility.yul\":90:208   */\n      pop\n      pop\n      jump\t// out\n        /* \"#utility.yul\":214:436   */\n    tag_18:\n        /* \"#utility.yul\":307:311   */\n      0x00\n        /* \"#utility.yul\":345:347   */\n      0x20\n        /* \"#utility.yul\":334:343   */\n      dup3\n        /* \"#utility.yul\":330:348   */\n      add\n        /* \"#utility.yul\":322:348   */\n      swap1\n      pop\n        /* \"#utility.yul\":358:429   */\n      tag_317\n        /* \"#utility.yul\":426:427   */\n      0x00\n        /* \"#utility.yul\":415:424   */\n      dup4\n        /* \"#utility.yul\":411:428   */\n      add\n        /* \"#utility.yul\":402:408   */\n      dup5\n        /* \"#utility.yul\":358:429   */\n      tag_237\n      jump\t// in\n    tag_317:\n        /* \"#utility.yul\":214:436   */\n      swap3\n      swap2\n      pop\n      pop\n      jump\t// out\n        /* \"#utility.yul\":442:517   */\n    tag_238:\n        /* \"#utility.yul\":475:481   */\n      0x00\n        /* \"#utility.yul\":508:510   */\n      0x40\n        /* \"#utility.yul\":502:511   */\n      mload\n        /* \"#utility.yul\":492:511   */\n      swap1\n      pop\n        /* \"#utility.yul\":442:517   */\n      swap1\n      jump\t// out\n        /* \"#utility.yul\":523:640   */\n    tag_239:\n        /* \"#utility.yul\":632:633   */\n      0x00\n        /* \"#utility.yul\":629:630   */\n      dup1\n        /* \"#utility.yul\":622:634   */\n      revert\n        /* \"#utility.yul\":646:763   */\n    tag_240:\n        /* \"#utility.yul\":755:756   */\n      0x00\n        /* \"#utility.yul\":752:753   */\n      dup1\n        /* \"#utility.yul\":745:757   */\n      revert\n        /* \"#utility.yul\":769:891   */\n    tag_241:\n        /* \"#utility.yul\":842:866   */\n      tag_322\n        /* \"#utility.yul\":860:865   */\n      dup2\n        /* \"#utility.yul\":842:866   */\n      tag_236\n      jump\t// in\n    tag_322:\n        /* \"#utility.yul\":835:840   */\n      dup2\n        /* \"#utility.yul\":832:867   */\n      eq\n        /* \"#utility.yul\":822:885   */\n      tag_323\n      jumpi\n        /* \"#utility.yul\":881:882   */\n      0x00\n        /* \"#utility.yul\":878:879   */\n      dup1\n        /* \"#utility.yul\":871:883   */\n      revert\n        /* \"#utility.yul\":822:885   */\n    tag_323:\n        /* \"#utility.yul\":769:891   */\n      pop\n      jump\t// out\n        /* \"#utility.yul\":897:1036   */\n    tag_242:\n        /* \"#utility.yul\":943:948   */\n      0x00\n        /* \"#utility.yul\":981:987   */\n      dup2\n        /* \"#utility.yul\":968:988   */\n      calldataload\n        /* \"#utility.yul\":959:988   */\n      swap1\n      pop\n        /* \"#utility.yul\":997:1030   */\n      tag_325\n        /* \"#utility.yul\":1024:1029   */\n      dup2\n        /* \"#utility.yul\":997:1030   */\n      tag_241\n      jump\t// in\n    tag_325:\n        /* \"#utility.yul\":897:1036   */\n      swap3\n      swap2\n      pop\n      pop\n      jump\t// out\n        /* \"#utility.yul\":1042:1371   */\n    tag_22:\n        /* \"#utility.yul\":1101:1107   */\n      0x00\n        /* \"#utility.yul\":1150:1152   */\n      0x20\n        /* \"#utility.yul\":1138:1147   */\n      dup3\n        /* \"#utility.yul\":1129:1136   */\n      dup5\n        /* \"#utility.yul\":1125:1148   */\n      sub\n        /* \"#utility.yul\":1121:1153   */\n      slt\n        /* \"#utility.yul\":1118:1237   */\n      iszero\n      tag_327\n      jumpi\n        /* \"#utility.yul\":1156:1235   */\n      tag_328\n      tag_239\n      jump\t// in\n    tag_328:\n        /* \"#utility.yul\":1118:1237   */\n    tag_327:\n        /* \"#utility.yul\":1276:1277   */\n      0x00\n        /* \"#utility.yul\":1301:1354   */\n      tag_329\n        /* \"#utility.yul\":1346:1353   */\n      dup5\n        /* \"#utility.yul\":1337:1343   */\n      dup3\n        /* \"#utility.yul\":1326:1335   */\n      dup6\n        /* \"#utility.yul\":1322:1344   */\n      add\n        /* \"#utility.yul\":1301:1354   */\n      tag_242\n      jump\t// in\n    tag_329:\n        /* \"#utility.yul\":1291:1354   */\n      swap2\n      pop\n        /* \"#utility.yul\":1247:1364   */\n      pop\n        /* \"#utility.yul\":1042:1371   */\n      swap3\n      swap2\n      pop\n      pop\n      jump\t// out\n        /* \"#utility.yul\":1377:1503   */\n    tag_243:\n        /* \"#utility.yul\":1414:1421   */\n      0x00\n        /* \"#utility.yul\":1454:1496   */\n      0xffffffffffffffffffffffffffffffffffffffff\n        /* \"#utility.yul\":1447:1452   */\n      dup3\n        /* \"#utility.yul\":1443:1497   */\n      and\n        /* \"#utility.yul\":1432:1497   */\n      swap1\n      pop\n        /* \"#utility.yul\":1377:1503   */\n      swap2\n      swap1\n      pop\n      jump\t// out\n        /* \"#utility.yul\":1509:1605   */\n    tag_244:\n        /* \"#utility.yul\":1546:1553   */\n      0x00\n        /* \"#utility.yul\":1575:1599   */\n      tag_332\n        /* \"#utility.yul\":1593:1598   */\n      dup3\n        /* \"#utility.yul\":1575:1599   */\n      tag_243\n      jump\t// in\n    tag_332:\n        /* \"#utility.yul\":1564:1599   */\n      swap1\n      pop\n        /* \"#utility.yul\":1509:1605   */\n      swap2\n      swap1\n      pop\n      jump\t// out\n        /* \"#utility.yul\":1611:1729   */\n    tag_245:\n        /* \"#utility.yul\":1698:1722   */\n      tag_334\n        /* \"#utility.yul\":1716:1721   */\n      dup2\n        /* \"#utility.yul\":1698:1722   */\n      tag_244\n      jump\t// in\n    tag_334:\n        /* \"#utility.yul\":1693:1696   */\n      dup3\n        /* \"#utility.yul\":1686:1723   */\n      mstore\n        /* \"#utility.yul\":1611:1729   */\n      pop\n      pop\n      jump\t// out\n        /* \"#utility.yul\":1735:1834   */\n    tag_246:\n        /* \"#utility.yul\":1787:1793   */\n      0x00\n        /* \"#utility.yul\":1821:1826   */\n      dup2\n        /* \"#utility.yul\":1815:1827   */\n      mload\n        /* \"#utility.yul\":1805:1827   */\n      swap1\n      pop\n        /* \"#utility.yul\":1735:1834   */\n      swap2\n      swap1\n      pop\n      jump\t// out\n        /* \"#utility.yul\":1840:2009   */\n    tag_247:\n        /* \"#utility.yul\":1924:1935   */\n      0x00\n        /* \"#utility.yul\":1958:1964   */\n      dup3\n        /* \"#utility.yul\":1953:1956   */\n      dup3\n        /* \"#utility.yul\":1946:1965   */\n      mstore\n        /* \"#utility.yul\":1998:2002   */\n      0x20\n        /* \"#utility.yul\":1993:1996   */\n      dup3\n        /* \"#utility.yul\":1989:2003   */\n      add\n        /* \"#utility.yul\":1974:2003   */\n      swap1\n      pop\n        /* \"#utility.yul\":1840:2009   */\n      swap3\n      swap2\n      pop\n      pop\n      jump\t// out\n        /* \"#utility.yul\":2015:2154   */\n    tag_248:\n        /* \"#utility.yul\":2104:2110   */\n      dup3\n        /* \"#utility.yul\":2099:2102   */\n      dup2\n        /* \"#utility.yul\":2094:2097   */\n      dup4\n        /* \"#utility.yul\":2088:2111   */\n      mcopy\n        /* \"#utility.yul\":2145:2146   */\n      0x00\n        /* \"#utility.yul\":2136:2142   */\n      dup4\n        /* \"#utility.yul\":2131:2134   */\n      dup4\n        /* \"#utility.yul\":2127:2143   */\n      add\n        /* \"#utility.yul\":2120:2147   */\n      mstore\n        /* \"#utility.yul\":2015:2154   */\n      pop\n      pop\n      pop\n      jump\t// out\n        /* \"#utility.yul\":2160:2262   */\n    tag_249:\n        /* \"#utility.yul\":2201:2207   */\n      0x00\n        /* \"#utility.yul\":2252:2254   */\n      0x1f\n        /* \"#utility.yul\":2248:2255   */\n      not\n        /* \"#utility.yul\":2243:2245   */\n      0x1f\n        /* \"#utility.yul\":2236:2241   */\n      dup4\n        /* \"#utility.yul\":2232:2246   */\n      add\n        /* \"#utility.yul\":2228:2256   */\n      and\n        /* \"#utility.yul\":2218:2256   */\n      swap1\n      pop\n        /* \"#utility.yul\":2160:2262   */\n      swap2\n      swap1\n      pop\n      jump\t// out\n        /* \"#utility.yul\":2268:2645   */\n    tag_250:\n        /* \"#utility.yul\":2356:2359   */\n      0x00\n        /* \"#utility.yul\":2384:2423   */\n      tag_340\n        /* \"#utility.yul\":2417:2422   */\n      dup3\n        /* \"#utility.yul\":2384:2423   */\n      tag_246\n      jump\t// in\n    tag_340:\n        /* \"#utility.yul\":2439:2510   */\n      tag_341\n        /* \"#utility.yul\":2503:2509   */\n      dup2\n        /* \"#utility.yul\":2498:2501   */\n      dup6\n        /* \"#utility.yul\":2439:2510   */\n      tag_247\n      jump\t// in\n    tag_341:\n        /* \"#utility.yul\":2432:2510   */\n      swap4\n      pop\n        /* \"#utility.yul\":2519:2584   */\n      tag_342\n        /* \"#utility.yul\":2577:2583   */\n      dup2\n        /* \"#utility.yul\":2572:2575   */\n      dup6\n        /* \"#utility.yul\":2565:2569   */\n      0x20\n        /* \"#utility.yul\":2558:2563   */\n      dup7\n        /* \"#utility.yul\":2554:2570   */\n      add\n        /* \"#utility.yul\":2519:2584   */\n      tag_248\n      jump\t// in\n    tag_342:\n        /* \"#utility.yul\":2609:2638   */\n      tag_343\n        /* \"#utility.yul\":2631:2637   */\n      dup2\n        /* \"#utility.yul\":2609:2638   */\n      tag_249\n      jump\t// in\n    tag_343:\n        /* \"#utility.yul\":2604:2607   */\n      dup5\n        /* \"#utility.yul\":2600:2639   */\n      add\n        /* \"#utility.yul\":2593:2639   */\n      swap2\n      pop\n        /* \"#utility.yul\":2360:2645   */\n      pop\n        /* \"#utility.yul\":2268:2645   */\n      swap3\n      swap2\n      pop\n      pop\n      jump\t// out\n        /* \"#utility.yul\":2651:2741   */\n    tag_251:\n        /* \"#utility.yul\":2685:2692   */\n      0x00\n        /* \"#utility.yul\":2728:2733   */\n      dup2\n        /* \"#utility.yul\":2721:2734   */\n      iszero\n        /* \"#utility.yul\":2714:2735   */\n      iszero\n        /* \"#utility.yul\":2703:2735   */\n      swap1\n      pop\n        /* \"#utility.yul\":2651:2741   */\n      swap2\n      swap1\n      pop\n      jump\t// out\n        /* \"#utility.yul\":2747:2856   */\n    tag_252:\n        /* \"#utility.yul\":2828:2849   */\n      tag_346\n        /* \"#utility.yul\":2843:2848   */\n      dup2\n        /* \"#utility.yul\":2828:2849   */\n      tag_251\n      jump\t// in\n    tag_346:\n        /* \"#utility.yul\":2823:2826   */\n      dup3\n        /* \"#utility.yul\":2816:2850   */\n      mstore\n        /* \"#utility.yul\":2747:2856   */\n      pop\n      pop\n      jump\t// out\n        /* \"#utility.yul\":2862:4556   */\n    tag_25:\n        /* \"#utility.yul\":3313:3317   */\n      0x00\n        /* \"#utility.yul\":3351:3354   */\n      0x0180\n        /* \"#utility.yul\":3340:3349   */\n      dup3\n        /* \"#utility.yul\":3336:3355   */\n      add\n        /* \"#utility.yul\":3328:3355   */\n      swap1\n      pop\n        /* \"#utility.yul\":3365:3436   */\n      tag_348\n        /* \"#utility.yul\":3433:3434   */\n      0x00\n        /* \"#utility.yul\":3422:3431   */\n      dup4\n        /* \"#utility.yul\":3418:3435   */\n      add\n        /* \"#utility.yul\":3409:3415   */\n      dup16\n        /* \"#utility.yul\":3365:3436   */\n      tag_237\n      jump\t// in\n    tag_348:\n        /* \"#utility.yul\":3446:3518   */\n      tag_349\n        /* \"#utility.yul\":3514:3516   */\n      0x20\n        /* \"#utility.yul\":3503:3512   */\n      dup4\n        /* \"#utility.yul\":3499:3517   */\n      add\n        /* \"#utility.yul\":3490:3496   */\n      dup15\n        /* \"#utility.yul\":3446:3518   */\n      tag_245\n      jump\t// in\n    tag_349:\n        /* \"#utility.yul\":3565:3574   */\n      dup2\n        /* \"#utility.yul\":3559:3563   */\n      dup2\n        /* \"#utility.yul\":3555:3575   */\n      sub\n        /* \"#utility.yul\":3550:3552   */\n      0x40\n        /* \"#utility.yul\":3539:3548   */\n      dup4\n        /* \"#utility.yul\":3535:3553   */\n      add\n        /* \"#utility.yul\":3528:3576   */\n      mstore\n        /* \"#utility.yul\":3593:3671   */\n      tag_350\n        /* \"#utility.yul\":3666:3670   */\n      dup2\n        /* \"#utility.yul\":3657:3663   */\n      dup14\n        /* \"#utility.yul\":3593:3671   */\n      tag_250\n      jump\t// in\n    tag_350:\n        /* \"#utility.yul\":3585:3671   */\n      swap1\n      pop\n        /* \"#utility.yul\":3718:3727   */\n      dup2\n        /* \"#utility.yul\":3712:3716   */\n      dup2\n        /* \"#utility.yul\":3708:3728   */\n      sub\n        /* \"#utility.yul\":3703:3705   */\n      0x60\n        /* \"#utility.yul\":3692:3701   */\n      dup4\n        /* \"#utility.yul\":3688:3706   */\n      add\n        /* \"#utility.yul\":3681:3729   */\n      mstore\n        /* \"#utility.yul\":3746:3824   */\n      tag_351\n        /* \"#utility.yul\":3819:3823   */\n      dup2\n        /* \"#utility.yul\":3810:3816   */\n      dup13\n        /* \"#utility.yul\":3746:3824   */\n      tag_250\n      jump\t// in\n    tag_351:\n        /* \"#utility.yul\":3738:3824   */\n      swap1\n      pop\n        /* \"#utility.yul\":3872:3881   */\n      dup2\n        /* \"#utility.yul\":3866:3870   */\n      dup2\n        /* \"#utility.yul\":3862:3882   */\n      sub\n        /* \"#utility.yul\":3856:3859   */\n      0x80\n        /* \"#utility.yul\":3845:3854   */\n      dup4\n        /* \"#utility.yul\":3841:3860   */\n      add\n        /* \"#utility.yul\":3834:3883   */\n      mstore\n        /* \"#utility.yul\":3900:3978   */\n      tag_352\n        /* \"#utility.yul\":3973:3977   */\n      dup2\n        /* \"#utility.yul\":3964:3970   */\n      dup12\n        /* \"#utility.yul\":3900:3978   */\n      tag_250\n      jump\t// in\n    tag_352:\n        /* \"#utility.yul\":3892:3978   */\n      swap1\n      pop\n        /* \"#utility.yul\":3988:4061   */\n      tag_353\n        /* \"#utility.yul\":4056:4059   */\n      0xa0\n        /* \"#utility.yul\":4045:4054   */\n      dup4\n        /* \"#utility.yul\":4041:4060   */\n      add\n        /* \"#utility.yul\":4032:4038   */\n      dup11\n        /* \"#utility.yul\":3988:4061   */\n      tag_237\n      jump\t// in\n    tag_353:\n        /* \"#utility.yul\":4071:4144   */\n      tag_354\n        /* \"#utility.yul\":4139:4142   */\n      0xc0\n        /* \"#utility.yul\":4128:4137   */\n      dup4\n        /* \"#utility.yul\":4124:4143   */\n      add\n        /* \"#utility.yul\":4115:4121   */\n      dup10\n        /* \"#utility.yul\":4071:4144   */\n      tag_237\n      jump\t// in\n    tag_354:\n        /* \"#utility.yul\":4154:4227   */\n      tag_355\n        /* \"#utility.yul\":4222:4225   */\n      0xe0\n        /* \"#utility.yul\":4211:4220   */\n      dup4\n        /* \"#utility.yul\":4207:4226   */\n      add\n        /* \"#utility.yul\":4198:4204   */\n      dup9\n        /* \"#utility.yul\":4154:4227   */\n      tag_237\n      jump\t// in\n    tag_355:\n        /* \"#utility.yul\":4237:4310   */\n      tag_356\n        /* \"#utility.yul\":4305:4308   */\n      0x0100\n        /* \"#utility.yul\":4294:4303   */\n      dup4\n        /* \"#utility.yul\":4290:4309   */\n      add\n        /* \"#utility.yul\":4281:4287   */\n      dup8\n        /* \"#utility.yul\":4237:4310   */\n      tag_237\n      jump\t// in\n    tag_356:\n        /* \"#utility.yul\":4320:4387   */\n      tag_357\n        /* \"#utility.yul\":4382:4385   */\n      0x0120\n        /* \"#utility.yul\":4371:4380   */\n      dup4\n        /* \"#utility.yul\":4367:4386   */\n      add\n        /* \"#utility.yul\":4358:4364   */\n      dup7\n        /* \"#utility.yul\":4320:4387   */\n      tag_252\n      jump\t// in\n    tag_357:\n        /* \"#utility.yul\":4397:4465   */\n      tag_358\n        /* \"#utility.yul\":4460:4463   */\n      0x0140\n        /* \"#utility.yul\":4449:4458   */\n      dup4\n        /* \"#utility.yul\":4445:4464   */\n      add\n        /* \"#utility.yul\":4435:4442   */\n      dup6\n        /* \"#utility.yul\":4397:4465   */\n      tag_252\n      jump\t// in\n    tag_358:\n        /* \"#utility.yul\":4475:4549   */\n      tag_359\n        /* \"#utility.yul\":4544:4547   */\n      0x0160\n        /* \"#utility.yul\":4533:4542   */\n      dup4\n        /* \"#utility.yul\":4529:4548   */\n      add\n        /* \"#utility.yul\":4519:4526   */\n      dup5\n        /* \"#utility.yul\":4475:4549   */\n      tag_237\n      jump\t// in\n    tag_359:\n        /* \"#utility.yul\":2862:4556   */\n      swap14\n      swap13\n      pop\n      pop\n      pop\n      pop\n      pop\n      pop\n      pop\n      pop\n      pop\n      pop\n      pop\n      pop\n      pop\n      jump\t// out\n        /* \"#utility.yul\":4562:4784   */\n    tag_31:\n        /* \"#utility.yul\":4655:4659   */\n      0x00\n        /* \"#utility.yul\":4693:4695   */\n      0x20\n        /* \"#utility.yul\":4682:4691   */\n      dup3\n        /* \"#utility.yul\":4678:4696   */\n      add\n        /* \"#utility.yul\":4670:4696   */\n      swap1\n      pop\n        /* \"#utility.yul\":4706:4777   */\n      tag_361\n        /* \"#utility.yul\":4774:4775   */\n      0x00\n        /* \"#utility.yul\":4763:4772   */\n      dup4\n        /* \"#utility.yul\":4759:4776   */\n      add\n        /* \"#utility.yul\":4750:4756   */\n      dup5\n        /* \"#utility.yul\":4706:4777   */\n      tag_245\n      jump\t// in\n    tag_361:\n        /* \"#utility.yul\":4562:4784   */\n      swap3\n      swap2\n      pop\n      pop\n      jump\t// out\n        /* \"#utility.yul\":4790:5264   */\n    tag_35:\n        /* \"#utility.yul\":4858:4864   */\n      0x00\n        /* \"#utility.yul\":4866:4872   */\n      dup1\n        /* \"#utility.yul\":4915:4917   */\n      0x40\n        /* \"#utility.yul\":4903:4912   */\n      dup4\n        /* \"#utility.yul\":4894:4901   */\n      dup6\n        /* \"#utility.yul\":4890:4913   */\n      sub\n        /* \"#utility.yul\":4886:4918   */\n      slt\n        /* \"#utility.yul\":4883:5002   */\n      iszero\n      tag_363\n      jumpi\n        /* \"#utility.yul\":4921:5000   */\n      tag_364\n      tag_239\n      jump\t// in\n    tag_364:\n        /* \"#utility.yul\":4883:5002   */\n    tag_363:\n        /* \"#utility.yul\":5041:5042   */\n      0x00\n        /* \"#utility.yul\":5066:5119   */\n      tag_365\n        /* \"#utility.yul\":5111:5118   */\n      dup6\n        /* \"#utility.yul\":5102:5108   */\n      dup3\n        /* \"#utility.yul\":5091:5100   */\n      dup7\n        /* \"#utility.yul\":5087:5109   */\n      add\n        /* \"#utility.yul\":5066:5119   */\n      tag_242\n      jump\t// in\n    tag_365:\n        /* \"#utility.yul\":5056:5119   */\n      swap3\n      pop\n        /* \"#utility.yul\":5012:5129   */\n      pop\n        /* \"#utility.yul\":5168:5170   */\n      0x20\n        /* \"#utility.yul\":5194:5247   */\n      tag_366\n        /* \"#utility.yul\":5239:5246   */\n      dup6\n        /* \"#utility.yul\":5230:5236   */\n      dup3\n        /* \"#utility.yul\":5219:5228   */\n      dup7\n        /* \"#utility.yul\":5215:5237   */\n      add\n        /* \"#utility.yul\":5194:5247   */\n      tag_242\n      jump\t// in\n    tag_366:\n        /* \"#utility.yul\":5184:5247   */\n      swap2\n      pop\n        /* \"#utility.yul\":5139:5257   */\n      pop\n        /* \"#utility.yul\":4790:5264   */\n      swap3\n      pop\n      swap3\n      swap1\n      pop\n      jump\t// out\n        /* \"#utility.yul\":5270:5407   */\n    tag_253:\n        /* \"#utility.yul\":5360:5366   */\n      0x00\n        /* \"#utility.yul\":5394:5399   */\n      dup2\n        /* \"#utility.yul\":5388:5400   */\n      mload\n        /* \"#utility.yul\":5378:5400   */\n      swap1\n      pop\n        /* \"#utility.yul\":5270:5407   */\n      swap2\n      swap1\n      pop\n      jump\t// out\n        /* \"#utility.yul\":5413:5620   */\n    tag_254:\n        /* \"#utility.yul\":5535:5546   */\n      0x00\n        /* \"#utility.yul\":5569:5575   */\n      dup3\n        /* \"#utility.yul\":5564:5567   */\n      dup3\n        /* \"#utility.yul\":5557:5576   */\n      mstore\n        /* \"#utility.yul\":5609:5613   */\n      0x20\n        /* \"#utility.yul\":5604:5607   */\n      dup3\n        /* \"#utility.yul\":5600:5614   */\n      add\n        /* \"#utility.yul\":5585:5614   */\n      swap1\n      pop\n        /* \"#utility.yul\":5413:5620   */\n      swap3\n      swap2\n      pop\n      pop\n      jump\t// out\n        /* \"#utility.yul\":5626:5781   */\n    tag_255:\n        /* \"#utility.yul\":5716:5720   */\n      0x00\n        /* \"#utility.yul\":5739:5742   */\n      dup2\n        /* \"#utility.yul\":5731:5742   */\n      swap1\n      pop\n        /* \"#utility.yul\":5769:5773   */\n      0x20\n        /* \"#utility.yul\":5764:5767   */\n      dup3\n        /* \"#utility.yul\":5760:5774   */\n      add\n        /* \"#utility.yul\":5752:5774   */\n      swap1\n      pop\n        /* \"#utility.yul\":5626:5781   */\n      swap2\n      swap1\n      pop\n      jump\t// out\n        /* \"#utility.yul\":5787:5895   */\n    tag_256:\n        /* \"#utility.yul\":5864:5888   */\n      tag_371\n        /* \"#utility.yul\":5882:5887   */\n      dup2\n        /* \"#utility.yul\":5864:5888   */\n      tag_236\n      jump\t// in\n    tag_371:\n        /* \"#utility.yul\":5859:5862   */\n      dup3\n        /* \"#utility.yul\":5852:5889   */\n      mstore\n        /* \"#utility.yul\":5787:5895   */\n      pop\n      pop\n      jump\t// out\n        /* \"#utility.yul\":5901:6009   */\n    tag_257:\n        /* \"#utility.yul\":5978:6002   */\n      tag_373\n        /* \"#utility.yul\":5996:6001   */\n      dup2\n        /* \"#utility.yul\":5978:6002   */\n      tag_244\n      jump\t// in\n    tag_373:\n        /* \"#utility.yul\":5973:5976   */\n      dup3\n        /* \"#utility.yul\":5966:6003   */\n      mstore\n        /* \"#utility.yul\":5901:6009   */\n      pop\n      pop\n      jump\t// out\n        /* \"#utility.yul\":6015:6174   */\n    tag_258:\n        /* \"#utility.yul\":6089:6100   */\n      0x00\n        /* \"#utility.yul\":6123:6129   */\n      dup3\n        /* \"#utility.yul\":6118:6121   */\n      dup3\n        /* \"#utility.yul\":6111:6130   */\n      mstore\n        /* \"#utility.yul\":6163:6167   */\n      0x20\n        /* \"#utility.yul\":6158:6161   */\n      dup3\n        /* \"#utility.yul\":6154:6168   */\n      add\n        /* \"#utility.yul\":6139:6168   */\n      swap1\n      pop\n        /* \"#utility.yul\":6015:6174   */\n      swap3\n      swap2\n      pop\n      pop\n      jump\t// out\n        /* \"#utility.yul\":6180:6537   */\n    tag_259:\n        /* \"#utility.yul\":6258:6261   */\n      0x00\n        /* \"#utility.yul\":6286:6325   */\n      tag_376\n        /* \"#utility.yul\":6319:6324   */\n      dup3\n        /* \"#utility.yul\":6286:6325   */\n      tag_246\n      jump\t// in\n    tag_376:\n        /* \"#utility.yul\":6341:6402   */\n      tag_377\n        /* \"#utility.yul\":6395:6401   */\n      dup2\n        /* \"#utility.yul\":6390:6393   */\n      dup6\n        /* \"#utility.yul\":6341:6402   */\n      tag_258\n      jump\t// in\n    tag_377:\n        /* \"#utility.yul\":6334:6402   */\n      swap4\n      pop\n        /* \"#utility.yul\":6411:6476   */\n      tag_378\n        /* \"#utility.yul\":6469:6475   */\n      dup2\n        /* \"#utility.yul\":6464:6467   */\n      dup6\n        /* \"#utility.yul\":6457:6461   */\n      0x20\n        /* \"#utility.yul\":6450:6455   */\n      dup7\n        /* \"#utility.yul\":6446:6462   */\n      add\n        /* \"#utility.yul\":6411:6476   */\n      tag_248\n      jump\t// in\n    tag_378:\n        /* \"#utility.yul\":6501:6530   */\n      tag_379\n        /* \"#utility.yul\":6523:6529   */\n      dup2\n        /* \"#utility.yul\":6501:6530   */\n      tag_249\n      jump\t// in\n    tag_379:\n        /* \"#utility.yul\":6496:6499   */\n      dup5\n        /* \"#utility.yul\":6492:6531   */\n      add\n        /* \"#utility.yul\":6485:6531   */\n      swap2\n      pop\n        /* \"#utility.yul\":6262:6537   */\n      pop\n        /* \"#utility.yul\":6180:6537   */\n      swap3\n      swap2\n      pop\n      pop\n      jump\t// out\n        /* \"#utility.yul\":6543:6642   */\n    tag_260:\n        /* \"#utility.yul\":6614:6635   */\n      tag_381\n        /* \"#utility.yul\":6629:6634   */\n      dup2\n        /* \"#utility.yul\":6614:6635   */\n      tag_251\n      jump\t// in\n    tag_381:\n        /* \"#utility.yul\":6609:6612   */\n      dup3\n        /* \"#utility.yul\":6602:6636   */\n      mstore\n        /* \"#utility.yul\":6543:6642   */\n      pop\n      pop\n      jump\t// out\n        /* \"#utility.yul\":6688:9206   */\n    tag_261:\n        /* \"#utility.yul\":6793:6796   */\n      0x00\n        /* \"#utility.yul\":6829:6835   */\n      0x0180\n        /* \"#utility.yul\":6824:6827   */\n      dup4\n        /* \"#utility.yul\":6820:6836   */\n      add\n        /* \"#utility.yul\":6916:6920   */\n      0x00\n        /* \"#utility.yul\":6909:6914   */\n      dup4\n        /* \"#utility.yul\":6905:6921   */\n      add\n        /* \"#utility.yul\":6899:6922   */\n      mload\n        /* \"#utility.yul\":6935:6998   */\n      tag_383\n        /* \"#utility.yul\":6992:6996   */\n      0x00\n        /* \"#utility.yul\":6987:6990   */\n      dup7\n        /* \"#utility.yul\":6983:6997   */\n      add\n        /* \"#utility.yul\":6969:6981   */\n      dup3\n        /* \"#utility.yul\":6935:6998   */\n      tag_256\n      jump\t// in\n    tag_383:\n        /* \"#utility.yul\":6846:7008   */\n      pop\n        /* \"#utility.yul\":7092:7096   */\n      0x20\n        /* \"#utility.yul\":7085:7090   */\n      dup4\n        /* \"#utility.yul\":7081:7097   */\n      add\n        /* \"#utility.yul\":7075:7098   */\n      mload\n        /* \"#utility.yul\":7111:7174   */\n      tag_384\n        /* \"#utility.yul\":7168:7172   */\n      0x20\n        /* \"#utility.yul\":7163:7166   */\n      dup7\n        /* \"#utility.yul\":7159:7173   */\n      add\n        /* \"#utility.yul\":7145:7157   */\n      dup3\n        /* \"#utility.yul\":7111:7174   */\n      tag_257\n      jump\t// in\n    tag_384:\n        /* \"#utility.yul\":7018:7184   */\n      pop\n        /* \"#utility.yul\":7267:7271   */\n      0x40\n        /* \"#utility.yul\":7260:7265   */\n      dup4\n        /* \"#utility.yul\":7256:7272   */\n      add\n        /* \"#utility.yul\":7250:7273   */\n      mload\n        /* \"#utility.yul\":7320:7323   */\n      dup5\n        /* \"#utility.yul\":7314:7318   */\n      dup3\n        /* \"#utility.yul\":7310:7324   */\n      sub\n        /* \"#utility.yul\":7303:7307   */\n      0x40\n        /* \"#utility.yul\":7298:7301   */\n      dup7\n        /* \"#utility.yul\":7294:7308   */\n      add\n        /* \"#utility.yul\":7287:7325   */\n      mstore\n        /* \"#utility.yul\":7346:7419   */\n      tag_385\n        /* \"#utility.yul\":7414:7418   */\n      dup3\n        /* \"#utility.yul\":7400:7412   */\n      dup3\n        /* \"#utility.yul\":7346:7419   */\n      tag_259\n      jump\t// in\n    tag_385:\n        /* \"#utility.yul\":7338:7419   */\n      swap2\n      pop\n        /* \"#utility.yul\":7194:7430   */\n      pop\n        /* \"#utility.yul\":7519:7523   */\n      0x60\n        /* \"#utility.yul\":7512:7517   */\n      dup4\n        /* \"#utility.yul\":7508:7524   */\n      add\n        /* \"#utility.yul\":7502:7525   */\n      mload\n        /* \"#utility.yul\":7572:7575   */\n      dup5\n        /* \"#utility.yul\":7566:7570   */\n      dup3\n        /* \"#utility.yul\":7562:7576   */\n      sub\n        /* \"#utility.yul\":7555:7559   */\n      0x60\n        /* \"#utility.yul\":7550:7553   */\n      dup7\n        /* \"#utility.yul\":7546:7560   */\n      add\n        /* \"#utility.yul\":7539:7577   */\n      mstore\n        /* \"#utility.yul\":7598:7671   */\n      tag_386\n        /* \"#utility.yul\":7666:7670   */\n      dup3\n        /* \"#utility.yul\":7652:7664   */\n      dup3\n        /* \"#utility.yul\":7598:7671   */\n      tag_259\n      jump\t// in\n    tag_386:\n        /* \"#utility.yul\":7590:7671   */\n      swap2\n      pop\n        /* \"#utility.yul\":7440:7682   */\n      pop\n        /* \"#utility.yul\":7767:7771   */\n      0x80\n        /* \"#utility.yul\":7760:7765   */\n      dup4\n        /* \"#utility.yul\":7756:7772   */\n      add\n        /* \"#utility.yul\":7750:7773   */\n      mload\n        /* \"#utility.yul\":7820:7823   */\n      dup5\n        /* \"#utility.yul\":7814:7818   */\n      dup3\n        /* \"#utility.yul\":7810:7824   */\n      sub\n        /* \"#utility.yul\":7803:7807   */\n      0x80\n        /* \"#utility.yul\":7798:7801   */\n      dup7\n        /* \"#utility.yul\":7794:7808   */\n      add\n        /* \"#utility.yul\":7787:7825   */\n      mstore\n        /* \"#utility.yul\":7846:7919   */\n      tag_387\n        /* \"#utility.yul\":7914:7918   */\n      dup3\n        /* \"#utility.yul\":7900:7912   */\n      dup3\n        /* \"#utility.yul\":7846:7919   */\n      tag_259\n      jump\t// in\n    tag_387:\n        /* \"#utility.yul\":7838:7919   */\n      swap2\n      pop\n        /* \"#utility.yul\":7692:7930   */\n      pop\n        /* \"#utility.yul\":8017:8021   */\n      0xa0\n        /* \"#utility.yul\":8010:8015   */\n      dup4\n        /* \"#utility.yul\":8006:8022   */\n      add\n        /* \"#utility.yul\":8000:8023   */\n      mload\n        /* \"#utility.yul\":8036:8099   */\n      tag_388\n        /* \"#utility.yul\":8093:8097   */\n      0xa0\n        /* \"#utility.yul\":8088:8091   */\n      dup7\n        /* \"#utility.yul\":8084:8098   */\n      add\n        /* \"#utility.yul\":8070:8082   */\n      dup3\n        /* \"#utility.yul\":8036:8099   */\n      tag_256\n      jump\t// in\n    tag_388:\n        /* \"#utility.yul\":7940:8109   */\n      pop\n        /* \"#utility.yul\":8191:8195   */\n      0xc0\n        /* \"#utility.yul\":8184:8189   */\n      dup4\n        /* \"#utility.yul\":8180:8196   */\n      add\n        /* \"#utility.yul\":8174:8197   */\n      mload\n        /* \"#utility.yul\":8210:8273   */\n      tag_389\n        /* \"#utility.yul\":8267:8271   */\n      0xc0\n        /* \"#utility.yul\":8262:8265   */\n      dup7\n        /* \"#utility.yul\":8258:8272   */\n      add\n        /* \"#utility.yul\":8244:8256   */\n      dup3\n        /* \"#utility.yul\":8210:8273   */\n      tag_256\n      jump\t// in\n    tag_389:\n        /* \"#utility.yul\":8119:8283   */\n      pop\n        /* \"#utility.yul\":8368:8372   */\n      0xe0\n        /* \"#utility.yul\":8361:8366   */\n      dup4\n        /* \"#utility.yul\":8357:8373   */\n      add\n        /* \"#utility.yul\":8351:8374   */\n      mload\n        /* \"#utility.yul\":8387:8450   */\n      tag_390\n        /* \"#utility.yul\":8444:8448   */\n      0xe0\n        /* \"#utility.yul\":8439:8442   */\n      dup7\n        /* \"#utility.yul\":8435:8449   */\n      add\n        /* \"#utility.yul\":8421:8433   */\n      dup3\n        /* \"#utility.yul\":8387:8450   */\n      tag_256\n      jump\t// in\n    tag_390:\n        /* \"#utility.yul\":8293:8460   */\n      pop\n        /* \"#utility.yul\":8550:8556   */\n      0x0100\n        /* \"#utility.yul\":8543:8548   */\n      dup4\n        /* \"#utility.yul\":8539:8557   */\n      add\n        /* \"#utility.yul\":8533:8558   */\n      mload\n        /* \"#utility.yul\":8571:8636   */\n      tag_391\n        /* \"#utility.yul\":8628:8634   */\n      0x0100\n        /* \"#utility.yul\":8623:8626   */\n      dup7\n        /* \"#utility.yul\":8619:8635   */\n      add\n        /* \"#utility.yul\":8605:8617   */\n      dup3\n        /* \"#utility.yul\":8571:8636   */\n      tag_256\n      jump\t// in\n    tag_391:\n        /* \"#utility.yul\":8470:8646   */\n      pop\n        /* \"#utility.yul\":8728:8734   */\n      0x0120\n        /* \"#utility.yul\":8721:8726   */\n      dup4\n        /* \"#utility.yul\":8717:8735   */\n      add\n        /* \"#utility.yul\":8711:8736   */\n      mload\n        /* \"#utility.yul\":8749:8808   */\n      tag_392\n        /* \"#utility.yul\":8800:8806   */\n      0x0120\n        /* \"#utility.yul\":8795:8798   */\n      dup7\n        /* \"#utility.yul\":8791:8807   */\n      add\n        /* \"#utility.yul\":8777:8789   */\n      dup3\n        /* \"#utility.yul\":8749:8808   */\n      tag_260\n      jump\t// in\n    tag_392:\n        /* \"#utility.yul\":8656:8818   */\n      pop\n        /* \"#utility.yul\":8903:8909   */\n      0x0140\n        /* \"#utility.yul\":8896:8901   */\n      dup4\n        /* \"#utility.yul\":8892:8910   */\n      add\n        /* \"#utility.yul\":8886:8911   */\n      mload\n        /* \"#utility.yul\":8924:8983   */\n      tag_393\n        /* \"#utility.yul\":8975:8981   */\n      0x0140\n        /* \"#utility.yul\":8970:8973   */\n      dup7\n        /* \"#utility.yul\":8966:8982   */\n      add\n        /* \"#utility.yul\":8952:8964   */\n      dup3\n        /* \"#utility.yul\":8924:8983   */\n      tag_260\n      jump\t// in\n    tag_393:\n        /* \"#utility.yul\":8828:8993   */\n      pop\n        /* \"#utility.yul\":9083:9089   */\n      0x0160\n        /* \"#utility.yul\":9076:9081   */\n      dup4\n        /* \"#utility.yul\":9072:9090   */\n      add\n        /* \"#utility.yul\":9066:9091   */\n      mload\n        /* \"#utility.yul\":9104:9169   */\n      tag_394\n        /* \"#utility.yul\":9161:9167   */\n      0x0160\n        /* \"#utility.yul\":9156:9159   */\n      dup7\n        /* \"#utility.yul\":9152:9168   */\n      add\n        /* \"#utility.yul\":9138:9150   */\n      dup3\n        /* \"#utility.yul\":9104:9169   */\n      tag_256\n      jump\t// in\n    tag_394:\n        /* \"#utility.yul\":9003:9179   */\n      pop\n        /* \"#utility.yul\":9196:9200   */\n      dup1\n        /* \"#utility.yul\":9189:9200   */\n      swap2\n      pop\n        /* \"#utility.yul\":6798:9206   */\n      pop\n        /* \"#utility.yul\":6688:9206   */\n      swap3\n      swap2\n      pop\n      pop\n      jump\t// out\n        /* \"#utility.yul\":9212:9460   */\n    tag_262:\n        /* \"#utility.yul\":9327:9337   */\n      0x00\n        /* \"#utility.yul\":9362:9454   */\n      tag_396\n        /* \"#utility.yul\":9450:9453   */\n      dup4\n        /* \"#utility.yul\":9442:9448   */\n      dup4\n        /* \"#utility.yul\":9362:9454   */\n      tag_261\n      jump\t// in\n    tag_396:\n        /* \"#utility.yul\":9348:9454   */\n      swap1\n      pop\n        /* \"#utility.yul\":9212:9460   */\n      swap3\n      swap2\n      pop\n      pop\n      jump\t// out\n        /* \"#utility.yul\":9466:9602   */\n    tag_263:\n        /* \"#utility.yul\":9559:9563   */\n      0x00\n        /* \"#utility.yul\":9591:9595   */\n      0x20\n        /* \"#utility.yul\":9586:9589   */\n      dup3\n        /* \"#utility.yul\":9582:9596   */\n      add\n        /* \"#utility.yul\":9574:9596   */\n      swap1\n      pop\n        /* \"#utility.yul\":9466:9602   */\n      swap2\n      swap1\n      pop\n      jump\t// out\n        /* \"#utility.yul\":9652:10747   */\n    tag_264:\n        /* \"#utility.yul\":9817:9820   */\n      0x00\n        /* \"#utility.yul\":9846:9923   */\n      tag_399\n        /* \"#utility.yul\":9917:9922   */\n      dup3\n        /* \"#utility.yul\":9846:9923   */\n      tag_253\n      jump\t// in\n    tag_399:\n        /* \"#utility.yul\":9939:10048   */\n      tag_400\n        /* \"#utility.yul\":10041:10047   */\n      dup2\n        /* \"#utility.yul\":10036:10039   */\n      dup6\n        /* \"#utility.yul\":9939:10048   */\n      tag_254\n      jump\t// in\n    tag_400:\n        /* \"#utility.yul\":9932:10048   */\n      swap4\n      pop\n        /* \"#utility.yul\":10074:10077   */\n      dup4\n        /* \"#utility.yul\":10119:10123   */\n      0x20\n        /* \"#utility.yul\":10111:10117   */\n      dup3\n        /* \"#utility.yul\":10107:10124   */\n      mul\n        /* \"#utility.yul\":10102:10105   */\n      dup6\n        /* \"#utility.yul\":10098:10125   */\n      add\n        /* \"#utility.yul\":10149:10228   */\n      tag_401\n        /* \"#utility.yul\":10222:10227   */\n      dup6\n        /* \"#utility.yul\":10149:10228   */\n      tag_255\n      jump\t// in\n    tag_401:\n        /* \"#utility.yul\":10251:10258   */\n      dup1\n        /* \"#utility.yul\":10282:10283   */\n      0x00\n        /* \"#utility.yul\":10267:10702   */\n    tag_402:\n        /* \"#utility.yul\":10292:10298   */\n      dup6\n        /* \"#utility.yul\":10289:10290   */\n      dup2\n        /* \"#utility.yul\":10286:10299   */\n      lt\n        /* \"#utility.yul\":10267:10702   */\n      iszero\n      tag_404\n      jumpi\n        /* \"#utility.yul\":10363:10372   */\n      dup5\n        /* \"#utility.yul\":10357:10361   */\n      dup5\n        /* \"#utility.yul\":10353:10373   */\n      sub\n        /* \"#utility.yul\":10348:10351   */\n      dup10\n        /* \"#utility.yul\":10341:10374   */\n      mstore\n        /* \"#utility.yul\":10414:10420   */\n      dup2\n        /* \"#utility.yul\":10408:10421   */\n      mload\n        /* \"#utility.yul\":10442:10552   */\n      tag_405\n        /* \"#utility.yul\":10547:10551   */\n      dup6\n        /* \"#utility.yul\":10532:10545   */\n      dup3\n        /* \"#utility.yul\":10442:10552   */\n      tag_262\n      jump\t// in\n    tag_405:\n        /* \"#utility.yul\":10434:10552   */\n      swap5\n      pop\n        /* \"#utility.yul\":10575:10658   */\n      tag_406\n        /* \"#utility.yul\":10651:10657   */\n      dup4\n        /* \"#utility.yul\":10575:10658   */\n      tag_263\n      jump\t// in\n    tag_406:\n        /* \"#utility.yul\":10565:10658   */\n      swap3\n      pop\n        /* \"#utility.yul\":10687:10691   */\n      0x20\n        /* \"#utility.yul\":10682:10685   */\n      dup11\n        /* \"#utility.yul\":10678:10692   */\n      add\n        /* \"#utility.yul\":10671:10692   */\n      swap10\n      pop\n        /* \"#utility.yul\":10327:10702   */\n      pop\n        /* \"#utility.yul\":10314:10315   */\n      0x01\n        /* \"#utility.yul\":10311:10312   */\n      dup2\n        /* \"#utility.yul\":10307:10316   */\n      add\n        /* \"#utility.yul\":10302:10316   */\n      swap1\n      pop\n        /* \"#utility.yul\":10267:10702   */\n      jump(tag_402)\n    tag_404:\n        /* \"#utility.yul\":10271:10285   */\n      pop\n        /* \"#utility.yul\":10718:10722   */\n      dup3\n        /* \"#utility.yul\":10711:10722   */\n      swap8\n      pop\n        /* \"#utility.yul\":10738:10741   */\n      dup8\n        /* \"#utility.yul\":10731:10741   */\n      swap6\n      pop\n        /* \"#utility.yul\":9822:10747   */\n      pop\n      pop\n      pop\n      pop\n      pop\n        /* \"#utility.yul\":9652:10747   */\n      swap3\n      swap2\n      pop\n      pop\n      jump\t// out\n        /* \"#utility.yul\":10753:11218   */\n    tag_38:\n        /* \"#utility.yul\":10942:10946   */\n      0x00\n        /* \"#utility.yul\":10980:10982   */\n      0x20\n        /* \"#utility.yul\":10969:10978   */\n      dup3\n        /* \"#utility.yul\":10965:10983   */\n      add\n        /* \"#utility.yul\":10957:10983   */\n      swap1\n      pop\n        /* \"#utility.yul\":11029:11038   */\n      dup2\n        /* \"#utility.yul\":11023:11027   */\n      dup2\n        /* \"#utility.yul\":11019:11039   */\n      sub\n        /* \"#utility.yul\":11015:11016   */\n      0x00\n        /* \"#utility.yul\":11004:11013   */\n      dup4\n        /* \"#utility.yul\":11000:11017   */\n      add\n        /* \"#utility.yul\":10993:11040   */\n      mstore\n        /* \"#utility.yul\":11057:11211   */\n      tag_408\n        /* \"#utility.yul\":11206:11210   */\n      dup2\n        /* \"#utility.yul\":11197:11203   */\n      dup5\n        /* \"#utility.yul\":11057:11211   */\n      tag_264\n      jump\t// in\n    tag_408:\n        /* \"#utility.yul\":11049:11211   */\n      swap1\n      pop\n        /* \"#utility.yul\":10753:11218   */\n      swap3\n      swap2\n      pop\n      pop\n      jump\t// out\n        /* \"#utility.yul\":11224:11341   */\n    tag_265:\n        /* \"#utility.yul\":11333:11334   */\n      0x00\n        /* \"#utility.yul\":11330:11331   */\n      dup1\n        /* \"#utility.yul\":11323:11335   */\n      revert\n        /* \"#utility.yul\":11347:11464   */\n    tag_266:\n        /* \"#utility.yul\":11456:11457   */\n      0x00\n        /* \"#utility.yul\":11453:11454   */\n      dup1\n        /* \"#utility.yul\":11446:11458   */\n      revert\n        /* \"#utility.yul\":11470:11650   */\n    tag_100:\n        /* \"#utility.yul\":11518:11595   */\n      0x4e487b7100000000000000000000000000000000000000000000000000000000\n        /* \"#utility.yul\":11515:11516   */\n      0x00\n        /* \"#utility.yul\":11508:11596   */\n      mstore\n        /* \"#utility.yul\":11615:11619   */\n      0x41\n        /* \"#utility.yul\":11612:11613   */\n      0x04\n        /* \"#utility.yul\":11605:11620   */\n      mstore\n        /* \"#utility.yul\":11639:11643   */\n      0x24\n        /* \"#utility.yul\":11636:11637   */\n      0x00\n        /* \"#utility.yul\":11629:11644   */\n      revert\n        /* \"#utility.yul\":11656:11937   */\n    tag_267:\n        /* \"#utility.yul\":11739:11766   */\n      tag_413\n        /* \"#utility.yul\":11761:11765   */\n      dup3\n        /* \"#utility.yul\":11739:11766   */\n      tag_249\n      jump\t// in\n    tag_413:\n        /* \"#utility.yul\":11731:11737   */\n      dup2\n        /* \"#utility.yul\":11727:11767   */\n      add\n        /* \"#utility.yul\":11869:11875   */\n      dup2\n        /* \"#utility.yul\":11857:11867   */\n      dup2\n        /* \"#utility.yul\":11854:11876   */\n      lt\n        /* \"#utility.yul\":11833:11851   */\n      0xffffffffffffffff\n        /* \"#utility.yul\":11821:11831   */\n      dup3\n        /* \"#utility.yul\":11818:11852   */\n      gt\n        /* \"#utility.yul\":11815:11877   */\n      or\n        /* \"#utility.yul\":11812:11900   */\n      iszero\n      tag_414\n      jumpi\n        /* \"#utility.yul\":11880:11898   */\n      tag_415\n      tag_100\n      jump\t// in\n    tag_415:\n        /* \"#utility.yul\":11812:11900   */\n    tag_414:\n        /* \"#utility.yul\":11920:11930   */\n      dup1\n        /* \"#utility.yul\":11916:11918   */\n      0x40\n        /* \"#utility.yul\":11909:11931   */\n      mstore\n        /* \"#utility.yul\":11699:11937   */\n      pop\n        /* \"#utility.yul\":11656:11937   */\n      pop\n      pop\n      jump\t// out\n        /* \"#utility.yul\":11943:12072   */\n    tag_268:\n        /* \"#utility.yul\":11977:11983   */\n      0x00\n        /* \"#utility.yul\":12004:12024   */\n      tag_417\n      tag_238\n      jump\t// in\n    tag_417:\n        /* \"#utility.yul\":11994:12024   */\n      swap1\n      pop\n        /* \"#utility.yul\":12033:12066   */\n      tag_418\n        /* \"#utility.yul\":12061:12065   */\n      dup3\n        /* \"#utility.yul\":12053:12059   */\n      dup3\n        /* \"#utility.yul\":12033:12066   */\n      tag_267\n      jump\t// in\n    tag_418:\n        /* \"#utility.yul\":11943:12072   */\n      swap2\n      swap1\n      pop\n      jump\t// out\n        /* \"#utility.yul\":12078:12386   */\n    tag_269:\n        /* \"#utility.yul\":12140:12144   */\n      0x00\n        /* \"#utility.yul\":12230:12248   */\n      0xffffffffffffffff\n        /* \"#utility.yul\":12222:12228   */\n      dup3\n        /* \"#utility.yul\":12219:12249   */\n      gt\n        /* \"#utility.yul\":12216:12272   */\n      iszero\n      tag_420\n      jumpi\n        /* \"#utility.yul\":12252:12270   */\n      tag_421\n      tag_100\n      jump\t// in\n    tag_421:\n        /* \"#utility.yul\":12216:12272   */\n    tag_420:\n        /* \"#utility.yul\":12290:12319   */\n      tag_422\n        /* \"#utility.yul\":12312:12318   */\n      dup3\n        /* \"#utility.yul\":12290:12319   */\n      tag_249\n      jump\t// in\n    tag_422:\n        /* \"#utility.yul\":12282:12319   */\n      swap1\n      pop\n        /* \"#utility.yul\":12374:12378   */\n      0x20\n        /* \"#utility.yul\":12368:12372   */\n      dup2\n        /* \"#utility.yul\":12364:12379   */\n      add\n        /* \"#utility.yul\":12356:12379   */\n      swap1\n      pop\n        /* \"#utility.yul\":12078:12386   */\n      swap2\n      swap1\n      pop\n      jump\t// out\n        /* \"#utility.yul\":12392:12540   */\n    tag_270:\n        /* \"#utility.yul\":12490:12496   */\n      dup3\n        /* \"#utility.yul\":12485:12488   */\n      dup2\n        /* \"#utility.yul\":12480:12483   */\n      dup4\n        /* \"#utility.yul\":12467:12497   */\n      calldatacopy\n        /* \"#utility.yul\":12531:12532   */\n      0x00\n        /* \"#utility.yul\":12522:12528   */\n      dup4\n        /* \"#utility.yul\":12517:12520   */\n      dup4\n        /* \"#utility.yul\":12513:12529   */\n      add\n        /* \"#utility.yul\":12506:12533   */\n      mstore\n        /* \"#utility.yul\":12392:12540   */\n      pop\n      pop\n      pop\n      jump\t// out\n        /* \"#utility.yul\":12546:12971   */\n    tag_271:\n        /* \"#utility.yul\":12624:12629   */\n      0x00\n        /* \"#utility.yul\":12649:12715   */\n      tag_425\n        /* \"#utility.yul\":12665:12714   */\n      tag_426\n        /* \"#utility.yul\":12707:12713   */\n      dup5\n        /* \"#utility.yul\":12665:12714   */\n      tag_269\n      jump\t// in\n    tag_426:\n        /* \"#utility.yul\":12649:12715   */\n      tag_268\n      jump\t// in\n    tag_425:\n        /* \"#utility.yul\":12640:12715   */\n      swap1\n      pop\n        /* \"#utility.yul\":12738:12744   */\n      dup3\n        /* \"#utility.yul\":12731:12736   */\n      dup2\n        /* \"#utility.yul\":12724:12745   */\n      mstore\n        /* \"#utility.yul\":12776:12780   */\n      0x20\n        /* \"#utility.yul\":12769:12774   */\n      dup2\n        /* \"#utility.yul\":12765:12781   */\n      add\n        /* \"#utility.yul\":12814:12817   */\n      dup5\n        /* \"#utility.yul\":12805:12811   */\n      dup5\n        /* \"#utility.yul\":12800:12803   */\n      dup5\n        /* \"#utility.yul\":12796:12812   */\n      add\n        /* \"#utility.yul\":12793:12818   */\n      gt\n        /* \"#utility.yul\":12790:12902   */\n      iszero\n      tag_427\n      jumpi\n        /* \"#utility.yul\":12821:12900   */\n      tag_428\n      tag_266\n      jump\t// in\n    tag_428:\n        /* \"#utility.yul\":12790:12902   */\n    tag_427:\n        /* \"#utility.yul\":12911:12965   */\n      tag_429\n        /* \"#utility.yul\":12958:12964   */\n      dup5\n        /* \"#utility.yul\":12953:12956   */\n      dup3\n        /* \"#utility.yul\":12948:12951   */\n      dup6\n        /* \"#utility.yul\":12911:12965   */\n      tag_270\n      jump\t// in\n    tag_429:\n        /* \"#utility.yul\":12630:12971   */\n      pop\n        /* \"#utility.yul\":12546:12971   */\n      swap4\n      swap3\n      pop\n      pop\n      pop\n      jump\t// out\n        /* \"#utility.yul\":12991:13331   */\n    tag_272:\n        /* \"#utility.yul\":13047:13052   */\n      0x00\n        /* \"#utility.yul\":13096:13099   */\n      dup3\n        /* \"#utility.yul\":13089:13093   */\n      0x1f\n        /* \"#utility.yul\":13081:13087   */\n      dup4\n        /* \"#utility.yul\":13077:13094   */\n      add\n        /* \"#utility.yul\":13073:13100   */\n      slt\n        /* \"#utility.yul\":13063:13185   */\n      tag_431\n      jumpi\n        /* \"#utility.yul\":13104:13183   */\n      tag_432\n      tag_265\n      jump\t// in\n    tag_432:\n        /* \"#utility.yul\":13063:13185   */\n    tag_431:\n        /* \"#utility.yul\":13221:13227   */\n      dup2\n        /* \"#utility.yul\":13208:13228   */\n      calldataload\n        /* \"#utility.yul\":13246:13325   */\n      tag_433\n        /* \"#utility.yul\":13321:13324   */\n      dup5\n        /* \"#utility.yul\":13313:13319   */\n      dup3\n        /* \"#utility.yul\":13306:13310   */\n      0x20\n        /* \"#utility.yul\":13298:13304   */\n      dup7\n        /* \"#utility.yul\":13294:13311   */\n      add\n        /* \"#utility.yul\":13246:13325   */\n      tag_271\n      jump\t// in\n    tag_433:\n        /* \"#utility.yul\":13237:13325   */\n      swap2\n      pop\n        /* \"#utility.yul\":13053:13331   */\n      pop\n        /* \"#utility.yul\":12991:13331   */\n      swap3\n      swap2\n      pop\n      pop\n      jump\t// out\n        /* \"#utility.yul\":13337:14788   */\n    tag_50:\n        /* \"#utility.yul\":13462:13468   */\n      0x00\n        /* \"#utility.yul\":13470:13476   */\n      dup1\n        /* \"#utility.yul\":13478:13484   */\n      0x00\n        /* \"#utility.yul\":13486:13492   */\n      dup1\n        /* \"#utility.yul\":13494:13500   */\n      0x00\n        /* \"#utility.yul\":13543:13546   */\n      0xa0\n        /* \"#utility.yul\":13531:13540   */\n      dup7\n        /* \"#utility.yul\":13522:13529   */\n      dup9\n        /* \"#utility.yul\":13518:13541   */\n      sub\n        /* \"#utility.yul\":13514:13547   */\n      slt\n        /* \"#utility.yul\":13511:13631   */\n      iszero\n      tag_435\n      jumpi\n        /* \"#utility.yul\":13550:13629   */\n      tag_436\n      tag_239\n      jump\t// in\n    tag_436:\n        /* \"#utility.yul\":13511:13631   */\n    tag_435:\n        /* \"#utility.yul\":13698:13699   */\n      0x00\n        /* \"#utility.yul\":13687:13696   */\n      dup7\n        /* \"#utility.yul\":13683:13700   */\n      add\n        /* \"#utility.yul\":13670:13701   */\n      calldataload\n        /* \"#utility.yul\":13728:13746   */\n      0xffffffffffffffff\n        /* \"#utility.yul\":13720:13726   */\n      dup2\n        /* \"#utility.yul\":13717:13747   */\n      gt\n        /* \"#utility.yul\":13714:13831   */\n      iszero\n      tag_437\n      jumpi\n        /* \"#utility.yul\":13750:13829   */\n      tag_438\n      tag_240\n      jump\t// in\n    tag_438:\n        /* \"#utility.yul\":13714:13831   */\n    tag_437:\n        /* \"#utility.yul\":13855:13918   */\n      tag_439\n        /* \"#utility.yul\":13910:13917   */\n      dup9\n        /* \"#utility.yul\":13901:13907   */\n      dup3\n        /* \"#utility.yul\":13890:13899   */\n      dup10\n        /* \"#utility.yul\":13886:13908   */\n      add\n        /* \"#utility.yul\":13855:13918   */\n      tag_272\n      jump\t// in\n    tag_439:\n        /* \"#utility.yul\":13845:13918   */\n      swap6\n      pop\n        /* \"#utility.yul\":13641:13928   */\n      pop\n        /* \"#utility.yul\":13995:13997   */\n      0x20\n        /* \"#utility.yul\":13984:13993   */\n      dup7\n        /* \"#utility.yul\":13980:13998   */\n      add\n        /* \"#utility.yul\":13967:13999   */\n      calldataload\n        /* \"#utility.yul\":14026:14044   */\n      0xffffffffffffffff\n        /* \"#utility.yul\":14018:14024   */\n      dup2\n        /* \"#utility.yul\":14015:14045   */\n      gt\n        /* \"#utility.yul\":14012:14129   */\n      iszero\n      tag_440\n      jumpi\n        /* \"#utility.yul\":14048:14127   */\n      tag_441\n      tag_240\n      jump\t// in\n    tag_441:\n        /* \"#utility.yul\":14012:14129   */\n    tag_440:\n        /* \"#utility.yul\":14153:14216   */\n      tag_442\n        /* \"#utility.yul\":14208:14215   */\n      dup9\n        /* \"#utility.yul\":14199:14205   */\n      dup3\n        /* \"#utility.yul\":14188:14197   */\n      dup10\n        /* \"#utility.yul\":14184:14206   */\n      add\n        /* \"#utility.yul\":14153:14216   */\n      tag_272\n      jump\t// in\n    tag_442:\n        /* \"#utility.yul\":14143:14216   */\n      swap5\n      pop\n        /* \"#utility.yul\":13938:14226   */\n      pop\n        /* \"#utility.yul\":14293:14295   */\n      0x40\n        /* \"#utility.yul\":14282:14291   */\n      dup7\n        /* \"#utility.yul\":14278:14296   */\n      add\n        /* \"#utility.yul\":14265:14297   */\n      calldataload\n        /* \"#utility.yul\":14324:14342   */\n      0xffffffffffffffff\n        /* \"#utility.yul\":14316:14322   */\n      dup2\n        /* \"#utility.yul\":14313:14343   */\n      gt\n        /* \"#utility.yul\":14310:14427   */\n      iszero\n      tag_443\n      jumpi\n        /* \"#utility.yul\":14346:14425   */\n      tag_444\n      tag_240\n      jump\t// in\n    tag_444:\n        /* \"#utility.yul\":14310:14427   */\n    tag_443:\n        /* \"#utility.yul\":14451:14514   */\n      tag_445\n        /* \"#utility.yul\":14506:14513   */\n      dup9\n        /* \"#utility.yul\":14497:14503   */\n      dup3\n        /* \"#utility.yul\":14486:14495   */\n      dup10\n        /* \"#utility.yul\":14482:14504   */\n      add\n        /* \"#utility.yul\":14451:14514   */\n      tag_272\n      jump\t// in\n    tag_445:\n        /* \"#utility.yul\":14441:14514   */\n      swap4\n      pop\n        /* \"#utility.yul\":14236:14524   */\n      pop\n        /* \"#utility.yul\":14563:14565   */\n      0x60\n        /* \"#utility.yul\":14589:14642   */\n      tag_446\n        /* \"#utility.yul\":14634:14641   */\n      dup9\n        /* \"#utility.yul\":14625:14631   */\n      dup3\n        /* \"#utility.yul\":14614:14623   */\n      dup10\n        /* \"#utility.yul\":14610:14632   */\n      add\n        /* \"#utility.yul\":14589:14642   */\n      tag_242\n      jump\t// in\n    tag_446:\n        /* \"#utility.yul\":14579:14642   */\n      swap3\n      pop\n        /* \"#utility.yul\":14534:14652   */\n      pop\n        /* \"#utility.yul\":14691:14694   */\n      0x80\n        /* \"#utility.yul\":14718:14771   */\n      tag_447\n        /* \"#utility.yul\":14763:14770   */\n      dup9\n        /* \"#utility.yul\":14754:14760   */\n      dup3\n        /* \"#utility.yul\":14743:14752   */\n      dup10\n        /* \"#utility.yul\":14739:14761   */\n      add\n        /* \"#utility.yul\":14718:14771   */\n      tag_242\n      jump\t// in\n    tag_447:\n        /* \"#utility.yul\":14708:14771   */\n      swap2\n      pop\n        /* \"#utility.yul\":14662:14781   */\n      pop\n        /* \"#utility.yul\":13337:14788   */\n      swap3\n      swap6\n      pop\n      swap3\n      swap6\n      swap1\n      swap4\n      pop\n      jump\t// out\n        /* \"#utility.yul\":14794:14916   */\n    tag_273:\n        /* \"#utility.yul\":14867:14891   */\n      tag_449\n        /* \"#utility.yul\":14885:14890   */\n      dup2\n        /* \"#utility.yul\":14867:14891   */\n      tag_244\n      jump\t// in\n    tag_449:\n        /* \"#utility.yul\":14860:14865   */\n      dup2\n        /* \"#utility.yul\":14857:14892   */\n      eq\n        /* \"#utility.yul\":14847:14910   */\n      tag_450\n      jumpi\n        /* \"#utility.yul\":14906:14907   */\n      0x00\n        /* \"#utility.yul\":14903:14904   */\n      dup1\n        /* \"#utility.yul\":14896:14908   */\n      revert\n        /* \"#utility.yul\":14847:14910   */\n    tag_450:\n        /* \"#utility.yul\":14794:14916   */\n      pop\n      jump\t// out\n        /* \"#utility.yul\":14922:15061   */\n    tag_274:\n        /* \"#utility.yul\":14968:14973   */\n      0x00\n        /* \"#utility.yul\":15006:15012   */\n      dup2\n        /* \"#utility.yul\":14993:15013   */\n      calldataload\n        /* \"#utility.yul\":14984:15013   */\n      swap1\n      pop\n        /* \"#utility.yul\":15022:15055   */\n      tag_452\n        /* \"#utility.yul\":15049:15054   */\n      dup2\n        /* \"#utility.yul\":15022:15055   */\n      tag_273\n      jump\t// in\n    tag_452:\n        /* \"#utility.yul\":14922:15061   */\n      swap3\n      swap2\n      pop\n      pop\n      jump\t// out\n        /* \"#utility.yul\":15067:15396   */\n    tag_55:\n        /* \"#utility.yul\":15126:15132   */\n      0x00\n        /* \"#utility.yul\":15175:15177   */\n      0x20\n        /* \"#utility.yul\":15163:15172   */\n      dup3\n        /* \"#utility.yul\":15154:15161   */\n      dup5\n        /* \"#utility.yul\":15150:15173   */\n      sub\n        /* \"#utility.yul\":15146:15178   */\n      slt\n        /* \"#utility.yul\":15143:15262   */\n      iszero\n      tag_454\n      jumpi\n        /* \"#utility.yul\":15181:15260   */\n      tag_455\n      tag_239\n      jump\t// in\n    tag_455:\n        /* \"#utility.yul\":15143:15262   */\n    tag_454:\n        /* \"#utility.yul\":15301:15302   */\n      0x00\n        /* \"#utility.yul\":15326:15379   */\n      tag_456\n        /* \"#utility.yul\":15371:15378   */\n      dup5\n        /* \"#utility.yul\":15362:15368   */\n      dup3\n        /* \"#utility.yul\":15351:15360   */\n      dup6\n        /* \"#utility.yul\":15347:15369   */\n      add\n        /* \"#utility.yul\":15326:15379   */\n      tag_274\n      jump\t// in\n    tag_456:\n        /* \"#utility.yul\":15316:15379   */\n      swap2\n      pop\n        /* \"#utility.yul\":15272:15389   */\n      pop\n        /* \"#utility.yul\":15067:15396   */\n      swap3\n      swap2\n      pop\n      pop\n      jump\t// out\n        /* \"#utility.yul\":15402:15582   */\n    tag_275:\n        /* \"#utility.yul\":15450:15527   */\n      0x4e487b7100000000000000000000000000000000000000000000000000000000\n        /* \"#utility.yul\":15447:15448   */\n      0x00\n        /* \"#utility.yul\":15440:15528   */\n      mstore\n        /* \"#utility.yul\":15547:15551   */\n      0x22\n        /* \"#utility.yul\":15544:15545   */\n      0x04\n        /* \"#utility.yul\":15537:15552   */\n      mstore\n        /* \"#utility.yul\":15571:15575   */\n      0x24\n        /* \"#utility.yul\":15568:15569   */\n      0x00\n        /* \"#utility.yul\":15561:15576   */\n      revert\n        /* \"#utility.yul\":15588:15908   */\n    tag_69:\n        /* \"#utility.yul\":15632:15638   */\n      0x00\n        /* \"#utility.yul\":15669:15670   */\n      0x02\n        /* \"#utility.yul\":15663:15667   */\n      dup3\n        /* \"#utility.yul\":15659:15671   */\n      div\n        /* \"#utility.yul\":15649:15671   */\n      swap1\n      pop\n        /* \"#utility.yul\":15716:15717   */\n      0x01\n        /* \"#utility.yul\":15710:15714   */\n      dup3\n        /* \"#utility.yul\":15706:15718   */\n      and\n        /* \"#utility.yul\":15737:15755   */\n      dup1\n        /* \"#utility.yul\":15727:15808   */\n      tag_459\n      jumpi\n        /* \"#utility.yul\":15793:15797   */\n      0x7f\n        /* \"#utility.yul\":15785:15791   */\n      dup3\n        /* \"#utility.yul\":15781:15798   */\n      and\n        /* \"#utility.yul\":15771:15798   */\n      swap2\n      pop\n        /* \"#utility.yul\":15727:15808   */\n    tag_459:\n        /* \"#utility.yul\":15855:15857   */\n      0x20\n        /* \"#utility.yul\":15847:15853   */\n      dup3\n        /* \"#utility.yul\":15844:15858   */\n      lt\n        /* \"#utility.yul\":15824:15842   */\n      dup2\n        /* \"#utility.yul\":15821:15859   */\n      sub\n        /* \"#utility.yul\":15818:15902   */\n      tag_460\n      jumpi\n        /* \"#utility.yul\":15874:15892   */\n      tag_461\n      tag_275\n      jump\t// in\n    tag_461:\n        /* \"#utility.yul\":15818:15902   */\n    tag_460:\n        /* \"#utility.yul\":15639:15908   */\n      pop\n        /* \"#utility.yul\":15588:15908   */\n      swap2\n      swap1\n      pop\n      jump\t// out\n        /* \"#utility.yul\":15914:16094   */\n    tag_92:\n        /* \"#utility.yul\":15962:16039   */\n      0x4e487b7100000000000000000000000000000000000000000000000000000000\n        /* \"#utility.yul\":15959:15960   */\n      0x00\n        /* \"#utility.yul\":15952:16040   */\n      mstore\n        /* \"#utility.yul\":16059:16063   */\n      0x32\n        /* \"#utility.yul\":16056:16057   */\n      0x04\n        /* \"#utility.yul\":16049:16064   */\n      mstore\n        /* \"#utility.yul\":16083:16087   */\n      0x24\n        /* \"#utility.yul\":16080:16081   */\n      0x00\n        /* \"#utility.yul\":16073:16088   */\n      revert\n        /* \"#utility.yul\":16100:16314   */\n    tag_276:\n        /* \"#utility.yul\":16240:16306   */\n      0x656e64657265c3a76f206e61206c69737461206e656772610000000000000000\n        /* \"#utility.yul\":16236:16237   */\n      0x00\n        /* \"#utility.yul\":16228:16234   */\n      dup3\n        /* \"#utility.yul\":16224:16238   */\n      add\n        /* \"#utility.yul\":16217:16307   */\n      mstore\n        /* \"#utility.yul\":16100:16314   */\n      pop\n      jump\t// out\n        /* \"#utility.yul\":16320:16686   */\n    tag_277:\n        /* \"#utility.yul\":16462:16465   */\n      0x00\n        /* \"#utility.yul\":16483:16550   */\n      tag_465\n        /* \"#utility.yul\":16547:16549   */\n      0x18\n        /* \"#utility.yul\":16542:16545   */\n      dup4\n        /* \"#utility.yul\":16483:16550   */\n      tag_247\n      jump\t// in\n    tag_465:\n        /* \"#utility.yul\":16476:16550   */\n      swap2\n      pop\n        /* \"#utility.yul\":16559:16652   */\n      tag_466\n        /* \"#utility.yul\":16648:16651   */\n      dup3\n        /* \"#utility.yul\":16559:16652   */\n      tag_276\n      jump\t// in\n    tag_466:\n        /* \"#utility.yul\":16677:16679   */\n      0x20\n        /* \"#utility.yul\":16672:16675   */\n      dup3\n        /* \"#utility.yul\":16668:16680   */\n      add\n        /* \"#utility.yul\":16661:16680   */\n      swap1\n      pop\n        /* \"#utility.yul\":16320:16686   */\n      swap2\n      swap1\n      pop\n      jump\t// out\n        /* \"#utility.yul\":16692:17111   */\n    tag_96:\n        /* \"#utility.yul\":16858:16862   */\n      0x00\n        /* \"#utility.yul\":16896:16898   */\n      0x20\n        /* \"#utility.yul\":16885:16894   */\n      dup3\n        /* \"#utility.yul\":16881:16899   */\n      add\n        /* \"#utility.yul\":16873:16899   */\n      swap1\n      pop\n        /* \"#utility.yul\":16945:16954   */\n      dup2\n        /* \"#utility.yul\":16939:16943   */\n      dup2\n        /* \"#utility.yul\":16935:16955   */\n      sub\n        /* \"#utility.yul\":16931:16932   */\n      0x00\n        /* \"#utility.yul\":16920:16929   */\n      dup4\n        /* \"#utility.yul\":16916:16933   */\n      add\n        /* \"#utility.yul\":16909:16956   */\n      mstore\n        /* \"#utility.yul\":16973:17104   */\n      tag_468\n        /* \"#utility.yul\":17099:17103   */\n      dup2\n        /* \"#utility.yul\":16973:17104   */\n      tag_277\n      jump\t// in\n    tag_468:\n        /* \"#utility.yul\":16965:17104   */\n      swap1\n      pop\n        /* \"#utility.yul\":16692:17111   */\n      swap2\n      swap1\n      pop\n      jump\t// out\n        /* \"#utility.yul\":17117:17297   */\n    tag_278:\n        /* \"#utility.yul\":17165:17242   */\n      0x4e487b7100000000000000000000000000000000000000000000000000000000\n        /* \"#utility.yul\":17162:17163   */\n      0x00\n        /* \"#utility.yul\":17155:17243   */\n      mstore\n        /* \"#utility.yul\":17262:17266   */\n      0x11\n        /* \"#utility.yul\":17259:17260   */\n      0x04\n        /* \"#utility.yul\":17252:17267   */\n      mstore\n        /* \"#utility.yul\":17286:17290   */\n      0x24\n        /* \"#utility.yul\":17283:17284   */\n      0x00\n        /* \"#utility.yul\":17276:17291   */\n      revert\n        /* \"#utility.yul\":17303:17536   */\n    tag_127:\n        /* \"#utility.yul\":17342:17345   */\n      0x00\n        /* \"#utility.yul\":17365:17389   */\n      tag_471\n        /* \"#utility.yul\":17383:17388   */\n      dup3\n        /* \"#utility.yul\":17365:17389   */\n      tag_236\n      jump\t// in\n    tag_471:\n        /* \"#utility.yul\":17356:17389   */\n      swap2\n      pop\n        /* \"#utility.yul\":17411:17477   */\n      0xffffffffffffffffffffffffffffffffffffffffffffffffffffffffffffffff\n        /* \"#utility.yul\":17404:17409   */\n      dup3\n        /* \"#utility.yul\":17401:17478   */\n      sub\n        /* \"#utility.yul\":17398:17501   */\n      tag_472\n      jumpi\n        /* \"#utility.yul\":17481:17499   */\n      tag_473\n      tag_278\n      jump\t// in\n    tag_473:\n        /* \"#utility.yul\":17398:17501   */\n    tag_472:\n        /* \"#utility.yul\":17528:17529   */\n      0x01\n        /* \"#utility.yul\":17521:17526   */\n      dup3\n        /* \"#utility.yul\":17517:17530   */\n      add\n        /* \"#utility.yul\":17510:17530   */\n      swap1\n      pop\n        /* \"#utility.yul\":17303:17536   */\n      swap2\n      swap1\n      pop\n      jump\t// out\n        /* \"#utility.yul\":17542:17776   */\n    tag_279:\n        /* \"#utility.yul\":17682:17716   */\n      0x736f6d656e7465206f2061646d696e6973747261646f7220706f646520617072\n        /* \"#utility.yul\":17678:17679   */\n      0x00\n        /* \"#utility.yul\":17670:17676   */\n      dup3\n        /* \"#utility.yul\":17666:17680   */\n      add\n        /* \"#utility.yul\":17659:17717   */\n      mstore\n        /* \"#utility.yul\":17751:17768   */\n      0x6f766172206f20636f6e747261746f0000000000000000000000000000000000\n        /* \"#utility.yul\":17746:17748   */\n      0x20\n        /* \"#utility.yul\":17738:17744   */\n      dup3\n        /* \"#utility.yul\":17734:17749   */\n      add\n        /* \"#utility.yul\":17727:17769   */\n      mstore\n        /* \"#utility.yul\":17542:17776   */\n      pop\n      jump\t// out\n        /* \"#utility.yul\":17782:18148   */\n    tag_280:\n        /* \"#utility.yul\":17924:17927   */\n      0x00\n        /* \"#utility.yul\":17945:18012   */\n      tag_476\n        /* \"#utility.yul\":18009:18011   */\n      0x2f\n        /* \"#utility.yul\":18004:18007   */\n      dup4\n        /* \"#utility.yul\":17945:18012   */\n      tag_247\n      jump\t// in\n    tag_476:\n        /* \"#utility.yul\":17938:18012   */\n      swap2\n      pop\n        /* \"#utility.yul\":18021:18114   */\n      tag_477\n        /* \"#utility.yul\":18110:18113   */\n      dup3\n        /* \"#utility.yul\":18021:18114   */\n      tag_279\n      jump\t// in\n    tag_477:\n        /* \"#utility.yul\":18139:18141   */\n      0x40\n        /* \"#utility.yul\":18134:18137   */\n      dup3\n        /* \"#utility.yul\":18130:18142   */\n      add\n        /* \"#utility.yul\":18123:18142   */\n      swap1\n      pop\n        /* \"#utility.yul\":17782:18148   */\n      swap2\n      swap1\n      pop\n      jump\t// out\n        /* \"#utility.yul\":18154:18573   */\n    tag_133:\n        /* \"#utility.yul\":18320:18324   */\n      0x00\n        /* \"#utility.yul\":18358:18360   */\n      0x20\n        /* \"#utility.yul\":18347:18356   */\n      dup3\n        /* \"#utility.yul\":18343:18361   */\n      add\n        /* \"#utility.yul\":18335:18361   */\n      swap1\n      pop\n        /* \"#utility.yul\":18407:18416   */\n      dup2\n        /* \"#utility.yul\":18401:18405   */\n      dup2\n        /* \"#utility.yul\":18397:18417   */\n      sub\n        /* \"#utility.yul\":18393:18394   */\n      0x00\n        /* \"#utility.yul\":18382:18391   */\n      dup4\n        /* \"#utility.yul\":18378:18395   */\n      add\n        /* \"#utility.yul\":18371:18418   */\n      mstore\n        /* \"#utility.yul\":18435:18566   */\n      tag_479\n        /* \"#utility.yul\":18561:18565   */\n      dup2\n        /* \"#utility.yul\":18435:18566   */\n      tag_280\n      jump\t// in\n    tag_479:\n        /* \"#utility.yul\":18427:18566   */\n      swap1\n      pop\n        /* \"#utility.yul\":18154:18573   */\n      swap2\n      swap1\n      pop\n      jump\t// out\n        /* \"#utility.yul\":18579:18793   */\n    tag_281:\n        /* \"#utility.yul\":18719:18785   */\n      0x696e666f726d61c3a7c3b5657320696e76c3a16c696461730000000000000000\n        /* \"#utility.yul\":18715:18716   */\n      0x00\n        /* \"#utility.yul\":18707:18713   */\n      dup3\n        /* \"#utility.yul\":18703:18717   */\n      add\n        /* \"#utility.yul\":18696:18786   */\n      mstore\n        /* \"#utility.yul\":18579:18793   */\n      pop\n      jump\t// out\n        /* \"#utility.yul\":18799:19165   */\n    tag_282:\n        /* \"#utility.yul\":18941:18944   */\n      0x00\n        /* \"#utility.yul\":18962:19029   */\n      tag_482\n        /* \"#utility.yul\":19026:19028   */\n      0x18\n        /* \"#utility.yul\":19021:19024   */\n      dup4\n        /* \"#utility.yul\":18962:19029   */\n      tag_247\n      jump\t// in\n    tag_482:\n        /* \"#utility.yul\":18955:19029   */\n      swap2\n      pop\n        /* \"#utility.yul\":19038:19131   */\n      tag_483\n        /* \"#utility.yul\":19127:19130   */\n      dup3\n        /* \"#utility.yul\":19038:19131   */\n      tag_281\n      jump\t// in\n    tag_483:\n        /* \"#utility.yul\":19156:19158   */\n      0x20\n        /* \"#utility.yul\":19151:19154   */\n      dup3\n        /* \"#utility.yul\":19147:19159   */\n      add\n        /* \"#utility.yul\":19140:19159   */\n      swap1\n      pop\n        /* \"#utility.yul\":18799:19165   */\n      swap2\n      swap1\n      pop\n      jump\t// out\n        /* \"#utility.yul\":19171:19590   */\n    tag_138:\n        /* \"#utility.yul\":19337:19341   */\n      0x00\n        /* \"#utility.yul\":19375:19377   */\n      0x20\n        /* \"#utility.yul\":19364:19373   */\n      dup3\n        /* \"#utility.yul\":19360:19378   */\n      add\n        /* \"#utility.yul\":19352:19378   */\n      swap1\n      pop\n        /* \"#utility.yul\":19424:19433   */\n      dup2\n        /* \"#utility.yul\":19418:19422   */\n      dup2\n        /* \"#utility.yul\":19414:19434   */\n      sub\n        /* \"#utility.yul\":19410:19411   */\n      0x00\n        /* \"#utility.yul\":19399:19408   */\n      dup4\n        /* \"#utility.yul\":19395:19412   */\n      add\n        /* \"#utility.yul\":19388:19435   */\n      mstore\n        /* \"#utility.yul\":19452:19583   */\n      tag_485\n        /* \"#utility.yul\":19578:19582   */\n      dup2\n        /* \"#utility.yul\":19452:19583   */\n      tag_282\n      jump\t// in\n    tag_485:\n        /* \"#utility.yul\":19444:19583   */\n      swap1\n      pop\n        /* \"#utility.yul\":19171:19590   */\n      swap2\n      swap1\n      pop\n      jump\t// out\n        /* \"#utility.yul\":19596:19737   */\n    tag_283:\n        /* \"#utility.yul\":19645:19649   */\n      0x00\n        /* \"#utility.yul\":19668:19671   */\n      dup2\n        /* \"#utility.yul\":19660:19671   */\n      swap1\n      pop\n        /* \"#utility.yul\":19691:19694   */\n      dup2\n        /* \"#utility.yul\":19688:19689   */\n      0x00\n        /* \"#utility.yul\":19681:19695   */\n      mstore\n        /* \"#utility.yul\":19725:19729   */\n      0x20\n        /* \"#utility.yul\":19722:19723   */\n      0x00\n        /* \"#utility.yul\":19712:19730   */\n      keccak256\n        /* \"#utility.yul\":19704:19730   */\n      swap1\n      pop\n        /* \"#utility.yul\":19596:19737   */\n      swap2\n      swap1\n      pop\n      jump\t// out\n        /* \"#utility.yul\":19743:19836   */\n    tag_284:\n        /* \"#utility.yul\":19780:19786   */\n      0x00\n        /* \"#utility.yul\":19827:19829   */\n      0x20\n        /* \"#utility.yul\":19822:19824   */\n      0x1f\n        /* \"#utility.yul\":19815:19820   */\n      dup4\n        /* \"#utility.yul\":19811:19825   */\n      add\n        /* \"#utility.yul\":19807:19830   */\n      div\n        /* \"#utility.yul\":19797:19830   */\n      swap1\n      pop\n        /* \"#utility.yul\":19743:19836   */\n      swap2\n      swap1\n      pop\n      jump\t// out\n        /* \"#utility.yul\":19842:19949   */\n    tag_285:\n        /* \"#utility.yul\":19886:19894   */\n      0x00\n        /* \"#utility.yul\":19936:19941   */\n      dup3\n        /* \"#utility.yul\":19930:19934   */\n      dup3\n        /* \"#utility.yul\":19926:19942   */\n      shl\n        /* \"#utility.yul\":19905:19942   */\n      swap1\n      pop\n        /* \"#utility.yul\":19842:19949   */\n      swap3\n      swap2\n      pop\n      pop\n      jump\t// out\n        /* \"#utility.yul\":19955:20348   */\n    tag_286:\n        /* \"#utility.yul\":20024:20030   */\n      0x00\n        /* \"#utility.yul\":20074:20075   */\n      0x08\n        /* \"#utility.yul\":20062:20072   */\n      dup4\n        /* \"#utility.yul\":20058:20076   */\n      mul\n        /* \"#utility.yul\":20097:20194   */\n      tag_490\n        /* \"#utility.yul\":20127:20193   */\n      0xffffffffffffffffffffffffffffffffffffffffffffffffffffffffffffffff\n        /* \"#utility.yul\":20116:20125   */\n      dup3\n        /* \"#utility.yul\":20097:20194   */\n      tag_285\n      jump\t// in\n    tag_490:\n        /* \"#utility.yul\":20215:20254   */\n      tag_491\n        /* \"#utility.yul\":20245:20253   */\n      dup7\n        /* \"#utility.yul\":20234:20243   */\n      dup4\n        /* \"#utility.yul\":20215:20254   */\n      tag_285\n      jump\t// in\n    tag_491:\n        /* \"#utility.yul\":20203:20254   */\n      swap6\n      pop\n        /* \"#utility.yul\":20287:20291   */\n      dup1\n        /* \"#utility.yul\":20283:20292   */\n      not\n        /* \"#utility.yul\":20276:20281   */\n      dup5\n        /* \"#utility.yul\":20272:20293   */\n      and\n        /* \"#utility.yul\":20263:20293   */\n      swap4\n      pop\n        /* \"#utility.yul\":20336:20340   */\n      dup1\n        /* \"#utility.yul\":20326:20334   */\n      dup7\n        /* \"#utility.yul\":20322:20341   */\n      and\n        /* \"#utility.yul\":20315:20320   */\n      dup5\n        /* \"#utility.yul\":20312:20342   */\n      or\n        /* \"#utility.yul\":20302:20342   */\n      swap3\n      pop\n        /* \"#utility.yul\":20031:20348   */\n      pop\n      pop\n        /* \"#utility.yul\":19955:20348   */\n      swap4\n      swap3\n      pop\n      pop\n      pop\n      jump\t// out\n        /* \"#utility.yul\":20354:20414   */\n    tag_287:\n        /* \"#utility.yul\":20382:20385   */\n      0x00\n        /* \"#utility.yul\":20403:20408   */\n      dup2\n        /* \"#utility.yul\":20396:20408   */\n      swap1\n      pop\n        /* \"#utility.yul\":20354:20414   */\n      swap2\n      swap1\n      pop\n      jump\t// out\n        /* \"#utility.yul\":20420:20562   */\n    tag_288:\n        /* \"#utility.yul\":20470:20479   */\n      0x00\n        /* \"#utility.yul\":20503:20556   */\n      tag_494\n        /* \"#utility.yul\":20521:20555   */\n      tag_495\n        /* \"#utility.yul\":20530:20554   */\n      tag_496\n        /* \"#utility.yul\":20548:20553   */\n      dup5\n        /* \"#utility.yul\":20530:20554   */\n      tag_236\n      jump\t// in\n    tag_496:\n        /* \"#utility.yul\":20521:20555   */\n      tag_287\n      jump\t// in\n    tag_495:\n        /* \"#utility.yul\":20503:20556   */\n      tag_236\n      jump\t// in\n    tag_494:\n        /* \"#utility.yul\":20490:20556   */\n      swap1\n      pop\n        /* \"#utility.yul\":20420:20562   */\n      swap2\n      swap1\n      pop\n      jump\t// out\n        /* \"#utility.yul\":20568:20643   */\n    tag_289:\n        /* \"#utility.yul\":20611:20614   */\n      0x00\n        /* \"#utility.yul\":20632:20637   */\n      dup2\n        /* \"#utility.yul\":20625:20637   */\n      swap1\n      pop\n        /* \"#utility.yul\":20568:20643   */\n      swap2\n      swap1\n      pop\n      jump\t// out\n        /* \"#utility.yul\":20649:20918   */\n    tag_290:\n        /* \"#utility.yul\":20759:20798   */\n      tag_499\n        /* \"#utility.yul\":20790:20797   */\n      dup4\n        /* \"#utility.yul\":20759:20798   */\n      tag_288\n      jump\t// in\n    tag_499:\n        /* \"#utility.yul\":20820:20911   */\n      tag_500\n        /* \"#utility.yul\":20869:20910   */\n      tag_501\n        /* \"#utility.yul\":20893:20909   */\n      dup3\n        /* \"#utility.yul\":20869:20910   */\n      tag_289\n      jump\t// in\n    tag_501:\n        /* \"#utility.yul\":20861:20867   */\n      dup5\n        /* \"#utility.yul\":20854:20858   */\n      dup5\n        /* \"#utility.yul\":20848:20859   */\n      sload\n        /* \"#utility.yul\":20820:20911   */\n      tag_286\n      jump\t// in\n    tag_500:\n        /* \"#utility.yul\":20814:20818   */\n      dup3\n        /* \"#utility.yul\":20807:20912   */\n      sstore\n        /* \"#utility.yul\":20725:20918   */\n      pop\n        /* \"#utility.yul\":20649:20918   */\n      pop\n      pop\n      pop\n      jump\t// out\n        /* \"#utility.yul\":20924:20997   */\n    tag_291:\n        /* \"#utility.yul\":20969:20972   */\n      0x00\n        /* \"#utility.yul\":20924:20997   */\n      swap1\n      jump\t// out\n        /* \"#utility.yul\":21003:21192   */\n    tag_292:\n        /* \"#utility.yul\":21080:21112   */\n      tag_504\n      tag_291\n      jump\t// in\n    tag_504:\n        /* \"#utility.yul\":21121:21186   */\n      tag_505\n        /* \"#utility.yul\":21179:21185   */\n      dup2\n        /* \"#utility.yul\":21171:21177   */\n      dup5\n        /* \"#utility.yul\":21165:21169   */\n      dup5\n        /* \"#utility.yul\":21121:21186   */\n      tag_290\n      jump\t// in\n    tag_505:\n        /* \"#utility.yul\":21056:21192   */\n      pop\n        /* \"#utility.yul\":21003:21192   */\n      pop\n      pop\n      jump\t// out\n        /* \"#utility.yul\":21198:21384   */\n    tag_293:\n        /* \"#utility.yul\":21258:21378   */\n    tag_507:\n        /* \"#utility.yul\":21275:21278   */\n      dup2\n        /* \"#utility.yul\":21268:21273   */\n      dup2\n        /* \"#utility.yul\":21265:21279   */\n      lt\n        /* \"#utility.yul\":21258:21378   */\n      iszero\n      tag_509\n      jumpi\n        /* \"#utility.yul\":21329:21368   */\n      tag_510\n        /* \"#utility.yul\":21366:21367   */\n      0x00\n        /* \"#utility.yul\":21359:21364   */\n      dup3\n        /* \"#utility.yul\":21329:21368   */\n      tag_292\n      jump\t// in\n    tag_510:\n        /* \"#utility.yul\":21302:21303   */\n      0x01\n        /* \"#utility.yul\":21295:21300   */\n      dup2\n        /* \"#utility.yul\":21291:21304   */\n      add\n        /* \"#utility.yul\":21282:21304   */\n      swap1\n      pop\n        /* \"#utility.yul\":21258:21378   */\n      jump(tag_507)\n    tag_509:\n        /* \"#utility.yul\":21198:21384   */\n      pop\n      pop\n      jump\t// out\n        /* \"#utility.yul\":21390:21933   */\n    tag_294:\n        /* \"#utility.yul\":21491:21493   */\n      0x1f\n        /* \"#utility.yul\":21486:21489   */\n      dup3\n        /* \"#utility.yul\":21483:21494   */\n      gt\n        /* \"#utility.yul\":21480:21926   */\n      iszero\n      tag_512\n      jumpi\n        /* \"#utility.yul\":21525:21563   */\n      tag_513\n        /* \"#utility.yul\":21557:21562   */\n      dup2\n        /* \"#utility.yul\":21525:21563   */\n      tag_283\n      jump\t// in\n    tag_513:\n        /* \"#utility.yul\":21609:21638   */\n      tag_514\n        /* \"#utility.yul\":21627:21637   */\n      dup5\n        /* \"#utility.yul\":21609:21638   */\n      tag_284\n      jump\t// in\n    tag_514:\n        /* \"#utility.yul\":21599:21607   */\n      dup2\n        /* \"#utility.yul\":21595:21639   */\n      add\n        /* \"#utility.yul\":21792:21794   */\n      0x20\n        /* \"#utility.yul\":21780:21790   */\n      dup6\n        /* \"#utility.yul\":21777:21795   */\n      lt\n        /* \"#utility.yul\":21774:21823   */\n      iszero\n      tag_515\n      jumpi\n        /* \"#utility.yul\":21813:21821   */\n      dup2\n        /* \"#utility.yul\":21798:21821   */\n      swap1\n      pop\n        /* \"#utility.yul\":21774:21823   */\n    tag_515:\n        /* \"#utility.yul\":21836:21916   */\n      tag_516\n        /* \"#utility.yul\":21892:21914   */\n      tag_517\n        /* \"#utility.yul\":21910:21913   */\n      dup6\n        /* \"#utility.yul\":21892:21914   */\n      tag_284\n      jump\t// in\n    tag_517:\n        /* \"#utility.yul\":21882:21890   */\n      dup4\n        /* \"#utility.yul\":21878:21915   */\n      add\n        /* \"#utility.yul\":21865:21876   */\n      dup3\n        /* \"#utility.yul\":21836:21916   */\n      tag_293\n      jump\t// in\n    tag_516:\n        /* \"#utility.yul\":21495:21926   */\n      pop\n      pop\n        /* \"#utility.yul\":21480:21926   */\n    tag_512:\n        /* \"#utility.yul\":21390:21933   */\n      pop\n      pop\n      pop\n      jump\t// out\n        /* \"#utility.yul\":21939:22056   */\n    tag_295:\n        /* \"#utility.yul\":21993:22001   */\n      0x00\n        /* \"#utility.yul\":22043:22048   */\n      dup3\n        /* \"#utility.yul\":22037:22041   */\n      dup3\n        /* \"#utility.yul\":22033:22049   */\n      shr\n        /* \"#utility.yul\":22012:22049   */\n      swap1\n      pop\n        /* \"#utility.yul\":21939:22056   */\n      swap3\n      swap2\n      pop\n      pop\n      jump\t// out\n        /* \"#utility.yul\":22062:22231   */\n    tag_296:\n        /* \"#utility.yul\":22106:22112   */\n      0x00\n        /* \"#utility.yul\":22139:22190   */\n      tag_520\n        /* \"#utility.yul\":22187:22188   */\n      0x00\n        /* \"#utility.yul\":22183:22189   */\n      not\n        /* \"#utility.yul\":22175:22180   */\n      dup5\n        /* \"#utility.yul\":22172:22173   */\n      0x08\n        /* \"#utility.yul\":22168:22181   */\n      mul\n        /* \"#utility.yul\":22139:22190   */\n      tag_295\n      jump\t// in\n    tag_520:\n        /* \"#utility.yul\":22135:22191   */\n      not\n        /* \"#utility.yul\":22220:22224   */\n      dup1\n        /* \"#utility.yul\":22214:22218   */\n      dup4\n        /* \"#utility.yul\":22210:22225   */\n      and\n        /* \"#utility.yul\":22200:22225   */\n      swap2\n      pop\n        /* \"#utility.yul\":22113:22231   */\n      pop\n        /* \"#utility.yul\":22062:22231   */\n      swap3\n      swap2\n      pop\n      pop\n      jump\t// out\n        /* \"#utility.yul\":22236:22531   */\n    tag_297:\n        /* \"#utility.yul\":22312:22316   */\n      0x00\n        /* \"#utility.yul\":22458:22487   */\n      tag_522\n        /* \"#utility.yul\":22483:22486   */\n      dup4\n        /* \"#utility.yul\":22477:22481   */\n      dup4\n        /* \"#utility.yul\":22458:22487   */\n      tag_296\n      jump\t// in\n    tag_522:\n        /* \"#utility.yul\":22450:22487   */\n      swap2\n      pop\n        /* \"#utility.yul\":22520:22523   */\n      dup3\n        /* \"#utility.yul\":22517:22518   */\n      0x02\n        /* \"#utility.yul\":22513:22524   */\n      mul\n        /* \"#utility.yul\":22507:22511   */\n      dup3\n        /* \"#utility.yul\":22504:22525   */\n      or\n        /* \"#utility.yul\":22496:22525   */\n      swap1\n      pop\n        /* \"#utility.yul\":22236:22531   */\n      swap3\n      swap2\n      pop\n      pop\n      jump\t// out\n        /* \"#utility.yul\":22536:23931   */\n    tag_149:\n        /* \"#utility.yul\":22653:22690   */\n      tag_524\n        /* \"#utility.yul\":22686:22689   */\n      dup3\n        /* \"#utility.yul\":22653:22690   */\n      tag_246\n      jump\t// in\n    tag_524:\n        /* \"#utility.yul\":22755:22773   */\n      0xffffffffffffffff\n        /* \"#utility.yul\":22747:22753   */\n      dup2\n        /* \"#utility.yul\":22744:22774   */\n      gt\n        /* \"#utility.yul\":22741:22797   */\n      iszero\n      tag_525\n      jumpi\n        /* \"#utility.yul\":22777:22795   */\n      tag_526\n      tag_100\n      jump\t// in\n    tag_526:\n        /* \"#utility.yul\":22741:22797   */\n    tag_525:\n        /* \"#utility.yul\":22821:22859   */\n      tag_527\n        /* \"#utility.yul\":22853:22857   */\n      dup3\n        /* \"#utility.yul\":22847:22858   */\n      sload\n        /* \"#utility.yul\":22821:22859   */\n      tag_69\n      jump\t// in\n    tag_527:\n        /* \"#utility.yul\":22906:22973   */\n      tag_528\n        /* \"#utility.yul\":22966:22972   */\n      dup3\n        /* \"#utility.yul\":22958:22964   */\n      dup3\n        /* \"#utility.yul\":22952:22956   */\n      dup6\n        /* \"#utility.yul\":22906:22973   */\n      tag_294\n      jump\t// in\n    tag_528:\n        /* \"#utility.yul\":23000:23001   */\n      0x00\n        /* \"#utility.yul\":23024:23028   */\n      0x20\n        /* \"#utility.yul\":23011:23028   */\n      swap1\n      pop\n        /* \"#utility.yul\":23056:23058   */\n      0x1f\n        /* \"#utility.yul\":23048:23054   */\n      dup4\n        /* \"#utility.yul\":23045:23059   */\n      gt\n        /* \"#utility.yul\":23073:23074   */\n      0x01\n        /* \"#utility.yul\":23068:23686   */\n      dup2\n      eq\n      tag_530\n      jumpi\n        /* \"#utility.yul\":23730:23731   */\n      0x00\n        /* \"#utility.yul\":23747:23753   */\n      dup5\n        /* \"#utility.yul\":23744:23821   */\n      iszero\n      tag_531\n      jumpi\n        /* \"#utility.yul\":23796:23805   */\n      dup3\n        /* \"#utility.yul\":23791:23794   */\n      dup8\n        /* \"#utility.yul\":23787:23806   */\n      add\n        /* \"#utility.yul\":23781:23807   */\n      mload\n        /* \"#utility.yul\":23772:23807   */\n      swap1\n      pop\n        /* \"#utility.yul\":23744:23821   */\n    tag_531:\n        /* \"#utility.yul\":23847:23914   */\n      tag_532\n        /* \"#utility.yul\":23907:23913   */\n      dup6\n        /* \"#utility.yul\":23900:23905   */\n      dup3\n        /* \"#utility.yul\":23847:23914   */\n      tag_297\n      jump\t// in\n    tag_532:\n        /* \"#utility.yul\":23841:23845   */\n      dup7\n        /* \"#utility.yul\":23834:23915   */\n      sstore\n        /* \"#utility.yul\":23703:23925   */\n      pop\n        /* \"#utility.yul\":23038:23925   */\n      jump(tag_529)\n        /* \"#utility.yul\":23068:23686   */\n    tag_530:\n        /* \"#utility.yul\":23120:23124   */\n      0x1f\n        /* \"#utility.yul\":23116:23125   */\n      not\n        /* \"#utility.yul\":23108:23114   */\n      dup5\n        /* \"#utility.yul\":23104:23126   */\n      and\n        /* \"#utility.yul\":23154:23191   */\n      tag_533\n        /* \"#utility.yul\":23186:23190   */\n      dup7\n        /* \"#utility.yul\":23154:23191   */\n      tag_283\n      jump\t// in\n    tag_533:\n        /* \"#utility.yul\":23213:23214   */\n      0x00\n        /* \"#utility.yul\":23227:23435   */\n    tag_534:\n        /* \"#utility.yul\":23241:23248   */\n      dup3\n        /* \"#utility.yul\":23238:23239   */\n      dup2\n        /* \"#utility.yul\":23235:23249   */\n      lt\n        /* \"#utility.yul\":23227:23435   */\n      iszero\n      tag_536\n      jumpi\n        /* \"#utility.yul\":23320:23329   */\n      dup5\n        /* \"#utility.yul\":23315:23318   */\n      dup10\n        /* \"#utility.yul\":23311:23330   */\n      add\n        /* \"#utility.yul\":23305:23331   */\n      mload\n        /* \"#utility.yul\":23297:23303   */\n      dup3\n        /* \"#utility.yul\":23290:23332   */\n      sstore\n        /* \"#utility.yul\":23371:23372   */\n      0x01\n        /* \"#utility.yul\":23363:23369   */\n      dup3\n        /* \"#utility.yul\":23359:23373   */\n      add\n        /* \"#utility.yul\":23349:23373   */\n      swap2\n      pop\n        /* \"#utility.yul\":23418:23420   */\n      0x20\n        /* \"#utility.yul\":23407:23416   */\n      dup6\n        /* \"#utility.yul\":23403:23421   */\n      add\n        /* \"#utility.yul\":23390:23421   */\n      swap5\n      pop\n        /* \"#utility.yul\":23264:23268   */\n      0x20\n        /* \"#utility.yul\":23261:23262   */\n      dup2\n        /* \"#utility.yul\":23257:23269   */\n      add\n        /* \"#utility.yul\":23252:23269   */\n      swap1\n      pop\n        /* \"#utility.yul\":23227:23435   */\n      jump(tag_534)\n    tag_536:\n        /* \"#utility.yul\":23463:23469   */\n      dup7\n        /* \"#utility.yul\":23454:23461   */\n      dup4\n        /* \"#utility.yul\":23451:23470   */\n      lt\n        /* \"#utility.yul\":23448:23627   */\n      iszero\n      tag_537\n      jumpi\n        /* \"#utility.yul\":23521:23530   */\n      dup5\n        /* \"#utility.yul\":23516:23519   */\n      dup10\n        /* \"#utility.yul\":23512:23531   */\n      add\n        /* \"#utility.yul\":23506:23532   */\n      mload\n        /* \"#utility.yul\":23564:23612   */\n      tag_538\n        /* \"#utility.yul\":23606:23610   */\n      0x1f\n        /* \"#utility.yul\":23598:23604   */\n      dup10\n        /* \"#utility.yul\":23594:23611   */\n      and\n        /* \"#utility.yul\":23583:23592   */\n      dup3\n        /* \"#utility.yul\":23564:23612   */\n      tag_296\n      jump\t// in\n    tag_538:\n        /* \"#utility.yul\":23556:23562   */\n      dup4\n        /* \"#utility.yul\":23549:23613   */\n      sstore\n        /* \"#utility.yul\":23471:23627   */\n      pop\n        /* \"#utility.yul\":23448:23627   */\n    tag_537:\n        /* \"#utility.yul\":23673:23674   */\n      0x01\n        /* \"#utility.yul\":23669:23670   */\n      0x02\n        /* \"#utility.yul\":23661:23667   */\n      dup9\n        /* \"#utility.yul\":23657:23671   */\n      mul\n        /* \"#utility.yul\":23653:23675   */\n      add\n        /* \"#utility.yul\":23647:23651   */\n      dup9\n        /* \"#utility.yul\":23640:23676   */\n      sstore\n        /* \"#utility.yul\":23075:23686   */\n      pop\n      pop\n      pop\n        /* \"#utility.yul\":23038:23925   */\n    tag_529:\n      pop\n        /* \"#utility.yul\":22628:23931   */\n      pop\n      pop\n      pop\n        /* \"#utility.yul\":22536:23931   */\n      pop\n      pop\n      jump\t// out\n        /* \"#utility.yul\":23937:24131   */\n    tag_155:\n        /* \"#utility.yul\":23977:23981   */\n      0x00\n        /* \"#utility.yul\":23997:24017   */\n      tag_540\n        /* \"#utility.yul\":24015:24016   */\n      dup3\n        /* \"#utility.yul\":23997:24017   */\n      tag_236\n      jump\t// in\n    tag_540:\n        /* \"#utility.yul\":23992:24017   */\n      swap2\n      pop\n        /* \"#utility.yul\":24031:24051   */\n      tag_541\n        /* \"#utility.yul\":24049:24050   */\n      dup4\n        /* \"#utility.yul\":24031:24051   */\n      tag_236\n      jump\t// in\n    tag_541:\n        /* \"#utility.yul\":24026:24051   */\n      swap3\n      pop\n        /* \"#utility.yul\":24075:24076   */\n      dup3\n        /* \"#utility.yul\":24072:24073   */\n      dup3\n        /* \"#utility.yul\":24068:24077   */\n      sub\n        /* \"#utility.yul\":24060:24077   */\n      swap1\n      pop\n        /* \"#utility.yul\":24099:24100   */\n      dup2\n        /* \"#utility.yul\":24093:24097   */\n      dup2\n        /* \"#utility.yul\":24090:24101   */\n      gt\n        /* \"#utility.yul\":24087:24124   */\n      iszero\n      tag_542\n      jumpi\n        /* \"#utility.yul\":24104:24122   */\n      tag_543\n      tag_278\n      jump\t// in\n    tag_543:\n        /* \"#utility.yul\":24087:24124   */\n    tag_542:\n        /* \"#utility.yul\":23937:24131   */\n      swap3\n      swap2\n      pop\n      pop\n      jump\t// out\n        /* \"#utility.yul\":24137:24285   */\n    tag_298:\n        /* \"#utility.yul\":24239:24250   */\n      0x00\n        /* \"#utility.yul\":24276:24279   */\n      dup2\n        /* \"#utility.yul\":24261:24279   */\n      swap1\n      pop\n        /* \"#utility.yul\":24137:24285   */\n      swap3\n      swap2\n      pop\n      pop\n      jump\t// out\n        /* \"#utility.yul\":24291:24681   */\n    tag_299:\n        /* \"#utility.yul\":24397:24400   */\n      0x00\n        /* \"#utility.yul\":24425:24464   */\n      tag_546\n        /* \"#utility.yul\":24458:24463   */\n      dup3\n        /* \"#utility.yul\":24425:24464   */\n      tag_246\n      jump\t// in\n    tag_546:\n        /* \"#utility.yul\":24480:24569   */\n      tag_547\n        /* \"#utility.yul\":24562:24568   */\n      dup2\n        /* \"#utility.yul\":24557:24560   */\n      dup6\n        /* \"#utility.yul\":24480:24569   */\n      tag_298\n      jump\t// in\n    tag_547:\n        /* \"#utility.yul\":24473:24569   */\n      swap4\n      pop\n        /* \"#utility.yul\":24578:24643   */\n      tag_548\n        /* \"#utility.yul\":24636:24642   */\n      dup2\n        /* \"#utility.yul\":24631:24634   */\n      dup6\n        /* \"#utility.yul\":24624:24628   */\n      0x20\n        /* \"#utility.yul\":24617:24622   */\n      dup7\n        /* \"#utility.yul\":24613:24629   */\n      add\n        /* \"#utility.yul\":24578:24643   */\n      tag_248\n      jump\t// in\n    tag_548:\n        /* \"#utility.yul\":24668:24674   */\n      dup1\n        /* \"#utility.yul\":24663:24666   */\n      dup5\n        /* \"#utility.yul\":24659:24675   */\n      add\n        /* \"#utility.yul\":24652:24675   */\n      swap2\n      pop\n        /* \"#utility.yul\":24401:24681   */\n      pop\n        /* \"#utility.yul\":24291:24681   */\n      swap3\n      swap2\n      pop\n      pop\n      jump\t// out\n        /* \"#utility.yul\":24687:24962   */\n    tag_163:\n        /* \"#utility.yul\":24819:24822   */\n      0x00\n        /* \"#utility.yul\":24841:24936   */\n      tag_550\n        /* \"#utility.yul\":24932:24935   */\n      dup3\n        /* \"#utility.yul\":24923:24929   */\n      dup5\n        /* \"#utility.yul\":24841:24936   */\n      tag_299\n      jump\t// in\n    tag_550:\n        /* \"#utility.yul\":24834:24936   */\n      swap2\n      pop\n        /* \"#utility.yul\":24953:24956   */\n      dup2\n        /* \"#utility.yul\":24946:24956   */\n      swap1\n      pop\n        /* \"#utility.yul\":24687:24962   */\n      swap3\n      swap2\n      pop\n      pop\n      jump\t// out\n        /* \"#utility.yul\":24968:25229   */\n    tag_300:\n        /* \"#utility.yul\":25108:25174   */\n      0x4175746f722c206f7520546974756c6f2c206f7520446573637269c3a7c3a36f\n        /* \"#utility.yul\":25104:25105   */\n      0x00\n        /* \"#utility.yul\":25096:25102   */\n      dup3\n        /* \"#utility.yul\":25092:25106   */\n      add\n        /* \"#utility.yul\":25085:25175   */\n      mstore\n        /* \"#utility.yul\":25209:25221   */\n      0x20726570657469646f7300000000000000000000000000000000000000000000\n        /* \"#utility.yul\":25204:25206   */\n      0x20\n        /* \"#utility.yul\":25196:25202   */\n      dup3\n        /* \"#utility.yul\":25192:25207   */\n      add\n        /* \"#utility.yul\":25185:25222   */\n      mstore\n        /* \"#utility.yul\":24968:25229   */\n      pop\n      jump\t// out\n        /* \"#utility.yul\":25235:25601   */\n    tag_301:\n        /* \"#utility.yul\":25377:25380   */\n      0x00\n        /* \"#utility.yul\":25398:25465   */\n      tag_553\n        /* \"#utility.yul\":25462:25464   */\n      0x2a\n        /* \"#utility.yul\":25457:25460   */\n      dup4\n        /* \"#utility.yul\":25398:25465   */\n      tag_247\n      jump\t// in\n    tag_553:\n        /* \"#utility.yul\":25391:25465   */\n      swap2\n      pop\n        /* \"#utility.yul\":25474:25567   */\n      tag_554\n        /* \"#utility.yul\":25563:25566   */\n      dup3\n        /* \"#utility.yul\":25474:25567   */\n      tag_300\n      jump\t// in\n    tag_554:\n        /* \"#utility.yul\":25592:25594   */\n      0x40\n        /* \"#utility.yul\":25587:25590   */\n      dup3\n        /* \"#utility.yul\":25583:25595   */\n      add\n        /* \"#utility.yul\":25576:25595   */\n      swap1\n      pop\n        /* \"#utility.yul\":25235:25601   */\n      swap2\n      swap1\n      pop\n      jump\t// out\n        /* \"#utility.yul\":25607:26026   */\n    tag_174:\n        /* \"#utility.yul\":25773:25777   */\n      0x00\n        /* \"#utility.yul\":25811:25813   */\n      0x20\n        /* \"#utility.yul\":25800:25809   */\n      dup3\n        /* \"#utility.yul\":25796:25814   */\n      add\n        /* \"#utility.yul\":25788:25814   */\n      swap1\n      pop\n        /* \"#utility.yul\":25860:25869   */\n      dup2\n        /* \"#utility.yul\":25854:25858   */\n      dup2\n        /* \"#utility.yul\":25850:25870   */\n      sub\n        /* \"#utility.yul\":25846:25847   */\n      0x00\n        /* \"#utility.yul\":25835:25844   */\n      dup4\n        /* \"#utility.yul\":25831:25848   */\n      add\n        /* \"#utility.yul\":25824:25871   */\n      mstore\n        /* \"#utility.yul\":25888:26019   */\n      tag_556\n        /* \"#utility.yul\":26014:26018   */\n      dup2\n        /* \"#utility.yul\":25888:26019   */\n      tag_301\n      jump\t// in\n    tag_556:\n        /* \"#utility.yul\":25880:26019   */\n      swap1\n      pop\n        /* \"#utility.yul\":25607:26026   */\n      swap2\n      swap1\n      pop\n      jump\t// out\n        /* \"#utility.yul\":26032:26268   */\n    tag_302:\n        /* \"#utility.yul\":26172:26206   */\n      0x736f6d656e7465206f2061646d696e6973747261646f7220706f646520696e73\n        /* \"#utility.yul\":26168:26169   */\n      0x00\n        /* \"#utility.yul\":26160:26166   */\n      dup3\n        /* \"#utility.yul\":26156:26170   */\n      add\n        /* \"#utility.yul\":26149:26207   */\n      mstore\n        /* \"#utility.yul\":26241:26260   */\n      0x65726972206e6120626c61636b6c697374000000000000000000000000000000\n        /* \"#utility.yul\":26236:26238   */\n      0x20\n        /* \"#utility.yul\":26228:26234   */\n      dup3\n        /* \"#utility.yul\":26224:26239   */\n      add\n        /* \"#utility.yul\":26217:26261   */\n      mstore\n        /* \"#utility.yul\":26032:26268   */\n      pop\n      jump\t// out\n        /* \"#utility.yul\":26274:26640   */\n    tag_303:\n        /* \"#utility.yul\":26416:26419   */\n      0x00\n        /* \"#utility.yul\":26437:26504   */\n      tag_559\n        /* \"#utility.yul\":26501:26503   */\n      0x31\n        /* \"#utility.yul\":26496:26499   */\n      dup4\n        /* \"#utility.yul\":26437:26504   */\n      tag_247\n      jump\t// in\n    tag_559:\n        /* \"#utility.yul\":26430:26504   */\n      swap2\n      pop\n        /* \"#utility.yul\":26513:26606   */\n      tag_560\n        /* \"#utility.yul\":26602:26605   */\n      dup3\n        /* \"#utility.yul\":26513:26606   */\n      tag_302\n      jump\t// in\n    tag_560:\n        /* \"#utility.yul\":26631:26633   */\n      0x40\n        /* \"#utility.yul\":26626:26629   */\n      dup3\n        /* \"#utility.yul\":26622:26634   */\n      add\n        /* \"#utility.yul\":26615:26634   */\n      swap1\n      pop\n        /* \"#utility.yul\":26274:26640   */\n      swap2\n      swap1\n      pop\n      jump\t// out\n        /* \"#utility.yul\":26646:27065   */\n    tag_178:\n        /* \"#utility.yul\":26812:26816   */\n      0x00\n        /* \"#utility.yul\":26850:26852   */\n      0x20\n        /* \"#utility.yul\":26839:26848   */\n      dup3\n        /* \"#utility.yul\":26835:26853   */\n      add\n        /* \"#utility.yul\":26827:26853   */\n      swap1\n      pop\n        /* \"#utility.yul\":26899:26908   */\n      dup2\n        /* \"#utility.yul\":26893:26897   */\n      dup2\n        /* \"#utility.yul\":26889:26909   */\n      sub\n        /* \"#utility.yul\":26885:26886   */\n      0x00\n        /* \"#utility.yul\":26874:26883   */\n      dup4\n        /* \"#utility.yul\":26870:26887   */\n      add\n        /* \"#utility.yul\":26863:26910   */\n      mstore\n        /* \"#utility.yul\":26927:27058   */\n      tag_562\n        /* \"#utility.yul\":27053:27057   */\n      dup2\n        /* \"#utility.yul\":26927:27058   */\n      tag_303\n      jump\t// in\n    tag_562:\n        /* \"#utility.yul\":26919:27058   */\n      swap1\n      pop\n        /* \"#utility.yul\":26646:27065   */\n      swap2\n      swap1\n      pop\n      jump\t// out\n        /* \"#utility.yul\":27071:27285   */\n    tag_304:\n        /* \"#utility.yul\":27211:27277   */\n      0x656e64657265c3a76f206ac3a120657374c3a1206e6120626c61636b6c697374\n        /* \"#utility.yul\":27207:27208   */\n      0x00\n        /* \"#utility.yul\":27199:27205   */\n      dup3\n        /* \"#utility.yul\":27195:27209   */\n      add\n        /* \"#utility.yul\":27188:27278   */\n      mstore\n        /* \"#utility.yul\":27071:27285   */\n      pop\n      jump\t// out\n        /* \"#utility.yul\":27291:27657   */\n    tag_305:\n        /* \"#utility.yul\":27433:27436   */\n      0x00\n        /* \"#utility.yul\":27454:27521   */\n      tag_565\n        /* \"#utility.yul\":27518:27520   */\n      0x20\n        /* \"#utility.yul\":27513:27516   */\n      dup4\n        /* \"#utility.yul\":27454:27521   */\n      tag_247\n      jump\t// in\n    tag_565:\n        /* \"#utility.yul\":27447:27521   */\n      swap2\n      pop\n        /* \"#utility.yul\":27530:27623   */\n      tag_566\n        /* \"#utility.yul\":27619:27622   */\n      dup3\n        /* \"#utility.yul\":27530:27623   */\n      tag_304\n      jump\t// in\n    tag_566:\n        /* \"#utility.yul\":27648:27650   */\n      0x20\n        /* \"#utility.yul\":27643:27646   */\n      dup3\n        /* \"#utility.yul\":27639:27651   */\n      add\n        /* \"#utility.yul\":27632:27651   */\n      swap1\n      pop\n        /* \"#utility.yul\":27291:27657   */\n      swap2\n      swap1\n      pop\n      jump\t// out\n        /* \"#utility.yul\":27663:28082   */\n    tag_188:\n        /* \"#utility.yul\":27829:27833   */\n      0x00\n        /* \"#utility.yul\":27867:27869   */\n      0x20\n        /* \"#utility.yul\":27856:27865   */\n      dup3\n        /* \"#utility.yul\":27852:27870   */\n      add\n        /* \"#utility.yul\":27844:27870   */\n      swap1\n      pop\n        /* \"#utility.yul\":27916:27925   */\n      dup2\n        /* \"#utility.yul\":27910:27914   */\n      dup2\n        /* \"#utility.yul\":27906:27926   */\n      sub\n        /* \"#utility.yul\":27902:27903   */\n      0x00\n        /* \"#utility.yul\":27891:27900   */\n      dup4\n        /* \"#utility.yul\":27887:27904   */\n      add\n        /* \"#utility.yul\":27880:27927   */\n      mstore\n        /* \"#utility.yul\":27944:28075   */\n      tag_568\n        /* \"#utility.yul\":28070:28074   */\n      dup2\n        /* \"#utility.yul\":27944:28075   */\n      tag_305\n      jump\t// in\n    tag_568:\n        /* \"#utility.yul\":27936:28075   */\n      swap1\n      pop\n        /* \"#utility.yul\":27663:28082   */\n      swap2\n      swap1\n      pop\n      jump\t// out\n        /* \"#utility.yul\":28088:28279   */\n    tag_206:\n        /* \"#utility.yul\":28128:28131   */\n      0x00\n        /* \"#utility.yul\":28147:28167   */\n      tag_570\n        /* \"#utility.yul\":28165:28166   */\n      dup3\n        /* \"#utility.yul\":28147:28167   */\n      tag_236\n      jump\t// in\n    tag_570:\n        /* \"#utility.yul\":28142:28167   */\n      swap2\n      pop\n        /* \"#utility.yul\":28181:28201   */\n      tag_571\n        /* \"#utility.yul\":28199:28200   */\n      dup4\n        /* \"#utility.yul\":28181:28201   */\n      tag_236\n      jump\t// in\n    tag_571:\n        /* \"#utility.yul\":28176:28201   */\n      swap3\n      pop\n        /* \"#utility.yul\":28224:28225   */\n      dup3\n        /* \"#utility.yul\":28221:28222   */\n      dup3\n        /* \"#utility.yul\":28217:28226   */\n      add\n        /* \"#utility.yul\":28210:28226   */\n      swap1\n      pop\n        /* \"#utility.yul\":28245:28248   */\n      dup1\n        /* \"#utility.yul\":28242:28243   */\n      dup3\n        /* \"#utility.yul\":28239:28249   */\n      gt\n        /* \"#utility.yul\":28236:28272   */\n      iszero\n      tag_572\n      jumpi\n        /* \"#utility.yul\":28252:28270   */\n      tag_573\n      tag_278\n      jump\t// in\n    tag_573:\n        /* \"#utility.yul\":28236:28272   */\n    tag_572:\n        /* \"#utility.yul\":28088:28279   */\n      swap3\n      swap2\n      pop\n      pop\n      jump\t// out\n        /* \"#utility.yul\":28285:28538   */\n    tag_306:\n        /* \"#utility.yul\":28425:28491   */\n      0x566f63c3aa206ec3a36f20706f64652066656368617220657374652070656469\n        /* \"#utility.yul\":28421:28422   */\n      0x00\n        /* \"#utility.yul\":28413:28419   */\n      dup3\n        /* \"#utility.yul\":28409:28423   */\n      add\n        /* \"#utility.yul\":28402:28492   */\n      mstore\n        /* \"#utility.yul\":28526:28530   */\n      0x646f000000000000000000000000000000000000000000000000000000000000\n        /* \"#utility.yul\":28521:28523   */\n      0x20\n        /* \"#utility.yul\":28513:28519   */\n      dup3\n        /* \"#utility.yul\":28509:28524   */\n      add\n        /* \"#utility.yul\":28502:28531   */\n      mstore\n        /* \"#utility.yul\":28285:28538   */\n      pop\n      jump\t// out\n        /* \"#utility.yul\":28544:28910   */\n    tag_307:\n        /* \"#utility.yul\":28686:28689   */\n      0x00\n        /* \"#utility.yul\":28707:28774   */\n      tag_576\n        /* \"#utility.yul\":28771:28773   */\n      0x22\n        /* \"#utility.yul\":28766:28769   */\n      dup4\n        /* \"#utility.yul\":28707:28774   */\n      tag_247\n      jump\t// in\n    tag_576:\n        /* \"#utility.yul\":28700:28774   */\n      swap2\n      pop\n        /* \"#utility.yul\":28783:28876   */\n      tag_577\n        /* \"#utility.yul\":28872:28875   */\n      dup3\n        /* \"#utility.yul\":28783:28876   */\n      tag_306\n      jump\t// in\n    tag_577:\n        /* \"#utility.yul\":28901:28903   */\n      0x40\n        /* \"#utility.yul\":28896:28899   */\n      dup3\n        /* \"#utility.yul\":28892:28904   */\n      add\n        /* \"#utility.yul\":28885:28904   */\n      swap1\n      pop\n        /* \"#utility.yul\":28544:28910   */\n      swap2\n      swap1\n      pop\n      jump\t// out\n        /* \"#utility.yul\":28916:29335   */\n    tag_209:\n        /* \"#utility.yul\":29082:29086   */\n      0x00\n        /* \"#utility.yul\":29120:29122   */\n      0x20\n        /* \"#utility.yul\":29109:29118   */\n      dup3\n        /* \"#utility.yul\":29105:29123   */\n      add\n        /* \"#utility.yul\":29097:29123   */\n      swap1\n      pop\n        /* \"#utility.yul\":29169:29178   */\n      dup2\n        /* \"#utility.yul\":29163:29167   */\n      dup2\n        /* \"#utility.yul\":29159:29179   */\n      sub\n        /* \"#utility.yul\":29155:29156   */\n      0x00\n        /* \"#utility.yul\":29144:29153   */\n      dup4\n        /* \"#utility.yul\":29140:29157   */\n      add\n        /* \"#utility.yul\":29133:29180   */\n      mstore\n        /* \"#utility.yul\":29197:29328   */\n      tag_579\n        /* \"#utility.yul\":29323:29327   */\n      dup2\n        /* \"#utility.yul\":29197:29328   */\n      tag_307\n      jump\t// in\n    tag_579:\n        /* \"#utility.yul\":29189:29328   */\n      swap1\n      pop\n        /* \"#utility.yul\":28916:29335   */\n      swap2\n      swap1\n      pop\n      jump\t// out\n        /* \"#utility.yul\":29341:29555   */\n    tag_308:\n        /* \"#utility.yul\":29481:29547   */\n      0x6ec3a36f20706f646520646f61722076616c6f72206e756c6f00000000000000\n        /* \"#utility.yul\":29477:29478   */\n      0x00\n        /* \"#utility.yul\":29469:29475   */\n      dup3\n        /* \"#utility.yul\":29465:29479   */\n      add\n        /* \"#utility.yul\":29458:29548   */\n      mstore\n        /* \"#utility.yul\":29341:29555   */\n      pop\n      jump\t// out\n        /* \"#utility.yul\":29561:29927   */\n    tag_309:\n        /* \"#utility.yul\":29703:29706   */\n      0x00\n        /* \"#utility.yul\":29724:29791   */\n      tag_582\n        /* \"#utility.yul\":29788:29790   */\n      0x19\n        /* \"#utility.yul\":29783:29786   */\n      dup4\n        /* \"#utility.yul\":29724:29791   */\n      tag_247\n      jump\t// in\n    tag_582:\n        /* \"#utility.yul\":29717:29791   */\n      swap2\n      pop\n        /* \"#utility.yul\":29800:29893   */\n      tag_583\n        /* \"#utility.yul\":29889:29892   */\n      dup3\n        /* \"#utility.yul\":29800:29893   */\n      tag_308\n      jump\t// in\n    tag_583:\n        /* \"#utility.yul\":29918:29920   */\n      0x20\n        /* \"#utility.yul\":29913:29916   */\n      dup3\n        /* \"#utility.yul\":29909:29921   */\n      add\n        /* \"#utility.yul\":29902:29921   */\n      swap1\n      pop\n        /* \"#utility.yul\":29561:29927   */\n      swap2\n      swap1\n      pop\n      jump\t// out\n        /* \"#utility.yul\":29933:30352   */\n    tag_228:\n        /* \"#utility.yul\":30099:30103   */\n      0x00\n        /* \"#utility.yul\":30137:30139   */\n      0x20\n        /* \"#utility.yul\":30126:30135   */\n      dup3\n        /* \"#utility.yul\":30122:30140   */\n      add\n        /* \"#utility.yul\":30114:30140   */\n      swap1\n      pop\n        /* \"#utility.yul\":30186:30195   */\n      dup2\n        /* \"#utility.yul\":30180:30184   */\n      dup2\n        /* \"#utility.yul\":30176:30196   */\n      sub\n        /* \"#utility.yul\":30172:30173   */\n      0x00\n        /* \"#utility.yul\":30161:30170   */\n      dup4\n        /* \"#utility.yul\":30157:30174   */\n      add\n        /* \"#utility.yul\":30150:30197   */\n      mstore\n        /* \"#utility.yul\":30214:30345   */\n      tag_585\n        /* \"#utility.yul\":30340:30344   */\n      dup2\n        /* \"#utility.yul\":30214:30345   */\n      tag_309\n      jump\t// in\n    tag_585:\n        /* \"#utility.yul\":30206:30345   */\n      swap1\n      pop\n        /* \"#utility.yul\":29933:30352   */\n      swap2\n      swap1\n      pop\n      jump\t// out\n        /* \"#utility.yul\":30358:30572   */\n    tag_310:\n        /* \"#utility.yul\":30498:30564   */\n      0x636f6e747261746f2061696e6461206ec3a36f206170726f7661646f00000000\n        /* \"#utility.yul\":30494:30495   */\n      0x00\n        /* \"#utility.yul\":30486:30492   */\n      dup3\n        /* \"#utility.yul\":30482:30496   */\n      add\n        /* \"#utility.yul\":30475:30565   */\n      mstore\n        /* \"#utility.yul\":30358:30572   */\n      pop\n      jump\t// out\n        /* \"#utility.yul\":30578:30944   */\n    tag_311:\n        /* \"#utility.yul\":30720:30723   */\n      0x00\n        /* \"#utility.yul\":30741:30808   */\n      tag_588\n        /* \"#utility.yul\":30805:30807   */\n      0x1c\n        /* \"#utility.yul\":30800:30803   */\n      dup4\n        /* \"#utility.yul\":30741:30808   */\n      tag_247\n      jump\t// in\n    tag_588:\n        /* \"#utility.yul\":30734:30808   */\n      swap2\n      pop\n        /* \"#utility.yul\":30817:30910   */\n      tag_589\n        /* \"#utility.yul\":30906:30909   */\n      dup3\n        /* \"#utility.yul\":30817:30910   */\n      tag_310\n      jump\t// in\n    tag_589:\n        /* \"#utility.yul\":30935:30937   */\n      0x20\n        /* \"#utility.yul\":30930:30933   */\n      dup3\n        /* \"#utility.yul\":30926:30938   */\n      add\n        /* \"#utility.yul\":30919:30938   */\n      swap1\n      pop\n        /* \"#utility.yul\":30578:30944   */\n      swap2\n      swap1\n      pop\n      jump\t// out\n        /* \"#utility.yul\":30950:31369   */\n    tag_231:\n        /* \"#utility.yul\":31116:31120   */\n      0x00\n        /* \"#utility.yul\":31154:31156   */\n      0x20\n        /* \"#utility.yul\":31143:31152   */\n      dup3\n        /* \"#utility.yul\":31139:31157   */\n      add\n        /* \"#utility.yul\":31131:31157   */\n      swap1\n      pop\n        /* \"#utility.yul\":31203:31212   */\n      dup2\n        /* \"#utility.yul\":31197:31201   */\n      dup2\n        /* \"#utility.yul\":31193:31213   */\n      sub\n        /* \"#utility.yul\":31189:31190   */\n      0x00\n        /* \"#utility.yul\":31178:31187   */\n      dup4\n        /* \"#utility.yul\":31174:31191   */\n      add\n        /* \"#utility.yul\":31167:31214   */\n      mstore\n        /* \"#utility.yul\":31231:31362   */\n      tag_591\n        /* \"#utility.yul\":31357:31361   */\n      dup2\n        /* \"#utility.yul\":31231:31362   */\n      tag_311\n      jump\t// in\n    tag_591:\n        /* \"#utility.yul\":31223:31362   */\n      swap1\n      pop\n        /* \"#utility.yul\":30950:31369   */\n      swap2\n      swap1\n      pop\n      jump\t// out\n\n    auxdata: 0xa2646970667358221220e188afd7c2ab7fea36e53e84b617f5d9034cb748c44fa0977ebab8936d90d84664736f6c63430008190033\n}\n",
				"bytecode": {
					"linkReferences": {},
					"object": "60806040525f80555f6004553480156015575f80fd5b503360025f6101000a81548173ffffffffffffffffffffffffffffffffffffffff021916908373ffffffffffffffffffffffffffffffffffffffff1602179055506125ba806100635f395ff3fe60806040526004361061009b575f3560e01c8063c1292cc311610063578063c1292cc3146101b0578063d6121c22146101da578063dc6deb4714610202578063f0282b7f1461022a578063f14faf6f14610252578063f851a4401461026e5761009b565b8063540021ad1461009f57806381d12c58146100c9578063a4de13e514610110578063b45243dc1461014c578063b7aaeb4d14610188575b5f80fd5b3480156100aa575f80fd5b506100b3610298565b6040516100c0919061160d565b60405180910390f35b3480156100d4575f80fd5b506100ef60048036038101906100ea9190611661565b61029e565b6040516101079c9b9a99989796959493929190611755565b60405180910390f35b34801561011b575f80fd5b5061013660048036038101906101319190611661565b6104c4565b6040516101439190611822565b60405180910390f35b348015610157575f80fd5b50610172600480360381019061016d919061183b565b6104ff565b60405161017f9190611ab8565b60405180910390f35b348015610193575f80fd5b506101ae60048036038101906101a99190611661565b610945565b005b3480156101bb575f80fd5b506101c4610a03565b6040516101d1919061160d565b60405180910390f35b3480156101e5575f80fd5b5061020060048036038101906101fb9190611c04565b610a08565b005b34801561020d575f80fd5b5061022860048036038101906102239190611cf9565b610e78565b005b348015610235575f80fd5b50610250600480360381019061024b9190611661565b6110e8565b005b61026c60048036038101906102679190611661565b61131c565b005b348015610279575f80fd5b5061028261155e565b60405161028f9190611822565b60405180910390f35b60045481565b6001602052805f5260405f205f91509050805f015490806001015f9054906101000a900473ffffffffffffffffffffffffffffffffffffffff16908060020180546102e890611d51565b80601f016020809104026020016040519081016040528092919081815260200182805461031490611d51565b801561035f5780601f106103365761010080835404028352916020019161035f565b820191905f5260205f20905b81548152906001019060200180831161034257829003601f168201915b50505050509080600301805461037490611d51565b80601f01602080910402602001604051908101604052809291908181526020018280546103a090611d51565b80156103eb5780601f106103c2576101008083540402835291602001916103eb565b820191905f5260205f20905b8154815290600101906020018083116103ce57829003601f168201915b50505050509080600401805461040090611d51565b80601f016020809104026020016040519081016040528092919081815260200182805461042c90611d51565b80156104775780601f1061044e57610100808354040283529160200191610477565b820191905f5260205f20905b81548152906001019060200180831161045a57829003601f168201915b505050505090806005015490806006015490806007015490806008015490806009015f9054906101000a900460ff16908060090160019054906101000a900460ff169080600a015490508c565b600381815481106104d3575f80fd5b905f5260205f20015f915054906101000a900473ffffffffffffffffffffffffffffffffffffffff1681565b60605f5b6003805490508110156105c6576003818154811061052457610523611d81565b5b905f5260205f20015f9054906101000a900473ffffffffffffffffffffffffffffffffffffffff1673ffffffffffffffffffffffffffffffffffffffff163373ffffffffffffffffffffffffffffffffffffffff16036105b9576040517f08c379a00000000000000000000000000000000000000000000000000000000081526004016105b090611df8565b60405180910390fd5b8080600101915050610503565b505f548211156105d5575f5491505b5f8267ffffffffffffffff8111156105f0576105ef611ae0565b5b60405190808252806020026020018201604052801561062957816020015b610616611583565b81526020019060019003908161060e5790505b5090505f8490505f5b60015f8381526020019081526020015f206009015f9054906101000a900460ff16156109175760015f8381526020019081526020015f20604051806101800160405290815f8201548152602001600182015f9054906101000a900473ffffffffffffffffffffffffffffffffffffffff1673ffffffffffffffffffffffffffffffffffffffff1673ffffffffffffffffffffffffffffffffffffffff1681526020016002820180546106e390611d51565b80601f016020809104026020016040519081016040528092919081815260200182805461070f90611d51565b801561075a5780601f106107315761010080835404028352916020019161075a565b820191905f5260205f20905b81548152906001019060200180831161073d57829003601f168201915b5050505050815260200160038201805461077390611d51565b80601f016020809104026020016040519081016040528092919081815260200182805461079f90611d51565b80156107ea5780601f106107c1576101008083540402835291602001916107ea565b820191905f5260205f20905b8154815290600101906020018083116107cd57829003601f168201915b5050505050815260200160048201805461080390611d51565b80601f016020809104026020016040519081016040528092919081815260200182805461082f90611d51565b801561087a5780601f106108515761010080835404028352916020019161087a565b820191905f5260205f20905b81548152906001019060200180831161085d57829003601f168201915b5050505050815260200160058201548152602001600682015481526020016007820154815260200160088201548152602001600982015f9054906101000a900460ff161515151581526020016009820160019054906101000a900460ff16151515158152602001600a820154815250508382815181106108fd576108fc611d81565b5b6020026020010181905250808061091390611e43565b9150505b818061092290611e43565b925050848110801561093557505f548211155b6106325782935050505092915050565b60025f9054906101000a900473ffffffffffffffffffffffffffffffffffffffff1673ffffffffffffffffffffffffffffffffffffffff163373ffffffffffffffffffffffffffffffffffffffff16146109d4576040517f08c379a00000000000000000000000000000000000000000000000000000000081526004016109cb90611efa565b60405180910390fd5b6001805f8381526020019081526020015f2060090160016101000a81548160ff02191690831515021790555050565b5f5481565b5f81118015610a1657505f82115b610a55576040517f08c379a0000000000000000000000000000000000000000000000000000000008152600401610a4c90611f62565b60405180910390fd5b5f5b600380549050811015610b1a5760038181548110610a7857610a77611d81565b5b905f5260205f20015f9054906101000a900473ffffffffffffffffffffffffffffffffffffffff1673ffffffffffffffffffffffffffffffffffffffff163373ffffffffffffffffffffffffffffffffffffffff1603610b0d576040517f08c379a0000000000000000000000000000000000000000000000000000000008152600401610b0490611df8565b60405180910390fd5b8080600101915050610a57565b505f80815480929190610b2c90611e43565b91905055506040518061018001604052805f5481526020013373ffffffffffffffffffffffffffffffffffffffff1681526020018681526020018581526020018481526020014281526020018381526020015f81526020015f81526020016001151581526020015f151581526020018281525060015f805481526020019081526020015f205f820151815f01556020820151816001015f6101000a81548173ffffffffffffffffffffffffffffffffffffffff021916908373ffffffffffffffffffffffffffffffffffffffff1602179055506040820151816002019081610c14919061211d565b506060820151816003019081610c2a919061211d565b506080820151816004019081610c40919061211d565b5060a0820151816005015560c0820151816006015560e082015181600701556101008201518160080155610120820151816009015f6101000a81548160ff0219169083151502179055506101408201518160090160016101000a81548160ff02191690831515021790555061016082015181600a015590505060015f541115610e71575f610cdb6001805f54610cd691906121ec565b6104ff565b90505f5b8151811015610e6e573373ffffffffffffffffffffffffffffffffffffffff16828281518110610d1257610d11611d81565b5b60200260200101516020015173ffffffffffffffffffffffffffffffffffffffff1614158015610dac575086604051602001610d4e9190612259565b60405160208183030381529060405280519060200120828281518110610d7757610d76611d81565b5b602002602001015160400151604051602001610d939190612259565b6040516020818303038152906040528051906020012014155b8015610e22575085604051602001610dc49190612259565b60405160208183030381529060405280519060200120828281518110610ded57610dec611d81565b5b602002602001015160600151604051602001610e099190612259565b6040516020818303038152906040528051906020012014155b610e61576040517f08c379a0000000000000000000000000000000000000000000000000000000008152600401610e58906122df565b60405180910390fd5b8080600101915050610cdf565b50505b5050505050565b60025f9054906101000a900473ffffffffffffffffffffffffffffffffffffffff1673ffffffffffffffffffffffffffffffffffffffff163373ffffffffffffffffffffffffffffffffffffffff1614610f07576040517f08c379a0000000000000000000000000000000000000000000000000000000008152600401610efe9061236d565b60405180910390fd5b60045f815480929190610f1990611e43565b91905055505f5b600380549050811015610fe35760038181548110610f4157610f40611d81565b5b905f5260205f20015f9054906101000a900473ffffffffffffffffffffffffffffffffffffffff1673ffffffffffffffffffffffffffffffffffffffff168273ffffffffffffffffffffffffffffffffffffffff1603610fd6576040517f08c379a0000000000000000000000000000000000000000000000000000000008152600401610fcd906123d5565b60405180910390fd5b8080600101915050610f20565b50600381908060018154018082558091505060019003905f5260205f20015f9091909190916101000a81548173ffffffffffffffffffffffffffffffffffffffff021916908373ffffffffffffffffffffffffffffffffffffffff1602179055505f61105160015f546104ff565b90505f5b81518110156110e35781818151811061107157611070611d81565b5b60200260200101516020015173ffffffffffffffffffffffffffffffffffffffff168373ffffffffffffffffffffffffffffffffffffffff16036110d6576110d58282815181106110c5576110c4611d81565b5b60200260200101515f01516110e8565b5b8080600101915050611055565b505050565b5f60015f8381526020019081526020015f206001015f9054906101000a900473ffffffffffffffffffffffffffffffffffffffff1690505f60015f8481526020019081526020015f206007015490505f60015f8581526020019081526020015f2060060154905060015f8581526020019081526020015f206009015f9054906101000a900460ff16801561124657508273ffffffffffffffffffffffffffffffffffffffff163373ffffffffffffffffffffffffffffffffffffffff1614806111b15750808210155b80611208575060025f9054906101000a900473ffffffffffffffffffffffffffffffffffffffff1673ffffffffffffffffffffffffffffffffffffffff163373ffffffffffffffffffffffffffffffffffffffff16145b80611245575060015f8581526020019081526020015f20600a015460015f8681526020019081526020015f206005015461124291906123f3565b42115b5b611285576040517f08c379a000000000000000000000000000000000000000000000000000000000815260040161127c90612496565b60405180910390fd5b5f60015f8681526020019081526020015f206009015f6101000a81548160ff0219169083151502179055505f821115611316575f60015f8681526020019081526020015f20600701819055508273ffffffffffffffffffffffffffffffffffffffff166108fc8390811502906040515f60405180830381858888f19350505050158015611314573d5f803e3d5ffd5b505b50505050565b5f5b6003805490508110156113e1576003818154811061133f5761133e611d81565b5b905f5260205f20015f9054906101000a900473ffffffffffffffffffffffffffffffffffffffff1673ffffffffffffffffffffffffffffffffffffffff163373ffffffffffffffffffffffffffffffffffffffff16036113d4576040517f08c379a00000000000000000000000000000000000000000000000000000000081526004016113cb90611df8565b60405180910390fd5b808060010191505061131e565b5060015f8281526020019081526020015f20600a015460015f8381526020019081526020015f206005015461141691906123f3565b42111561142b57611426816110e8565b61155b565b5f340361146d576040517f08c379a0000000000000000000000000000000000000000000000000000000008152600401611464906124fe565b60405180910390fd5b60015f8281526020019081526020015f2060090160019054906101000a900460ff166114ce576040517f08c379a00000000000000000000000000000000000000000000000000000000081526004016114c590612566565b60405180910390fd5b3460015f8381526020019081526020015f206007015f8282546114f191906123f3565b9250508190555060015f8281526020019081526020015f206008015f81548092919061151c90611e43565b919050555060015f8281526020019081526020015f206006015460015f8381526020019081526020015f20600701541061155a57611559816110e8565b5b5b50565b60025f9054906101000a900473ffffffffffffffffffffffffffffffffffffffff1681565b6040518061018001604052805f81526020015f73ffffffffffffffffffffffffffffffffffffffff1681526020016060815260200160608152602001606081526020015f81526020015f81526020015f81526020015f81526020015f151581526020015f151581526020015f81525090565b5f819050919050565b611607816115f5565b82525050565b5f6020820190506116205f8301846115fe565b92915050565b5f604051905090565b5f80fd5b5f80fd5b611640816115f5565b811461164a575f80fd5b50565b5f8135905061165b81611637565b92915050565b5f602082840312156116765761167561162f565b5b5f6116838482850161164d565b91505092915050565b5f73ffffffffffffffffffffffffffffffffffffffff82169050919050565b5f6116b58261168c565b9050919050565b6116c5816116ab565b82525050565b5f81519050919050565b5f82825260208201905092915050565b8281835e5f83830152505050565b5f601f19601f8301169050919050565b5f61170d826116cb565b61171781856116d5565b93506117278185602086016116e5565b611730816116f3565b840191505092915050565b5f8115159050919050565b61174f8161173b565b82525050565b5f610180820190506117695f83018f6115fe565b611776602083018e6116bc565b8181036040830152611788818d611703565b9050818103606083015261179c818c611703565b905081810360808301526117b0818b611703565b90506117bf60a083018a6115fe565b6117cc60c08301896115fe565b6117d960e08301886115fe565b6117e76101008301876115fe565b6117f5610120830186611746565b611803610140830185611746565b6118116101608301846115fe565b9d9c50505050505050505050505050565b5f6020820190506118355f8301846116bc565b92915050565b5f80604083850312156118515761185061162f565b5b5f61185e8582860161164d565b925050602061186f8582860161164d565b9150509250929050565b5f81519050919050565b5f82825260208201905092915050565b5f819050602082019050919050565b6118ab816115f5565b82525050565b6118ba816116ab565b82525050565b5f82825260208201905092915050565b5f6118da826116cb565b6118e481856118c0565b93506118f48185602086016116e5565b6118fd816116f3565b840191505092915050565b6119118161173b565b82525050565b5f61018083015f83015161192d5f8601826118a2565b50602083015161194060208601826118b1565b506040830151848203604086015261195882826118d0565b9150506060830151848203606086015261197282826118d0565b9150506080830151848203608086015261198c82826118d0565b91505060a08301516119a160a08601826118a2565b5060c08301516119b460c08601826118a2565b5060e08301516119c760e08601826118a2565b506101008301516119dc6101008601826118a2565b506101208301516119f1610120860182611908565b50610140830151611a06610140860182611908565b50610160830151611a1b6101608601826118a2565b508091505092915050565b5f611a318383611917565b905092915050565b5f602082019050919050565b5f611a4f82611879565b611a598185611883565b935083602082028501611a6b85611893565b805f5b85811015611aa65784840389528151611a878582611a26565b9450611a9283611a39565b925060208a01995050600181019050611a6e565b50829750879550505050505092915050565b5f6020820190508181035f830152611ad08184611a45565b905092915050565b5f80fd5b5f80fd5b7f4e487b71000000000000000000000000000000000000000000000000000000005f52604160045260245ffd5b611b16826116f3565b810181811067ffffffffffffffff82111715611b3557611b34611ae0565b5b80604052505050565b5f611b47611626565b9050611b538282611b0d565b919050565b5f67ffffffffffffffff821115611b7257611b71611ae0565b5b611b7b826116f3565b9050602081019050919050565b828183375f83830152505050565b5f611ba8611ba384611b58565b611b3e565b905082815260208101848484011115611bc457611bc3611adc565b5b611bcf848285611b88565b509392505050565b5f82601f830112611beb57611bea611ad8565b5b8135611bfb848260208601611b96565b91505092915050565b5f805f805f60a08688031215611c1d57611c1c61162f565b5b5f86013567ffffffffffffffff811115611c3a57611c39611633565b5b611c4688828901611bd7565b955050602086013567ffffffffffffffff811115611c6757611c66611633565b5b611c7388828901611bd7565b945050604086013567ffffffffffffffff811115611c9457611c93611633565b5b611ca088828901611bd7565b9350506060611cb18882890161164d565b9250506080611cc28882890161164d565b9150509295509295909350565b611cd8816116ab565b8114611ce2575f80fd5b50565b5f81359050611cf381611ccf565b92915050565b5f60208284031215611d0e57611d0d61162f565b5b5f611d1b84828501611ce5565b91505092915050565b7f4e487b71000000000000000000000000000000000000000000000000000000005f52602260045260245ffd5b5f6002820490506001821680611d6857607f821691505b602082108103611d7b57611d7a611d24565b5b50919050565b7f4e487b71000000000000000000000000000000000000000000000000000000005f52603260045260245ffd5b7f656e64657265c3a76f206e61206c69737461206e6567726100000000000000005f82015250565b5f611de26018836116d5565b9150611ded82611dae565b602082019050919050565b5f6020820190508181035f830152611e0f81611dd6565b9050919050565b7f4e487b71000000000000000000000000000000000000000000000000000000005f52601160045260245ffd5b5f611e4d826115f5565b91507fffffffffffffffffffffffffffffffffffffffffffffffffffffffffffffffff8203611e7f57611e7e611e16565b5b600182019050919050565b7f736f6d656e7465206f2061646d696e6973747261646f7220706f6465206170725f8201527f6f766172206f20636f6e747261746f0000000000000000000000000000000000602082015250565b5f611ee4602f836116d5565b9150611eef82611e8a565b604082019050919050565b5f6020820190508181035f830152611f1181611ed8565b9050919050565b7f696e666f726d61c3a7c3b5657320696e76c3a16c6964617300000000000000005f82015250565b5f611f4c6018836116d5565b9150611f5782611f18565b602082019050919050565b5f6020820190508181035f830152611f7981611f40565b9050919050565b5f819050815f5260205f209050919050565b5f6020601f8301049050919050565b5f82821b905092915050565b5f60088302611fdc7fffffffffffffffffffffffffffffffffffffffffffffffffffffffffffffffff82611fa1565b611fe68683611fa1565b95508019841693508086168417925050509392505050565b5f819050919050565b5f61202161201c612017846115f5565b611ffe565b6115f5565b9050919050565b5f819050919050565b61203a83612007565b61204e61204682612028565b848454611fad565b825550505050565b5f90565b612062612056565b61206d818484612031565b505050565b5b81811015612090576120855f8261205a565b600181019050612073565b5050565b601f8211156120d5576120a681611f80565b6120af84611f92565b810160208510156120be578190505b6120d26120ca85611f92565b830182612072565b50505b505050565b5f82821c905092915050565b5f6120f55f19846008026120da565b1980831691505092915050565b5f61210d83836120e6565b9150826002028217905092915050565b612126826116cb565b67ffffffffffffffff81111561213f5761213e611ae0565b5b6121498254611d51565b612154828285612094565b5f60209050601f831160018114612185575f8415612173578287015190505b61217d8582612102565b8655506121e4565b601f19841661219386611f80565b5f5b828110156121ba57848901518255600182019150602085019450602081019050612195565b868310156121d757848901516121d3601f8916826120e6565b8355505b6001600288020188555050505b505050505050565b5f6121f6826115f5565b9150612201836115f5565b925082820390508181111561221957612218611e16565b5b92915050565b5f81905092915050565b5f612233826116cb565b61223d818561221f565b935061224d8185602086016116e5565b80840191505092915050565b5f6122648284612229565b915081905092915050565b7f4175746f722c206f7520546974756c6f2c206f7520446573637269c3a7c3a36f5f8201527f20726570657469646f7300000000000000000000000000000000000000000000602082015250565b5f6122c9602a836116d5565b91506122d48261226f565b604082019050919050565b5f6020820190508181035f8301526122f6816122bd565b9050919050565b7f736f6d656e7465206f2061646d696e6973747261646f7220706f646520696e735f8201527f65726972206e6120626c61636b6c697374000000000000000000000000000000602082015250565b5f6123576031836116d5565b9150612362826122fd565b604082019050919050565b5f6020820190508181035f8301526123848161234b565b9050919050565b7f656e64657265c3a76f206ac3a120657374c3a1206e6120626c61636b6c6973745f82015250565b5f6123bf6020836116d5565b91506123ca8261238b565b602082019050919050565b5f6020820190508181035f8301526123ec816123b3565b9050919050565b5f6123fd826115f5565b9150612408836115f5565b92508282019050808211156124205761241f611e16565b5b92915050565b7f566f63c3aa206ec3a36f20706f646520666563686172206573746520706564695f8201527f646f000000000000000000000000000000000000000000000000000000000000602082015250565b5f6124806022836116d5565b915061248b82612426565b604082019050919050565b5f6020820190508181035f8301526124ad81612474565b9050919050565b7f6ec3a36f20706f646520646f61722076616c6f72206e756c6f000000000000005f82015250565b5f6124e86019836116d5565b91506124f3826124b4565b602082019050919050565b5f6020820190508181035f830152612515816124dc565b9050919050565b7f636f6e747261746f2061696e6461206ec3a36f206170726f7661646f000000005f82015250565b5f612550601c836116d5565b915061255b8261251c565b602082019050919050565b5f6020820190508181035f83015261257d81612544565b905091905056fea2646970667358221220e188afd7c2ab7fea36e53e84b617f5d9034cb748c44fa0977ebab8936d90d84664736f6c63430008190033",
					"opcodes": "PUSH1 0x80 PUSH1 0x40 MSTORE PUSH0 DUP1 SSTORE PUSH0 PUSH1 0x4 SSTORE CALLVALUE DUP1 ISZERO PUSH1 0x15 JUMPI PUSH0 DUP1 REVERT JUMPDEST POP CALLER PUSH1 0x2 PUSH0 PUSH2 0x100 EXP DUP2 SLOAD DUP2 PUSH20 0xFFFFFFFFFFFFFFFFFFFFFFFFFFFFFFFFFFFFFFFF MUL NOT AND SWAP1 DUP4 PUSH20 0xFFFFFFFFFFFFFFFFFFFFFFFFFFFFFFFFFFFFFFFF AND MUL OR SWAP1 SSTORE POP PUSH2 0x25BA DUP1 PUSH2 0x63 PUSH0 CODECOPY PUSH0 RETURN INVALID PUSH1 0x80 PUSH1 0x40 MSTORE PUSH1 0x4 CALLDATASIZE LT PUSH2 0x9B JUMPI PUSH0 CALLDATALOAD PUSH1 0xE0 SHR DUP1 PUSH4 0xC1292CC3 GT PUSH2 0x63 JUMPI DUP1 PUSH4 0xC1292CC3 EQ PUSH2 0x1B0 JUMPI DUP1 PUSH4 0xD6121C22 EQ PUSH2 0x1DA JUMPI DUP1 PUSH4 0xDC6DEB47 EQ PUSH2 0x202 JUMPI DUP1 PUSH4 0xF0282B7F EQ PUSH2 0x22A JUMPI DUP1 PUSH4 0xF14FAF6F EQ PUSH2 0x252 JUMPI DUP1 PUSH4 0xF851A440 EQ PUSH2 0x26E JUMPI PUSH2 0x9B JUMP JUMPDEST DUP1 PUSH4 0x540021AD EQ PUSH2 0x9F JUMPI DUP1 PUSH4 0x81D12C58 EQ PUSH2 0xC9 JUMPI DUP1 PUSH4 0xA4DE13E5 EQ PUSH2 0x110 JUMPI DUP1 PUSH4 0xB45243DC EQ PUSH2 0x14C JUMPI DUP1 PUSH4 0xB7AAEB4D EQ PUSH2 0x188 JUMPI JUMPDEST PUSH0 DUP1 REVERT JUMPDEST CALLVALUE DUP1 ISZERO PUSH2 0xAA JUMPI PUSH0 DUP1 REVERT JUMPDEST POP PUSH2 0xB3 PUSH2 0x298 JUMP JUMPDEST PUSH1 0x40 MLOAD PUSH2 0xC0 SWAP2 SWAP1 PUSH2 0x160D JUMP JUMPDEST PUSH1 0x40 MLOAD DUP1 SWAP2 SUB SWAP1 RETURN JUMPDEST CALLVALUE DUP1 ISZERO PUSH2 0xD4 JUMPI PUSH0 DUP1 REVERT JUMPDEST POP PUSH2 0xEF PUSH1 0x4 DUP1 CALLDATASIZE SUB DUP2 ADD SWAP1 PUSH2 0xEA SWAP2 SWAP1 PUSH2 0x1661 JUMP JUMPDEST PUSH2 0x29E JUMP JUMPDEST PUSH1 0x40 MLOAD PUSH2 0x107 SWAP13 SWAP12 SWAP11 SWAP10 SWAP9 SWAP8 SWAP7 SWAP6 SWAP5 SWAP4 SWAP3 SWAP2 SWAP1 PUSH2 0x1755 JUMP JUMPDEST PUSH1 0x40 MLOAD DUP1 SWAP2 SUB SWAP1 RETURN JUMPDEST CALLVALUE DUP1 ISZERO PUSH2 0x11B JUMPI PUSH0 DUP1 REVERT JUMPDEST POP PUSH2 0x136 PUSH1 0x4 DUP1 CALLDATASIZE SUB DUP2 ADD SWAP1 PUSH2 0x131 SWAP2 SWAP1 PUSH2 0x1661 JUMP JUMPDEST PUSH2 0x4C4 JUMP JUMPDEST PUSH1 0x40 MLOAD PUSH2 0x143 SWAP2 SWAP1 PUSH2 0x1822 JUMP JUMPDEST PUSH1 0x40 MLOAD DUP1 SWAP2 SUB SWAP1 RETURN JUMPDEST CALLVALUE DUP1 ISZERO PUSH2 0x157 JUMPI PUSH0 DUP1 REVERT JUMPDEST POP PUSH2 0x172 PUSH1 0x4 DUP1 CALLDATASIZE SUB DUP2 ADD SWAP1 PUSH2 0x16D SWAP2 SWAP1 PUSH2 0x183B JUMP JUMPDEST PUSH2 0x4FF JUMP JUMPDEST PUSH1 0x40 MLOAD PUSH2 0x17F SWAP2 SWAP1 PUSH2 0x1AB8 JUMP JUMPDEST PUSH1 0x40 MLOAD DUP1 SWAP2 SUB SWAP1 RETURN JUMPDEST CALLVALUE DUP1 ISZERO PUSH2 0x193 JUMPI PUSH0 DUP1 REVERT JUMPDEST POP PUSH2 0x1AE PUSH1 0x4 DUP1 CALLDATASIZE SUB DUP2 ADD SWAP1 PUSH2 0x1A9 SWAP2 SWAP1 PUSH2 0x1661 JUMP JUMPDEST PUSH2 0x945 JUMP JUMPDEST STOP JUMPDEST CALLVALUE DUP1 ISZERO PUSH2 0x1BB JUMPI PUSH0 DUP1 REVERT JUMPDEST POP PUSH2 0x1C4 PUSH2 0xA03 JUMP JUMPDEST PUSH1 0x40 MLOAD PUSH2 0x1D1 SWAP2 SWAP1 PUSH2 0x160D JUMP JUMPDEST PUSH1 0x40 MLOAD DUP1 SWAP2 SUB SWAP1 RETURN JUMPDEST CALLVALUE DUP1 ISZERO PUSH2 0x1E5 JUMPI PUSH0 DUP1 REVERT JUMPDEST POP PUSH2 0x200 PUSH1 0x4 DUP1 CALLDATASIZE SUB DUP2 ADD SWAP1 PUSH2 0x1FB SWAP2 SWAP1 PUSH2 0x1C04 JUMP JUMPDEST PUSH2 0xA08 JUMP JUMPDEST STOP JUMPDEST CALLVALUE DUP1 ISZERO PUSH2 0x20D JUMPI PUSH0 DUP1 REVERT JUMPDEST POP PUSH2 0x228 PUSH1 0x4 DUP1 CALLDATASIZE SUB DUP2 ADD SWAP1 PUSH2 0x223 SWAP2 SWAP1 PUSH2 0x1CF9 JUMP JUMPDEST PUSH2 0xE78 JUMP JUMPDEST STOP JUMPDEST CALLVALUE DUP1 ISZERO PUSH2 0x235 JUMPI PUSH0 DUP1 REVERT JUMPDEST POP PUSH2 0x250 PUSH1 0x4 DUP1 CALLDATASIZE SUB DUP2 ADD SWAP1 PUSH2 0x24B SWAP2 SWAP1 PUSH2 0x1661 JUMP JUMPDEST PUSH2 0x10E8 JUMP JUMPDEST STOP JUMPDEST PUSH2 0x26C PUSH1 0x4 DUP1 CALLDATASIZE SUB DUP2 ADD SWAP1 PUSH2 0x267 SWAP2 SWAP1 PUSH2 0x1661 JUMP JUMPDEST PUSH2 0x131C JUMP JUMPDEST STOP JUMPDEST CALLVALUE DUP1 ISZERO PUSH2 0x279 JUMPI PUSH0 DUP1 REVERT JUMPDEST POP PUSH2 0x282 PUSH2 0x155E JUMP JUMPDEST PUSH1 0x40 MLOAD PUSH2 0x28F SWAP2 SWAP1 PUSH2 0x1822 JUMP JUMPDEST PUSH1 0x40 MLOAD DUP1 SWAP2 SUB SWAP1 RETURN JUMPDEST PUSH1 0x4 SLOAD DUP2 JUMP JUMPDEST PUSH1 0x1 PUSH1 0x20 MSTORE DUP1 PUSH0 MSTORE PUSH1 0x40 PUSH0 KECCAK256 PUSH0 SWAP2 POP SWAP1 POP DUP1 PUSH0 ADD SLOAD SWAP1 DUP1 PUSH1 0x1 ADD PUSH0 SWAP1 SLOAD SWAP1 PUSH2 0x100 EXP SWAP1 DIV PUSH20 0xFFFFFFFFFFFFFFFFFFFFFFFFFFFFFFFFFFFFFFFF AND SWAP1 DUP1 PUSH1 0x2 ADD DUP1 SLOAD PUSH2 0x2E8 SWAP1 PUSH2 0x1D51 JUMP JUMPDEST DUP1 PUSH1 0x1F ADD PUSH1 0x20 DUP1 SWAP2 DIV MUL PUSH1 0x20 ADD PUSH1 0x40 MLOAD SWAP1 DUP2 ADD PUSH1 0x40 MSTORE DUP1 SWAP3 SWAP2 SWAP1 DUP2 DUP2 MSTORE PUSH1 0x20 ADD DUP3 DUP1 SLOAD PUSH2 0x314 SWAP1 PUSH2 0x1D51 JUMP JUMPDEST DUP1 ISZERO PUSH2 0x35F JUMPI DUP1 PUSH1 0x1F LT PUSH2 0x336 JUMPI PUSH2 0x100 DUP1 DUP4 SLOAD DIV MUL DUP4 MSTORE SWAP2 PUSH1 0x20 ADD SWAP2 PUSH2 0x35F JUMP JUMPDEST DUP3 ADD SWAP2 SWAP1 PUSH0 MSTORE PUSH1 0x20 PUSH0 KECCAK256 SWAP1 JUMPDEST DUP2 SLOAD DUP2 MSTORE SWAP1 PUSH1 0x1 ADD SWAP1 PUSH1 0x20 ADD DUP1 DUP4 GT PUSH2 0x342 JUMPI DUP3 SWAP1 SUB PUSH1 0x1F AND DUP3 ADD SWAP2 JUMPDEST POP POP POP POP POP SWAP1 DUP1 PUSH1 0x3 ADD DUP1 SLOAD PUSH2 0x374 SWAP1 PUSH2 0x1D51 JUMP JUMPDEST DUP1 PUSH1 0x1F ADD PUSH1 0x20 DUP1 SWAP2 DIV MUL PUSH1 0x20 ADD PUSH1 0x40 MLOAD SWAP1 DUP2 ADD PUSH1 0x40 MSTORE DUP1 SWAP3 SWAP2 SWAP1 DUP2 DUP2 MSTORE PUSH1 0x20 ADD DUP3 DUP1 SLOAD PUSH2 0x3A0 SWAP1 PUSH2 0x1D51 JUMP JUMPDEST DUP1 ISZERO PUSH2 0x3EB JUMPI DUP1 PUSH1 0x1F LT PUSH2 0x3C2 JUMPI PUSH2 0x100 DUP1 DUP4 SLOAD DIV MUL DUP4 MSTORE SWAP2 PUSH1 0x20 ADD SWAP2 PUSH2 0x3EB JUMP JUMPDEST DUP3 ADD SWAP2 SWAP1 PUSH0 MSTORE PUSH1 0x20 PUSH0 KECCAK256 SWAP1 JUMPDEST DUP2 SLOAD DUP2 MSTORE SWAP1 PUSH1 0x1 ADD SWAP1 PUSH1 0x20 ADD DUP1 DUP4 GT PUSH2 0x3CE JUMPI DUP3 SWAP1 SUB PUSH1 0x1F AND DUP3 ADD SWAP2 JUMPDEST POP POP POP POP POP SWAP1 DUP1 PUSH1 0x4 ADD DUP1 SLOAD PUSH2 0x400 SWAP1 PUSH2 0x1D51 JUMP JUMPDEST DUP1 PUSH1 0x1F ADD PUSH1 0x20 DUP1 SWAP2 DIV MUL PUSH1 0x20 ADD PUSH1 0x40 MLOAD SWAP1 DUP2 ADD PUSH1 0x40 MSTORE DUP1 SWAP3 SWAP2 SWAP1 DUP2 DUP2 MSTORE PUSH1 0x20 ADD DUP3 DUP1 SLOAD PUSH2 0x42C SWAP1 PUSH2 0x1D51 JUMP JUMPDEST DUP1 ISZERO PUSH2 0x477 JUMPI DUP1 PUSH1 0x1F LT PUSH2 0x44E JUMPI PUSH2 0x100 DUP1 DUP4 SLOAD DIV MUL DUP4 MSTORE SWAP2 PUSH1 0x20 ADD SWAP2 PUSH2 0x477 JUMP JUMPDEST DUP3 ADD SWAP2 SWAP1 PUSH0 MSTORE PUSH1 0x20 PUSH0 KECCAK256 SWAP1 JUMPDEST DUP2 SLOAD DUP2 MSTORE SWAP1 PUSH1 0x1 ADD SWAP1 PUSH1 0x20 ADD DUP1 DUP4 GT PUSH2 0x45A JUMPI DUP3 SWAP1 SUB PUSH1 0x1F AND DUP3 ADD SWAP2 JUMPDEST POP POP POP POP POP SWAP1 DUP1 PUSH1 0x5 ADD SLOAD SWAP1 DUP1 PUSH1 0x6 ADD SLOAD SWAP1 DUP1 PUSH1 0x7 ADD SLOAD SWAP1 DUP1 PUSH1 0x8 ADD SLOAD SWAP1 DUP1 PUSH1 0x9 ADD PUSH0 SWAP1 SLOAD SWAP1 PUSH2 0x100 EXP SWAP1 DIV PUSH1 0xFF AND SWAP1 DUP1 PUSH1 0x9 ADD PUSH1 0x1 SWAP1 SLOAD SWAP1 PUSH2 0x100 EXP SWAP1 DIV PUSH1 0xFF AND SWAP1 DUP1 PUSH1 0xA ADD SLOAD SWAP1 POP DUP13 JUMP JUMPDEST PUSH1 0x3 DUP2 DUP2 SLOAD DUP2 LT PUSH2 0x4D3 JUMPI PUSH0 DUP1 REVERT JUMPDEST SWAP1 PUSH0 MSTORE PUSH1 0x20 PUSH0 KECCAK256 ADD PUSH0 SWAP2 POP SLOAD SWAP1 PUSH2 0x100 EXP SWAP1 DIV PUSH20 0xFFFFFFFFFFFFFFFFFFFFFFFFFFFFFFFFFFFFFFFF AND DUP2 JUMP JUMPDEST PUSH1 0x60 PUSH0 JUMPDEST PUSH1 0x3 DUP1 SLOAD SWAP1 POP DUP2 LT ISZERO PUSH2 0x5C6 JUMPI PUSH1 0x3 DUP2 DUP2 SLOAD DUP2 LT PUSH2 0x524 JUMPI PUSH2 0x523 PUSH2 0x1D81 JUMP JUMPDEST JUMPDEST SWAP1 PUSH0 MSTORE PUSH1 0x20 PUSH0 KECCAK256 ADD PUSH0 SWAP1 SLOAD SWAP1 PUSH2 0x100 EXP SWAP1 DIV PUSH20 0xFFFFFFFFFFFFFFFFFFFFFFFFFFFFFFFFFFFFFFFF AND PUSH20 0xFFFFFFFFFFFFFFFFFFFFFFFFFFFFFFFFFFFFFFFF AND CALLER PUSH20 0xFFFFFFFFFFFFFFFFFFFFFFFFFFFFFFFFFFFFFFFF AND SUB PUSH2 0x5B9 JUMPI PUSH1 0x40 MLOAD PUSH32 0x8C379A000000000000000000000000000000000000000000000000000000000 DUP2 MSTORE PUSH1 0x4 ADD PUSH2 0x5B0 SWAP1 PUSH2 0x1DF8 JUMP JUMPDEST PUSH1 0x40 MLOAD DUP1 SWAP2 SUB SWAP1 REVERT JUMPDEST DUP1 DUP1 PUSH1 0x1 ADD SWAP2 POP POP PUSH2 0x503 JUMP JUMPDEST POP PUSH0 SLOAD DUP3 GT ISZERO PUSH2 0x5D5 JUMPI PUSH0 SLOAD SWAP2 POP JUMPDEST PUSH0 DUP3 PUSH8 0xFFFFFFFFFFFFFFFF DUP2 GT ISZERO PUSH2 0x5F0 JUMPI PUSH2 0x5EF PUSH2 0x1AE0 JUMP JUMPDEST JUMPDEST PUSH1 0x40 MLOAD SWAP1 DUP1 DUP3 MSTORE DUP1 PUSH1 0x20 MUL PUSH1 0x20 ADD DUP3 ADD PUSH1 0x40 MSTORE DUP1 ISZERO PUSH2 0x629 JUMPI DUP2 PUSH1 0x20 ADD JUMPDEST PUSH2 0x616 PUSH2 0x1583 JUMP JUMPDEST DUP2 MSTORE PUSH1 0x20 ADD SWAP1 PUSH1 0x1 SWAP1 SUB SWAP1 DUP2 PUSH2 0x60E JUMPI SWAP1 POP JUMPDEST POP SWAP1 POP PUSH0 DUP5 SWAP1 POP PUSH0 JUMPDEST PUSH1 0x1 PUSH0 DUP4 DUP2 MSTORE PUSH1 0x20 ADD SWAP1 DUP2 MSTORE PUSH1 0x20 ADD PUSH0 KECCAK256 PUSH1 0x9 ADD PUSH0 SWAP1 SLOAD SWAP1 PUSH2 0x100 EXP SWAP1 DIV PUSH1 0xFF AND ISZERO PUSH2 0x917 JUMPI PUSH1 0x1 PUSH0 DUP4 DUP2 MSTORE PUSH1 0x20 ADD SWAP1 DUP2 MSTORE PUSH1 0x20 ADD PUSH0 KECCAK256 PUSH1 0x40 MLOAD DUP1 PUSH2 0x180 ADD PUSH1 0x40 MSTORE SWAP1 DUP2 PUSH0 DUP3 ADD SLOAD DUP2 MSTORE PUSH1 0x20 ADD PUSH1 0x1 DUP3 ADD PUSH0 SWAP1 SLOAD SWAP1 PUSH2 0x100 EXP SWAP1 DIV PUSH20 0xFFFFFFFFFFFFFFFFFFFFFFFFFFFFFFFFFFFFFFFF AND PUSH20 0xFFFFFFFFFFFFFFFFFFFFFFFFFFFFFFFFFFFFFFFF AND PUSH20 0xFFFFFFFFFFFFFFFFFFFFFFFFFFFFFFFFFFFFFFFF AND DUP2 MSTORE PUSH1 0x20 ADD PUSH1 0x2 DUP3 ADD DUP1 SLOAD PUSH2 0x6E3 SWAP1 PUSH2 0x1D51 JUMP JUMPDEST DUP1 PUSH1 0x1F ADD PUSH1 0x20 DUP1 SWAP2 DIV MUL PUSH1 0x20 ADD PUSH1 0x40 MLOAD SWAP1 DUP2 ADD PUSH1 0x40 MSTORE DUP1 SWAP3 SWAP2 SWAP1 DUP2 DUP2 MSTORE PUSH1 0x20 ADD DUP3 DUP1 SLOAD PUSH2 0x70F SWAP1 PUSH2 0x1D51 JUMP JUMPDEST DUP1 ISZERO PUSH2 0x75A JUMPI DUP1 PUSH1 0x1F LT PUSH2 0x731 JUMPI PUSH2 0x100 DUP1 DUP4 SLOAD DIV MUL DUP4 MSTORE SWAP2 PUSH1 0x20 ADD SWAP2 PUSH2 0x75A JUMP JUMPDEST DUP3 ADD SWAP2 SWAP1 PUSH0 MSTORE PUSH1 0x20 PUSH0 KECCAK256 SWAP1 JUMPDEST DUP2 SLOAD DUP2 MSTORE SWAP1 PUSH1 0x1 ADD SWAP1 PUSH1 0x20 ADD DUP1 DUP4 GT PUSH2 0x73D JUMPI DUP3 SWAP1 SUB PUSH1 0x1F AND DUP3 ADD SWAP2 JUMPDEST POP POP POP POP POP DUP2 MSTORE PUSH1 0x20 ADD PUSH1 0x3 DUP3 ADD DUP1 SLOAD PUSH2 0x773 SWAP1 PUSH2 0x1D51 JUMP JUMPDEST DUP1 PUSH1 0x1F ADD PUSH1 0x20 DUP1 SWAP2 DIV MUL PUSH1 0x20 ADD PUSH1 0x40 MLOAD SWAP1 DUP2 ADD PUSH1 0x40 MSTORE DUP1 SWAP3 SWAP2 SWAP1 DUP2 DUP2 MSTORE PUSH1 0x20 ADD DUP3 DUP1 SLOAD PUSH2 0x79F SWAP1 PUSH2 0x1D51 JUMP JUMPDEST DUP1 ISZERO PUSH2 0x7EA JUMPI DUP1 PUSH1 0x1F LT PUSH2 0x7C1 JUMPI PUSH2 0x100 DUP1 DUP4 SLOAD DIV MUL DUP4 MSTORE SWAP2 PUSH1 0x20 ADD SWAP2 PUSH2 0x7EA JUMP JUMPDEST DUP3 ADD SWAP2 SWAP1 PUSH0 MSTORE PUSH1 0x20 PUSH0 KECCAK256 SWAP1 JUMPDEST DUP2 SLOAD DUP2 MSTORE SWAP1 PUSH1 0x1 ADD SWAP1 PUSH1 0x20 ADD DUP1 DUP4 GT PUSH2 0x7CD JUMPI DUP3 SWAP1 SUB PUSH1 0x1F AND DUP3 ADD SWAP2 JUMPDEST POP POP POP POP POP DUP2 MSTORE PUSH1 0x20 ADD PUSH1 0x4 DUP3 ADD DUP1 SLOAD PUSH2 0x803 SWAP1 PUSH2 0x1D51 JUMP JUMPDEST DUP1 PUSH1 0x1F ADD PUSH1 0x20 DUP1 SWAP2 DIV MUL PUSH1 0x20 ADD PUSH1 0x40 MLOAD SWAP1 DUP2 ADD PUSH1 0x40 MSTORE DUP1 SWAP3 SWAP2 SWAP1 DUP2 DUP2 MSTORE PUSH1 0x20 ADD DUP3 DUP1 SLOAD PUSH2 0x82F SWAP1 PUSH2 0x1D51 JUMP JUMPDEST DUP1 ISZERO PUSH2 0x87A JUMPI DUP1 PUSH1 0x1F LT PUSH2 0x851 JUMPI PUSH2 0x100 DUP1 DUP4 SLOAD DIV MUL DUP4 MSTORE SWAP2 PUSH1 0x20 ADD SWAP2 PUSH2 0x87A JUMP JUMPDEST DUP3 ADD SWAP2 SWAP1 PUSH0 MSTORE PUSH1 0x20 PUSH0 KECCAK256 SWAP1 JUMPDEST DUP2 SLOAD DUP2 MSTORE SWAP1 PUSH1 0x1 ADD SWAP1 PUSH1 0x20 ADD DUP1 DUP4 GT PUSH2 0x85D JUMPI DUP3 SWAP1 SUB PUSH1 0x1F AND DUP3 ADD SWAP2 JUMPDEST POP POP POP POP POP DUP2 MSTORE PUSH1 0x20 ADD PUSH1 0x5 DUP3 ADD SLOAD DUP2 MSTORE PUSH1 0x20 ADD PUSH1 0x6 DUP3 ADD SLOAD DUP2 MSTORE PUSH1 0x20 ADD PUSH1 0x7 DUP3 ADD SLOAD DUP2 MSTORE PUSH1 0x20 ADD PUSH1 0x8 DUP3 ADD SLOAD DUP2 MSTORE PUSH1 0x20 ADD PUSH1 0x9 DUP3 ADD PUSH0 SWAP1 SLOAD SWAP1 PUSH2 0x100 EXP SWAP1 DIV PUSH1 0xFF AND ISZERO ISZERO ISZERO ISZERO DUP2 MSTORE PUSH1 0x20 ADD PUSH1 0x9 DUP3 ADD PUSH1 0x1 SWAP1 SLOAD SWAP1 PUSH2 0x100 EXP SWAP1 DIV PUSH1 0xFF AND ISZERO ISZERO ISZERO ISZERO DUP2 MSTORE PUSH1 0x20 ADD PUSH1 0xA DUP3 ADD SLOAD DUP2 MSTORE POP POP DUP4 DUP3 DUP2 MLOAD DUP2 LT PUSH2 0x8FD JUMPI PUSH2 0x8FC PUSH2 0x1D81 JUMP JUMPDEST JUMPDEST PUSH1 0x20 MUL PUSH1 0x20 ADD ADD DUP2 SWAP1 MSTORE POP DUP1 DUP1 PUSH2 0x913 SWAP1 PUSH2 0x1E43 JUMP JUMPDEST SWAP2 POP POP JUMPDEST DUP2 DUP1 PUSH2 0x922 SWAP1 PUSH2 0x1E43 JUMP JUMPDEST SWAP3 POP POP DUP5 DUP2 LT DUP1 ISZERO PUSH2 0x935 JUMPI POP PUSH0 SLOAD DUP3 GT ISZERO JUMPDEST PUSH2 0x632 JUMPI DUP3 SWAP4 POP POP POP POP SWAP3 SWAP2 POP POP JUMP JUMPDEST PUSH1 0x2 PUSH0 SWAP1 SLOAD SWAP1 PUSH2 0x100 EXP SWAP1 DIV PUSH20 0xFFFFFFFFFFFFFFFFFFFFFFFFFFFFFFFFFFFFFFFF AND PUSH20 0xFFFFFFFFFFFFFFFFFFFFFFFFFFFFFFFFFFFFFFFF AND CALLER PUSH20 0xFFFFFFFFFFFFFFFFFFFFFFFFFFFFFFFFFFFFFFFF AND EQ PUSH2 0x9D4 JUMPI PUSH1 0x40 MLOAD PUSH32 0x8C379A000000000000000000000000000000000000000000000000000000000 DUP2 MSTORE PUSH1 0x4 ADD PUSH2 0x9CB SWAP1 PUSH2 0x1EFA JUMP JUMPDEST PUSH1 0x40 MLOAD DUP1 SWAP2 SUB SWAP1 REVERT JUMPDEST PUSH1 0x1 DUP1 PUSH0 DUP4 DUP2 MSTORE PUSH1 0x20 ADD SWAP1 DUP2 MSTORE PUSH1 0x20 ADD PUSH0 KECCAK256 PUSH1 0x9 ADD PUSH1 0x1 PUSH2 0x100 EXP DUP2 SLOAD DUP2 PUSH1 0xFF MUL NOT AND SWAP1 DUP4 ISZERO ISZERO MUL OR SWAP1 SSTORE POP POP JUMP JUMPDEST PUSH0 SLOAD DUP2 JUMP JUMPDEST PUSH0 DUP2 GT DUP1 ISZERO PUSH2 0xA16 JUMPI POP PUSH0 DUP3 GT JUMPDEST PUSH2 0xA55 JUMPI PUSH1 0x40 MLOAD PUSH32 0x8C379A000000000000000000000000000000000000000000000000000000000 DUP2 MSTORE PUSH1 0x4 ADD PUSH2 0xA4C SWAP1 PUSH2 0x1F62 JUMP JUMPDEST PUSH1 0x40 MLOAD DUP1 SWAP2 SUB SWAP1 REVERT JUMPDEST PUSH0 JUMPDEST PUSH1 0x3 DUP1 SLOAD SWAP1 POP DUP2 LT ISZERO PUSH2 0xB1A JUMPI PUSH1 0x3 DUP2 DUP2 SLOAD DUP2 LT PUSH2 0xA78 JUMPI PUSH2 0xA77 PUSH2 0x1D81 JUMP JUMPDEST JUMPDEST SWAP1 PUSH0 MSTORE PUSH1 0x20 PUSH0 KECCAK256 ADD PUSH0 SWAP1 SLOAD SWAP1 PUSH2 0x100 EXP SWAP1 DIV PUSH20 0xFFFFFFFFFFFFFFFFFFFFFFFFFFFFFFFFFFFFFFFF AND PUSH20 0xFFFFFFFFFFFFFFFFFFFFFFFFFFFFFFFFFFFFFFFF AND CALLER PUSH20 0xFFFFFFFFFFFFFFFFFFFFFFFFFFFFFFFFFFFFFFFF AND SUB PUSH2 0xB0D JUMPI PUSH1 0x40 MLOAD PUSH32 0x8C379A000000000000000000000000000000000000000000000000000000000 DUP2 MSTORE PUSH1 0x4 ADD PUSH2 0xB04 SWAP1 PUSH2 0x1DF8 JUMP JUMPDEST PUSH1 0x40 MLOAD DUP1 SWAP2 SUB SWAP1 REVERT JUMPDEST DUP1 DUP1 PUSH1 0x1 ADD SWAP2 POP POP PUSH2 0xA57 JUMP JUMPDEST POP PUSH0 DUP1 DUP2 SLOAD DUP1 SWAP3 SWAP2 SWAP1 PUSH2 0xB2C SWAP1 PUSH2 0x1E43 JUMP JUMPDEST SWAP2 SWAP1 POP SSTORE POP PUSH1 0x40 MLOAD DUP1 PUSH2 0x180 ADD PUSH1 0x40 MSTORE DUP1 PUSH0 SLOAD DUP2 MSTORE PUSH1 0x20 ADD CALLER PUSH20 0xFFFFFFFFFFFFFFFFFFFFFFFFFFFFFFFFFFFFFFFF AND DUP2 MSTORE PUSH1 0x20 ADD DUP7 DUP2 MSTORE PUSH1 0x20 ADD DUP6 DUP2 MSTORE PUSH1 0x20 ADD DUP5 DUP2 MSTORE PUSH1 0x20 ADD TIMESTAMP DUP2 MSTORE PUSH1 0x20 ADD DUP4 DUP2 MSTORE PUSH1 0x20 ADD PUSH0 DUP2 MSTORE PUSH1 0x20 ADD PUSH0 DUP2 MSTORE PUSH1 0x20 ADD PUSH1 0x1 ISZERO ISZERO DUP2 MSTORE PUSH1 0x20 ADD PUSH0 ISZERO ISZERO DUP2 MSTORE PUSH1 0x20 ADD DUP3 DUP2 MSTORE POP PUSH1 0x1 PUSH0 DUP1 SLOAD DUP2 MSTORE PUSH1 0x20 ADD SWAP1 DUP2 MSTORE PUSH1 0x20 ADD PUSH0 KECCAK256 PUSH0 DUP3 ADD MLOAD DUP2 PUSH0 ADD SSTORE PUSH1 0x20 DUP3 ADD MLOAD DUP2 PUSH1 0x1 ADD PUSH0 PUSH2 0x100 EXP DUP2 SLOAD DUP2 PUSH20 0xFFFFFFFFFFFFFFFFFFFFFFFFFFFFFFFFFFFFFFFF MUL NOT AND SWAP1 DUP4 PUSH20 0xFFFFFFFFFFFFFFFFFFFFFFFFFFFFFFFFFFFFFFFF AND MUL OR SWAP1 SSTORE POP PUSH1 0x40 DUP3 ADD MLOAD DUP2 PUSH1 0x2 ADD SWAP1 DUP2 PUSH2 0xC14 SWAP2 SWAP1 PUSH2 0x211D JUMP JUMPDEST POP PUSH1 0x60 DUP3 ADD MLOAD DUP2 PUSH1 0x3 ADD SWAP1 DUP2 PUSH2 0xC2A SWAP2 SWAP1 PUSH2 0x211D JUMP JUMPDEST POP PUSH1 0x80 DUP3 ADD MLOAD DUP2 PUSH1 0x4 ADD SWAP1 DUP2 PUSH2 0xC40 SWAP2 SWAP1 PUSH2 0x211D JUMP JUMPDEST POP PUSH1 0xA0 DUP3 ADD MLOAD DUP2 PUSH1 0x5 ADD SSTORE PUSH1 0xC0 DUP3 ADD MLOAD DUP2 PUSH1 0x6 ADD SSTORE PUSH1 0xE0 DUP3 ADD MLOAD DUP2 PUSH1 0x7 ADD SSTORE PUSH2 0x100 DUP3 ADD MLOAD DUP2 PUSH1 0x8 ADD SSTORE PUSH2 0x120 DUP3 ADD MLOAD DUP2 PUSH1 0x9 ADD PUSH0 PUSH2 0x100 EXP DUP2 SLOAD DUP2 PUSH1 0xFF MUL NOT AND SWAP1 DUP4 ISZERO ISZERO MUL OR SWAP1 SSTORE POP PUSH2 0x140 DUP3 ADD MLOAD DUP2 PUSH1 0x9 ADD PUSH1 0x1 PUSH2 0x100 EXP DUP2 SLOAD DUP2 PUSH1 0xFF MUL NOT AND SWAP1 DUP4 ISZERO ISZERO MUL OR SWAP1 SSTORE POP PUSH2 0x160 DUP3 ADD MLOAD DUP2 PUSH1 0xA ADD SSTORE SWAP1 POP POP PUSH1 0x1 PUSH0 SLOAD GT ISZERO PUSH2 0xE71 JUMPI PUSH0 PUSH2 0xCDB PUSH1 0x1 DUP1 PUSH0 SLOAD PUSH2 0xCD6 SWAP2 SWAP1 PUSH2 0x21EC JUMP JUMPDEST PUSH2 0x4FF JUMP JUMPDEST SWAP1 POP PUSH0 JUMPDEST DUP2 MLOAD DUP2 LT ISZERO PUSH2 0xE6E JUMPI CALLER PUSH20 0xFFFFFFFFFFFFFFFFFFFFFFFFFFFFFFFFFFFFFFFF AND DUP3 DUP3 DUP2 MLOAD DUP2 LT PUSH2 0xD12 JUMPI PUSH2 0xD11 PUSH2 0x1D81 JUMP JUMPDEST JUMPDEST PUSH1 0x20 MUL PUSH1 0x20 ADD ADD MLOAD PUSH1 0x20 ADD MLOAD PUSH20 0xFFFFFFFFFFFFFFFFFFFFFFFFFFFFFFFFFFFFFFFF AND EQ ISZERO DUP1 ISZERO PUSH2 0xDAC JUMPI POP DUP7 PUSH1 0x40 MLOAD PUSH1 0x20 ADD PUSH2 0xD4E SWAP2 SWAP1 PUSH2 0x2259 JUMP JUMPDEST PUSH1 0x40 MLOAD PUSH1 0x20 DUP2 DUP4 SUB SUB DUP2 MSTORE SWAP1 PUSH1 0x40 MSTORE DUP1 MLOAD SWAP1 PUSH1 0x20 ADD KECCAK256 DUP3 DUP3 DUP2 MLOAD DUP2 LT PUSH2 0xD77 JUMPI PUSH2 0xD76 PUSH2 0x1D81 JUMP JUMPDEST JUMPDEST PUSH1 0x20 MUL PUSH1 0x20 ADD ADD MLOAD PUSH1 0x40 ADD MLOAD PUSH1 0x40 MLOAD PUSH1 0x20 ADD PUSH2 0xD93 SWAP2 SWAP1 PUSH2 0x2259 JUMP JUMPDEST PUSH1 0x40 MLOAD PUSH1 0x20 DUP2 DUP4 SUB SUB DUP2 MSTORE SWAP1 PUSH1 0x40 MSTORE DUP1 MLOAD SWAP1 PUSH1 0x20 ADD KECCAK256 EQ ISZERO JUMPDEST DUP1 ISZERO PUSH2 0xE22 JUMPI POP DUP6 PUSH1 0x40 MLOAD PUSH1 0x20 ADD PUSH2 0xDC4 SWAP2 SWAP1 PUSH2 0x2259 JUMP JUMPDEST PUSH1 0x40 MLOAD PUSH1 0x20 DUP2 DUP4 SUB SUB DUP2 MSTORE SWAP1 PUSH1 0x40 MSTORE DUP1 MLOAD SWAP1 PUSH1 0x20 ADD KECCAK256 DUP3 DUP3 DUP2 MLOAD DUP2 LT PUSH2 0xDED JUMPI PUSH2 0xDEC PUSH2 0x1D81 JUMP JUMPDEST JUMPDEST PUSH1 0x20 MUL PUSH1 0x20 ADD ADD MLOAD PUSH1 0x60 ADD MLOAD PUSH1 0x40 MLOAD PUSH1 0x20 ADD PUSH2 0xE09 SWAP2 SWAP1 PUSH2 0x2259 JUMP JUMPDEST PUSH1 0x40 MLOAD PUSH1 0x20 DUP2 DUP4 SUB SUB DUP2 MSTORE SWAP1 PUSH1 0x40 MSTORE DUP1 MLOAD SWAP1 PUSH1 0x20 ADD KECCAK256 EQ ISZERO JUMPDEST PUSH2 0xE61 JUMPI PUSH1 0x40 MLOAD PUSH32 0x8C379A000000000000000000000000000000000000000000000000000000000 DUP2 MSTORE PUSH1 0x4 ADD PUSH2 0xE58 SWAP1 PUSH2 0x22DF JUMP JUMPDEST PUSH1 0x40 MLOAD DUP1 SWAP2 SUB SWAP1 REVERT JUMPDEST DUP1 DUP1 PUSH1 0x1 ADD SWAP2 POP POP PUSH2 0xCDF JUMP JUMPDEST POP POP JUMPDEST POP POP POP POP POP JUMP JUMPDEST PUSH1 0x2 PUSH0 SWAP1 SLOAD SWAP1 PUSH2 0x100 EXP SWAP1 DIV PUSH20 0xFFFFFFFFFFFFFFFFFFFFFFFFFFFFFFFFFFFFFFFF AND PUSH20 0xFFFFFFFFFFFFFFFFFFFFFFFFFFFFFFFFFFFFFFFF AND CALLER PUSH20 0xFFFFFFFFFFFFFFFFFFFFFFFFFFFFFFFFFFFFFFFF AND EQ PUSH2 0xF07 JUMPI PUSH1 0x40 MLOAD PUSH32 0x8C379A000000000000000000000000000000000000000000000000000000000 DUP2 MSTORE PUSH1 0x4 ADD PUSH2 0xEFE SWAP1 PUSH2 0x236D JUMP JUMPDEST PUSH1 0x40 MLOAD DUP1 SWAP2 SUB SWAP1 REVERT JUMPDEST PUSH1 0x4 PUSH0 DUP2 SLOAD DUP1 SWAP3 SWAP2 SWAP1 PUSH2 0xF19 SWAP1 PUSH2 0x1E43 JUMP JUMPDEST SWAP2 SWAP1 POP SSTORE POP PUSH0 JUMPDEST PUSH1 0x3 DUP1 SLOAD SWAP1 POP DUP2 LT ISZERO PUSH2 0xFE3 JUMPI PUSH1 0x3 DUP2 DUP2 SLOAD DUP2 LT PUSH2 0xF41 JUMPI PUSH2 0xF40 PUSH2 0x1D81 JUMP JUMPDEST JUMPDEST SWAP1 PUSH0 MSTORE PUSH1 0x20 PUSH0 KECCAK256 ADD PUSH0 SWAP1 SLOAD SWAP1 PUSH2 0x100 EXP SWAP1 DIV PUSH20 0xFFFFFFFFFFFFFFFFFFFFFFFFFFFFFFFFFFFFFFFF AND PUSH20 0xFFFFFFFFFFFFFFFFFFFFFFFFFFFFFFFFFFFFFFFF AND DUP3 PUSH20 0xFFFFFFFFFFFFFFFFFFFFFFFFFFFFFFFFFFFFFFFF AND SUB PUSH2 0xFD6 JUMPI PUSH1 0x40 MLOAD PUSH32 0x8C379A000000000000000000000000000000000000000000000000000000000 DUP2 MSTORE PUSH1 0x4 ADD PUSH2 0xFCD SWAP1 PUSH2 0x23D5 JUMP JUMPDEST PUSH1 0x40 MLOAD DUP1 SWAP2 SUB SWAP1 REVERT JUMPDEST DUP1 DUP1 PUSH1 0x1 ADD SWAP2 POP POP PUSH2 0xF20 JUMP JUMPDEST POP PUSH1 0x3 DUP2 SWAP1 DUP1 PUSH1 0x1 DUP2 SLOAD ADD DUP1 DUP3 SSTORE DUP1 SWAP2 POP POP PUSH1 0x1 SWAP1 SUB SWAP1 PUSH0 MSTORE PUSH1 0x20 PUSH0 KECCAK256 ADD PUSH0 SWAP1 SWAP2 SWAP1 SWAP2 SWAP1 SWAP2 PUSH2 0x100 EXP DUP2 SLOAD DUP2 PUSH20 0xFFFFFFFFFFFFFFFFFFFFFFFFFFFFFFFFFFFFFFFF MUL NOT AND SWAP1 DUP4 PUSH20 0xFFFFFFFFFFFFFFFFFFFFFFFFFFFFFFFFFFFFFFFF AND MUL OR SWAP1 SSTORE POP PUSH0 PUSH2 0x1051 PUSH1 0x1 PUSH0 SLOAD PUSH2 0x4FF JUMP JUMPDEST SWAP1 POP PUSH0 JUMPDEST DUP2 MLOAD DUP2 LT ISZERO PUSH2 0x10E3 JUMPI DUP2 DUP2 DUP2 MLOAD DUP2 LT PUSH2 0x1071 JUMPI PUSH2 0x1070 PUSH2 0x1D81 JUMP JUMPDEST JUMPDEST PUSH1 0x20 MUL PUSH1 0x20 ADD ADD MLOAD PUSH1 0x20 ADD MLOAD PUSH20 0xFFFFFFFFFFFFFFFFFFFFFFFFFFFFFFFFFFFFFFFF AND DUP4 PUSH20 0xFFFFFFFFFFFFFFFFFFFFFFFFFFFFFFFFFFFFFFFF AND SUB PUSH2 0x10D6 JUMPI PUSH2 0x10D5 DUP3 DUP3 DUP2 MLOAD DUP2 LT PUSH2 0x10C5 JUMPI PUSH2 0x10C4 PUSH2 0x1D81 JUMP JUMPDEST JUMPDEST PUSH1 0x20 MUL PUSH1 0x20 ADD ADD MLOAD PUSH0 ADD MLOAD PUSH2 0x10E8 JUMP JUMPDEST JUMPDEST DUP1 DUP1 PUSH1 0x1 ADD SWAP2 POP POP PUSH2 0x1055 JUMP JUMPDEST POP POP POP JUMP JUMPDEST PUSH0 PUSH1 0x1 PUSH0 DUP4 DUP2 MSTORE PUSH1 0x20 ADD SWAP1 DUP2 MSTORE PUSH1 0x20 ADD PUSH0 KECCAK256 PUSH1 0x1 ADD PUSH0 SWAP1 SLOAD SWAP1 PUSH2 0x100 EXP SWAP1 DIV PUSH20 0xFFFFFFFFFFFFFFFFFFFFFFFFFFFFFFFFFFFFFFFF AND SWAP1 POP PUSH0 PUSH1 0x1 PUSH0 DUP5 DUP2 MSTORE PUSH1 0x20 ADD SWAP1 DUP2 MSTORE PUSH1 0x20 ADD PUSH0 KECCAK256 PUSH1 0x7 ADD SLOAD SWAP1 POP PUSH0 PUSH1 0x1 PUSH0 DUP6 DUP2 MSTORE PUSH1 0x20 ADD SWAP1 DUP2 MSTORE PUSH1 0x20 ADD PUSH0 KECCAK256 PUSH1 0x6 ADD SLOAD SWAP1 POP PUSH1 0x1 PUSH0 DUP6 DUP2 MSTORE PUSH1 0x20 ADD SWAP1 DUP2 MSTORE PUSH1 0x20 ADD PUSH0 KECCAK256 PUSH1 0x9 ADD PUSH0 SWAP1 SLOAD SWAP1 PUSH2 0x100 EXP SWAP1 DIV PUSH1 0xFF AND DUP1 ISZERO PUSH2 0x1246 JUMPI POP DUP3 PUSH20 0xFFFFFFFFFFFFFFFFFFFFFFFFFFFFFFFFFFFFFFFF AND CALLER PUSH20 0xFFFFFFFFFFFFFFFFFFFFFFFFFFFFFFFFFFFFFFFF AND EQ DUP1 PUSH2 0x11B1 JUMPI POP DUP1 DUP3 LT ISZERO JUMPDEST DUP1 PUSH2 0x1208 JUMPI POP PUSH1 0x2 PUSH0 SWAP1 SLOAD SWAP1 PUSH2 0x100 EXP SWAP1 DIV PUSH20 0xFFFFFFFFFFFFFFFFFFFFFFFFFFFFFFFFFFFFFFFF AND PUSH20 0xFFFFFFFFFFFFFFFFFFFFFFFFFFFFFFFFFFFFFFFF AND CALLER PUSH20 0xFFFFFFFFFFFFFFFFFFFFFFFFFFFFFFFFFFFFFFFF AND EQ JUMPDEST DUP1 PUSH2 0x1245 JUMPI POP PUSH1 0x1 PUSH0 DUP6 DUP2 MSTORE PUSH1 0x20 ADD SWAP1 DUP2 MSTORE PUSH1 0x20 ADD PUSH0 KECCAK256 PUSH1 0xA ADD SLOAD PUSH1 0x1 PUSH0 DUP7 DUP2 MSTORE PUSH1 0x20 ADD SWAP1 DUP2 MSTORE PUSH1 0x20 ADD PUSH0 KECCAK256 PUSH1 0x5 ADD SLOAD PUSH2 0x1242 SWAP2 SWAP1 PUSH2 0x23F3 JUMP JUMPDEST TIMESTAMP GT JUMPDEST JUMPDEST PUSH2 0x1285 JUMPI PUSH1 0x40 MLOAD PUSH32 0x8C379A000000000000000000000000000000000000000000000000000000000 DUP2 MSTORE PUSH1 0x4 ADD PUSH2 0x127C SWAP1 PUSH2 0x2496 JUMP JUMPDEST PUSH1 0x40 MLOAD DUP1 SWAP2 SUB SWAP1 REVERT JUMPDEST PUSH0 PUSH1 0x1 PUSH0 DUP7 DUP2 MSTORE PUSH1 0x20 ADD SWAP1 DUP2 MSTORE PUSH1 0x20 ADD PUSH0 KECCAK256 PUSH1 0x9 ADD PUSH0 PUSH2 0x100 EXP DUP2 SLOAD DUP2 PUSH1 0xFF MUL NOT AND SWAP1 DUP4 ISZERO ISZERO MUL OR SWAP1 SSTORE POP PUSH0 DUP3 GT ISZERO PUSH2 0x1316 JUMPI PUSH0 PUSH1 0x1 PUSH0 DUP7 DUP2 MSTORE PUSH1 0x20 ADD SWAP1 DUP2 MSTORE PUSH1 0x20 ADD PUSH0 KECCAK256 PUSH1 0x7 ADD DUP2 SWAP1 SSTORE POP DUP3 PUSH20 0xFFFFFFFFFFFFFFFFFFFFFFFFFFFFFFFFFFFFFFFF AND PUSH2 0x8FC DUP4 SWAP1 DUP2 ISZERO MUL SWAP1 PUSH1 0x40 MLOAD PUSH0 PUSH1 0x40 MLOAD DUP1 DUP4 SUB DUP2 DUP6 DUP9 DUP9 CALL SWAP4 POP POP POP POP ISZERO DUP1 ISZERO PUSH2 0x1314 JUMPI RETURNDATASIZE PUSH0 DUP1 RETURNDATACOPY RETURNDATASIZE PUSH0 REVERT JUMPDEST POP JUMPDEST POP POP POP POP JUMP JUMPDEST PUSH0 JUMPDEST PUSH1 0x3 DUP1 SLOAD SWAP1 POP DUP2 LT ISZERO PUSH2 0x13E1 JUMPI PUSH1 0x3 DUP2 DUP2 SLOAD DUP2 LT PUSH2 0x133F JUMPI PUSH2 0x133E PUSH2 0x1D81 JUMP JUMPDEST JUMPDEST SWAP1 PUSH0 MSTORE PUSH1 0x20 PUSH0 KECCAK256 ADD PUSH0 SWAP1 SLOAD SWAP1 PUSH2 0x100 EXP SWAP1 DIV PUSH20 0xFFFFFFFFFFFFFFFFFFFFFFFFFFFFFFFFFFFFFFFF AND PUSH20 0xFFFFFFFFFFFFFFFFFFFFFFFFFFFFFFFFFFFFFFFF AND CALLER PUSH20 0xFFFFFFFFFFFFFFFFFFFFFFFFFFFFFFFFFFFFFFFF AND SUB PUSH2 0x13D4 JUMPI PUSH1 0x40 MLOAD PUSH32 0x8C379A000000000000000000000000000000000000000000000000000000000 DUP2 MSTORE PUSH1 0x4 ADD PUSH2 0x13CB SWAP1 PUSH2 0x1DF8 JUMP JUMPDEST PUSH1 0x40 MLOAD DUP1 SWAP2 SUB SWAP1 REVERT JUMPDEST DUP1 DUP1 PUSH1 0x1 ADD SWAP2 POP POP PUSH2 0x131E JUMP JUMPDEST POP PUSH1 0x1 PUSH0 DUP3 DUP2 MSTORE PUSH1 0x20 ADD SWAP1 DUP2 MSTORE PUSH1 0x20 ADD PUSH0 KECCAK256 PUSH1 0xA ADD SLOAD PUSH1 0x1 PUSH0 DUP4 DUP2 MSTORE PUSH1 0x20 ADD SWAP1 DUP2 MSTORE PUSH1 0x20 ADD PUSH0 KECCAK256 PUSH1 0x5 ADD SLOAD PUSH2 0x1416 SWAP2 SWAP1 PUSH2 0x23F3 JUMP JUMPDEST TIMESTAMP GT ISZERO PUSH2 0x142B JUMPI PUSH2 0x1426 DUP2 PUSH2 0x10E8 JUMP JUMPDEST PUSH2 0x155B JUMP JUMPDEST PUSH0 CALLVALUE SUB PUSH2 0x146D JUMPI PUSH1 0x40 MLOAD PUSH32 0x8C379A000000000000000000000000000000000000000000000000000000000 DUP2 MSTORE PUSH1 0x4 ADD PUSH2 0x1464 SWAP1 PUSH2 0x24FE JUMP JUMPDEST PUSH1 0x40 MLOAD DUP1 SWAP2 SUB SWAP1 REVERT JUMPDEST PUSH1 0x1 PUSH0 DUP3 DUP2 MSTORE PUSH1 0x20 ADD SWAP1 DUP2 MSTORE PUSH1 0x20 ADD PUSH0 KECCAK256 PUSH1 0x9 ADD PUSH1 0x1 SWAP1 SLOAD SWAP1 PUSH2 0x100 EXP SWAP1 DIV PUSH1 0xFF AND PUSH2 0x14CE JUMPI PUSH1 0x40 MLOAD PUSH32 0x8C379A000000000000000000000000000000000000000000000000000000000 DUP2 MSTORE PUSH1 0x4 ADD PUSH2 0x14C5 SWAP1 PUSH2 0x2566 JUMP JUMPDEST PUSH1 0x40 MLOAD DUP1 SWAP2 SUB SWAP1 REVERT JUMPDEST CALLVALUE PUSH1 0x1 PUSH0 DUP4 DUP2 MSTORE PUSH1 0x20 ADD SWAP1 DUP2 MSTORE PUSH1 0x20 ADD PUSH0 KECCAK256 PUSH1 0x7 ADD PUSH0 DUP3 DUP3 SLOAD PUSH2 0x14F1 SWAP2 SWAP1 PUSH2 0x23F3 JUMP JUMPDEST SWAP3 POP POP DUP2 SWAP1 SSTORE POP PUSH1 0x1 PUSH0 DUP3 DUP2 MSTORE PUSH1 0x20 ADD SWAP1 DUP2 MSTORE PUSH1 0x20 ADD PUSH0 KECCAK256 PUSH1 0x8 ADD PUSH0 DUP2 SLOAD DUP1 SWAP3 SWAP2 SWAP1 PUSH2 0x151C SWAP1 PUSH2 0x1E43 JUMP JUMPDEST SWAP2 SWAP1 POP SSTORE POP PUSH1 0x1 PUSH0 DUP3 DUP2 MSTORE PUSH1 0x20 ADD SWAP1 DUP2 MSTORE PUSH1 0x20 ADD PUSH0 KECCAK256 PUSH1 0x6 ADD SLOAD PUSH1 0x1 PUSH0 DUP4 DUP2 MSTORE PUSH1 0x20 ADD SWAP1 DUP2 MSTORE PUSH1 0x20 ADD PUSH0 KECCAK256 PUSH1 0x7 ADD SLOAD LT PUSH2 0x155A JUMPI PUSH2 0x1559 DUP2 PUSH2 0x10E8 JUMP JUMPDEST JUMPDEST JUMPDEST POP JUMP JUMPDEST PUSH1 0x2 PUSH0 SWAP1 SLOAD SWAP1 PUSH2 0x100 EXP SWAP1 DIV PUSH20 0xFFFFFFFFFFFFFFFFFFFFFFFFFFFFFFFFFFFFFFFF AND DUP2 JUMP JUMPDEST PUSH1 0x40 MLOAD DUP1 PUSH2 0x180 ADD PUSH1 0x40 MSTORE DUP1 PUSH0 DUP2 MSTORE PUSH1 0x20 ADD PUSH0 PUSH20 0xFFFFFFFFFFFFFFFFFFFFFFFFFFFFFFFFFFFFFFFF AND DUP2 MSTORE PUSH1 0x20 ADD PUSH1 0x60 DUP2 MSTORE PUSH1 0x20 ADD PUSH1 0x60 DUP2 MSTORE PUSH1 0x20 ADD PUSH1 0x60 DUP2 MSTORE PUSH1 0x20 ADD PUSH0 DUP2 MSTORE PUSH1 0x20 ADD PUSH0 DUP2 MSTORE PUSH1 0x20 ADD PUSH0 DUP2 MSTORE PUSH1 0x20 ADD PUSH0 DUP2 MSTORE PUSH1 0x20 ADD PUSH0 ISZERO ISZERO DUP2 MSTORE PUSH1 0x20 ADD PUSH0 ISZERO ISZERO DUP2 MSTORE PUSH1 0x20 ADD PUSH0 DUP2 MSTORE POP SWAP1 JUMP JUMPDEST PUSH0 DUP2 SWAP1 POP SWAP2 SWAP1 POP JUMP JUMPDEST PUSH2 0x1607 DUP2 PUSH2 0x15F5 JUMP JUMPDEST DUP3 MSTORE POP POP JUMP JUMPDEST PUSH0 PUSH1 0x20 DUP3 ADD SWAP1 POP PUSH2 0x1620 PUSH0 DUP4 ADD DUP5 PUSH2 0x15FE JUMP JUMPDEST SWAP3 SWAP2 POP POP JUMP JUMPDEST PUSH0 PUSH1 0x40 MLOAD SWAP1 POP SWAP1 JUMP JUMPDEST PUSH0 DUP1 REVERT JUMPDEST PUSH0 DUP1 REVERT JUMPDEST PUSH2 0x1640 DUP2 PUSH2 0x15F5 JUMP JUMPDEST DUP2 EQ PUSH2 0x164A JUMPI PUSH0 DUP1 REVERT JUMPDEST POP JUMP JUMPDEST PUSH0 DUP2 CALLDATALOAD SWAP1 POP PUSH2 0x165B DUP2 PUSH2 0x1637 JUMP JUMPDEST SWAP3 SWAP2 POP POP JUMP JUMPDEST PUSH0 PUSH1 0x20 DUP3 DUP5 SUB SLT ISZERO PUSH2 0x1676 JUMPI PUSH2 0x1675 PUSH2 0x162F JUMP JUMPDEST JUMPDEST PUSH0 PUSH2 0x1683 DUP5 DUP3 DUP6 ADD PUSH2 0x164D JUMP JUMPDEST SWAP2 POP POP SWAP3 SWAP2 POP POP JUMP JUMPDEST PUSH0 PUSH20 0xFFFFFFFFFFFFFFFFFFFFFFFFFFFFFFFFFFFFFFFF DUP3 AND SWAP1 POP SWAP2 SWAP1 POP JUMP JUMPDEST PUSH0 PUSH2 0x16B5 DUP3 PUSH2 0x168C JUMP JUMPDEST SWAP1 POP SWAP2 SWAP1 POP JUMP JUMPDEST PUSH2 0x16C5 DUP2 PUSH2 0x16AB JUMP JUMPDEST DUP3 MSTORE POP POP JUMP JUMPDEST PUSH0 DUP2 MLOAD SWAP1 POP SWAP2 SWAP1 POP JUMP JUMPDEST PUSH0 DUP3 DUP3 MSTORE PUSH1 0x20 DUP3 ADD SWAP1 POP SWAP3 SWAP2 POP POP JUMP JUMPDEST DUP3 DUP2 DUP4 MCOPY PUSH0 DUP4 DUP4 ADD MSTORE POP POP POP JUMP JUMPDEST PUSH0 PUSH1 0x1F NOT PUSH1 0x1F DUP4 ADD AND SWAP1 POP SWAP2 SWAP1 POP JUMP JUMPDEST PUSH0 PUSH2 0x170D DUP3 PUSH2 0x16CB JUMP JUMPDEST PUSH2 0x1717 DUP2 DUP6 PUSH2 0x16D5 JUMP JUMPDEST SWAP4 POP PUSH2 0x1727 DUP2 DUP6 PUSH1 0x20 DUP7 ADD PUSH2 0x16E5 JUMP JUMPDEST PUSH2 0x1730 DUP2 PUSH2 0x16F3 JUMP JUMPDEST DUP5 ADD SWAP2 POP POP SWAP3 SWAP2 POP POP JUMP JUMPDEST PUSH0 DUP2 ISZERO ISZERO SWAP1 POP SWAP2 SWAP1 POP JUMP JUMPDEST PUSH2 0x174F DUP2 PUSH2 0x173B JUMP JUMPDEST DUP3 MSTORE POP POP JUMP JUMPDEST PUSH0 PUSH2 0x180 DUP3 ADD SWAP1 POP PUSH2 0x1769 PUSH0 DUP4 ADD DUP16 PUSH2 0x15FE JUMP JUMPDEST PUSH2 0x1776 PUSH1 0x20 DUP4 ADD DUP15 PUSH2 0x16BC JUMP JUMPDEST DUP2 DUP2 SUB PUSH1 0x40 DUP4 ADD MSTORE PUSH2 0x1788 DUP2 DUP14 PUSH2 0x1703 JUMP JUMPDEST SWAP1 POP DUP2 DUP2 SUB PUSH1 0x60 DUP4 ADD MSTORE PUSH2 0x179C DUP2 DUP13 PUSH2 0x1703 JUMP JUMPDEST SWAP1 POP DUP2 DUP2 SUB PUSH1 0x80 DUP4 ADD MSTORE PUSH2 0x17B0 DUP2 DUP12 PUSH2 0x1703 JUMP JUMPDEST SWAP1 POP PUSH2 0x17BF PUSH1 0xA0 DUP4 ADD DUP11 PUSH2 0x15FE JUMP JUMPDEST PUSH2 0x17CC PUSH1 0xC0 DUP4 ADD DUP10 PUSH2 0x15FE JUMP JUMPDEST PUSH2 0x17D9 PUSH1 0xE0 DUP4 ADD DUP9 PUSH2 0x15FE JUMP JUMPDEST PUSH2 0x17E7 PUSH2 0x100 DUP4 ADD DUP8 PUSH2 0x15FE JUMP JUMPDEST PUSH2 0x17F5 PUSH2 0x120 DUP4 ADD DUP7 PUSH2 0x1746 JUMP JUMPDEST PUSH2 0x1803 PUSH2 0x140 DUP4 ADD DUP6 PUSH2 0x1746 JUMP JUMPDEST PUSH2 0x1811 PUSH2 0x160 DUP4 ADD DUP5 PUSH2 0x15FE JUMP JUMPDEST SWAP14 SWAP13 POP POP POP POP POP POP POP POP POP POP POP POP POP JUMP JUMPDEST PUSH0 PUSH1 0x20 DUP3 ADD SWAP1 POP PUSH2 0x1835 PUSH0 DUP4 ADD DUP5 PUSH2 0x16BC JUMP JUMPDEST SWAP3 SWAP2 POP POP JUMP JUMPDEST PUSH0 DUP1 PUSH1 0x40 DUP4 DUP6 SUB SLT ISZERO PUSH2 0x1851 JUMPI PUSH2 0x1850 PUSH2 0x162F JUMP JUMPDEST JUMPDEST PUSH0 PUSH2 0x185E DUP6 DUP3 DUP7 ADD PUSH2 0x164D JUMP JUMPDEST SWAP3 POP POP PUSH1 0x20 PUSH2 0x186F DUP6 DUP3 DUP7 ADD PUSH2 0x164D JUMP JUMPDEST SWAP2 POP POP SWAP3 POP SWAP3 SWAP1 POP JUMP JUMPDEST PUSH0 DUP2 MLOAD SWAP1 POP SWAP2 SWAP1 POP JUMP JUMPDEST PUSH0 DUP3 DUP3 MSTORE PUSH1 0x20 DUP3 ADD SWAP1 POP SWAP3 SWAP2 POP POP JUMP JUMPDEST PUSH0 DUP2 SWAP1 POP PUSH1 0x20 DUP3 ADD SWAP1 POP SWAP2 SWAP1 POP JUMP JUMPDEST PUSH2 0x18AB DUP2 PUSH2 0x15F5 JUMP JUMPDEST DUP3 MSTORE POP POP JUMP JUMPDEST PUSH2 0x18BA DUP2 PUSH2 0x16AB JUMP JUMPDEST DUP3 MSTORE POP POP JUMP JUMPDEST PUSH0 DUP3 DUP3 MSTORE PUSH1 0x20 DUP3 ADD SWAP1 POP SWAP3 SWAP2 POP POP JUMP JUMPDEST PUSH0 PUSH2 0x18DA DUP3 PUSH2 0x16CB JUMP JUMPDEST PUSH2 0x18E4 DUP2 DUP6 PUSH2 0x18C0 JUMP JUMPDEST SWAP4 POP PUSH2 0x18F4 DUP2 DUP6 PUSH1 0x20 DUP7 ADD PUSH2 0x16E5 JUMP JUMPDEST PUSH2 0x18FD DUP2 PUSH2 0x16F3 JUMP JUMPDEST DUP5 ADD SWAP2 POP POP SWAP3 SWAP2 POP POP JUMP JUMPDEST PUSH2 0x1911 DUP2 PUSH2 0x173B JUMP JUMPDEST DUP3 MSTORE POP POP JUMP JUMPDEST PUSH0 PUSH2 0x180 DUP4 ADD PUSH0 DUP4 ADD MLOAD PUSH2 0x192D PUSH0 DUP7 ADD DUP3 PUSH2 0x18A2 JUMP JUMPDEST POP PUSH1 0x20 DUP4 ADD MLOAD PUSH2 0x1940 PUSH1 0x20 DUP7 ADD DUP3 PUSH2 0x18B1 JUMP JUMPDEST POP PUSH1 0x40 DUP4 ADD MLOAD DUP5 DUP3 SUB PUSH1 0x40 DUP7 ADD MSTORE PUSH2 0x1958 DUP3 DUP3 PUSH2 0x18D0 JUMP JUMPDEST SWAP2 POP POP PUSH1 0x60 DUP4 ADD MLOAD DUP5 DUP3 SUB PUSH1 0x60 DUP7 ADD MSTORE PUSH2 0x1972 DUP3 DUP3 PUSH2 0x18D0 JUMP JUMPDEST SWAP2 POP POP PUSH1 0x80 DUP4 ADD MLOAD DUP5 DUP3 SUB PUSH1 0x80 DUP7 ADD MSTORE PUSH2 0x198C DUP3 DUP3 PUSH2 0x18D0 JUMP JUMPDEST SWAP2 POP POP PUSH1 0xA0 DUP4 ADD MLOAD PUSH2 0x19A1 PUSH1 0xA0 DUP7 ADD DUP3 PUSH2 0x18A2 JUMP JUMPDEST POP PUSH1 0xC0 DUP4 ADD MLOAD PUSH2 0x19B4 PUSH1 0xC0 DUP7 ADD DUP3 PUSH2 0x18A2 JUMP JUMPDEST POP PUSH1 0xE0 DUP4 ADD MLOAD PUSH2 0x19C7 PUSH1 0xE0 DUP7 ADD DUP3 PUSH2 0x18A2 JUMP JUMPDEST POP PUSH2 0x100 DUP4 ADD MLOAD PUSH2 0x19DC PUSH2 0x100 DUP7 ADD DUP3 PUSH2 0x18A2 JUMP JUMPDEST POP PUSH2 0x120 DUP4 ADD MLOAD PUSH2 0x19F1 PUSH2 0x120 DUP7 ADD DUP3 PUSH2 0x1908 JUMP JUMPDEST POP PUSH2 0x140 DUP4 ADD MLOAD PUSH2 0x1A06 PUSH2 0x140 DUP7 ADD DUP3 PUSH2 0x1908 JUMP JUMPDEST POP PUSH2 0x160 DUP4 ADD MLOAD PUSH2 0x1A1B PUSH2 0x160 DUP7 ADD DUP3 PUSH2 0x18A2 JUMP JUMPDEST POP DUP1 SWAP2 POP POP SWAP3 SWAP2 POP POP JUMP JUMPDEST PUSH0 PUSH2 0x1A31 DUP4 DUP4 PUSH2 0x1917 JUMP JUMPDEST SWAP1 POP SWAP3 SWAP2 POP POP JUMP JUMPDEST PUSH0 PUSH1 0x20 DUP3 ADD SWAP1 POP SWAP2 SWAP1 POP JUMP JUMPDEST PUSH0 PUSH2 0x1A4F DUP3 PUSH2 0x1879 JUMP JUMPDEST PUSH2 0x1A59 DUP2 DUP6 PUSH2 0x1883 JUMP JUMPDEST SWAP4 POP DUP4 PUSH1 0x20 DUP3 MUL DUP6 ADD PUSH2 0x1A6B DUP6 PUSH2 0x1893 JUMP JUMPDEST DUP1 PUSH0 JUMPDEST DUP6 DUP2 LT ISZERO PUSH2 0x1AA6 JUMPI DUP5 DUP5 SUB DUP10 MSTORE DUP2 MLOAD PUSH2 0x1A87 DUP6 DUP3 PUSH2 0x1A26 JUMP JUMPDEST SWAP5 POP PUSH2 0x1A92 DUP4 PUSH2 0x1A39 JUMP JUMPDEST SWAP3 POP PUSH1 0x20 DUP11 ADD SWAP10 POP POP PUSH1 0x1 DUP2 ADD SWAP1 POP PUSH2 0x1A6E JUMP JUMPDEST POP DUP3 SWAP8 POP DUP8 SWAP6 POP POP POP POP POP POP SWAP3 SWAP2 POP POP JUMP JUMPDEST PUSH0 PUSH1 0x20 DUP3 ADD SWAP1 POP DUP2 DUP2 SUB PUSH0 DUP4 ADD MSTORE PUSH2 0x1AD0 DUP2 DUP5 PUSH2 0x1A45 JUMP JUMPDEST SWAP1 POP SWAP3 SWAP2 POP POP JUMP JUMPDEST PUSH0 DUP1 REVERT JUMPDEST PUSH0 DUP1 REVERT JUMPDEST PUSH32 0x4E487B7100000000000000000000000000000000000000000000000000000000 PUSH0 MSTORE PUSH1 0x41 PUSH1 0x4 MSTORE PUSH1 0x24 PUSH0 REVERT JUMPDEST PUSH2 0x1B16 DUP3 PUSH2 0x16F3 JUMP JUMPDEST DUP2 ADD DUP2 DUP2 LT PUSH8 0xFFFFFFFFFFFFFFFF DUP3 GT OR ISZERO PUSH2 0x1B35 JUMPI PUSH2 0x1B34 PUSH2 0x1AE0 JUMP JUMPDEST JUMPDEST DUP1 PUSH1 0x40 MSTORE POP POP POP JUMP JUMPDEST PUSH0 PUSH2 0x1B47 PUSH2 0x1626 JUMP JUMPDEST SWAP1 POP PUSH2 0x1B53 DUP3 DUP3 PUSH2 0x1B0D JUMP JUMPDEST SWAP2 SWAP1 POP JUMP JUMPDEST PUSH0 PUSH8 0xFFFFFFFFFFFFFFFF DUP3 GT ISZERO PUSH2 0x1B72 JUMPI PUSH2 0x1B71 PUSH2 0x1AE0 JUMP JUMPDEST JUMPDEST PUSH2 0x1B7B DUP3 PUSH2 0x16F3 JUMP JUMPDEST SWAP1 POP PUSH1 0x20 DUP2 ADD SWAP1 POP SWAP2 SWAP1 POP JUMP JUMPDEST DUP3 DUP2 DUP4 CALLDATACOPY PUSH0 DUP4 DUP4 ADD MSTORE POP POP POP JUMP JUMPDEST PUSH0 PUSH2 0x1BA8 PUSH2 0x1BA3 DUP5 PUSH2 0x1B58 JUMP JUMPDEST PUSH2 0x1B3E JUMP JUMPDEST SWAP1 POP DUP3 DUP2 MSTORE PUSH1 0x20 DUP2 ADD DUP5 DUP5 DUP5 ADD GT ISZERO PUSH2 0x1BC4 JUMPI PUSH2 0x1BC3 PUSH2 0x1ADC JUMP JUMPDEST JUMPDEST PUSH2 0x1BCF DUP5 DUP3 DUP6 PUSH2 0x1B88 JUMP JUMPDEST POP SWAP4 SWAP3 POP POP POP JUMP JUMPDEST PUSH0 DUP3 PUSH1 0x1F DUP4 ADD SLT PUSH2 0x1BEB JUMPI PUSH2 0x1BEA PUSH2 0x1AD8 JUMP JUMPDEST JUMPDEST DUP2 CALLDATALOAD PUSH2 0x1BFB DUP5 DUP3 PUSH1 0x20 DUP7 ADD PUSH2 0x1B96 JUMP JUMPDEST SWAP2 POP POP SWAP3 SWAP2 POP POP JUMP JUMPDEST PUSH0 DUP1 PUSH0 DUP1 PUSH0 PUSH1 0xA0 DUP7 DUP9 SUB SLT ISZERO PUSH2 0x1C1D JUMPI PUSH2 0x1C1C PUSH2 0x162F JUMP JUMPDEST JUMPDEST PUSH0 DUP7 ADD CALLDATALOAD PUSH8 0xFFFFFFFFFFFFFFFF DUP2 GT ISZERO PUSH2 0x1C3A JUMPI PUSH2 0x1C39 PUSH2 0x1633 JUMP JUMPDEST JUMPDEST PUSH2 0x1C46 DUP9 DUP3 DUP10 ADD PUSH2 0x1BD7 JUMP JUMPDEST SWAP6 POP POP PUSH1 0x20 DUP7 ADD CALLDATALOAD PUSH8 0xFFFFFFFFFFFFFFFF DUP2 GT ISZERO PUSH2 0x1C67 JUMPI PUSH2 0x1C66 PUSH2 0x1633 JUMP JUMPDEST JUMPDEST PUSH2 0x1C73 DUP9 DUP3 DUP10 ADD PUSH2 0x1BD7 JUMP JUMPDEST SWAP5 POP POP PUSH1 0x40 DUP7 ADD CALLDATALOAD PUSH8 0xFFFFFFFFFFFFFFFF DUP2 GT ISZERO PUSH2 0x1C94 JUMPI PUSH2 0x1C93 PUSH2 0x1633 JUMP JUMPDEST JUMPDEST PUSH2 0x1CA0 DUP9 DUP3 DUP10 ADD PUSH2 0x1BD7 JUMP JUMPDEST SWAP4 POP POP PUSH1 0x60 PUSH2 0x1CB1 DUP9 DUP3 DUP10 ADD PUSH2 0x164D JUMP JUMPDEST SWAP3 POP POP PUSH1 0x80 PUSH2 0x1CC2 DUP9 DUP3 DUP10 ADD PUSH2 0x164D JUMP JUMPDEST SWAP2 POP POP SWAP3 SWAP6 POP SWAP3 SWAP6 SWAP1 SWAP4 POP JUMP JUMPDEST PUSH2 0x1CD8 DUP2 PUSH2 0x16AB JUMP JUMPDEST DUP2 EQ PUSH2 0x1CE2 JUMPI PUSH0 DUP1 REVERT JUMPDEST POP JUMP JUMPDEST PUSH0 DUP2 CALLDATALOAD SWAP1 POP PUSH2 0x1CF3 DUP2 PUSH2 0x1CCF JUMP JUMPDEST SWAP3 SWAP2 POP POP JUMP JUMPDEST PUSH0 PUSH1 0x20 DUP3 DUP5 SUB SLT ISZERO PUSH2 0x1D0E JUMPI PUSH2 0x1D0D PUSH2 0x162F JUMP JUMPDEST JUMPDEST PUSH0 PUSH2 0x1D1B DUP5 DUP3 DUP6 ADD PUSH2 0x1CE5 JUMP JUMPDEST SWAP2 POP POP SWAP3 SWAP2 POP POP JUMP JUMPDEST PUSH32 0x4E487B7100000000000000000000000000000000000000000000000000000000 PUSH0 MSTORE PUSH1 0x22 PUSH1 0x4 MSTORE PUSH1 0x24 PUSH0 REVERT JUMPDEST PUSH0 PUSH1 0x2 DUP3 DIV SWAP1 POP PUSH1 0x1 DUP3 AND DUP1 PUSH2 0x1D68 JUMPI PUSH1 0x7F DUP3 AND SWAP2 POP JUMPDEST PUSH1 0x20 DUP3 LT DUP2 SUB PUSH2 0x1D7B JUMPI PUSH2 0x1D7A PUSH2 0x1D24 JUMP JUMPDEST JUMPDEST POP SWAP2 SWAP1 POP JUMP JUMPDEST PUSH32 0x4E487B7100000000000000000000000000000000000000000000000000000000 PUSH0 MSTORE PUSH1 0x32 PUSH1 0x4 MSTORE PUSH1 0x24 PUSH0 REVERT JUMPDEST PUSH32 0x656E64657265C3A76F206E61206C69737461206E656772610000000000000000 PUSH0 DUP3 ADD MSTORE POP JUMP JUMPDEST PUSH0 PUSH2 0x1DE2 PUSH1 0x18 DUP4 PUSH2 0x16D5 JUMP JUMPDEST SWAP2 POP PUSH2 0x1DED DUP3 PUSH2 0x1DAE JUMP JUMPDEST PUSH1 0x20 DUP3 ADD SWAP1 POP SWAP2 SWAP1 POP JUMP JUMPDEST PUSH0 PUSH1 0x20 DUP3 ADD SWAP1 POP DUP2 DUP2 SUB PUSH0 DUP4 ADD MSTORE PUSH2 0x1E0F DUP2 PUSH2 0x1DD6 JUMP JUMPDEST SWAP1 POP SWAP2 SWAP1 POP JUMP JUMPDEST PUSH32 0x4E487B7100000000000000000000000000000000000000000000000000000000 PUSH0 MSTORE PUSH1 0x11 PUSH1 0x4 MSTORE PUSH1 0x24 PUSH0 REVERT JUMPDEST PUSH0 PUSH2 0x1E4D DUP3 PUSH2 0x15F5 JUMP JUMPDEST SWAP2 POP PUSH32 0xFFFFFFFFFFFFFFFFFFFFFFFFFFFFFFFFFFFFFFFFFFFFFFFFFFFFFFFFFFFFFFFF DUP3 SUB PUSH2 0x1E7F JUMPI PUSH2 0x1E7E PUSH2 0x1E16 JUMP JUMPDEST JUMPDEST PUSH1 0x1 DUP3 ADD SWAP1 POP SWAP2 SWAP1 POP JUMP JUMPDEST PUSH32 0x736F6D656E7465206F2061646D696E6973747261646F7220706F646520617072 PUSH0 DUP3 ADD MSTORE PUSH32 0x6F766172206F20636F6E747261746F0000000000000000000000000000000000 PUSH1 0x20 DUP3 ADD MSTORE POP JUMP JUMPDEST PUSH0 PUSH2 0x1EE4 PUSH1 0x2F DUP4 PUSH2 0x16D5 JUMP JUMPDEST SWAP2 POP PUSH2 0x1EEF DUP3 PUSH2 0x1E8A JUMP JUMPDEST PUSH1 0x40 DUP3 ADD SWAP1 POP SWAP2 SWAP1 POP JUMP JUMPDEST PUSH0 PUSH1 0x20 DUP3 ADD SWAP1 POP DUP2 DUP2 SUB PUSH0 DUP4 ADD MSTORE PUSH2 0x1F11 DUP2 PUSH2 0x1ED8 JUMP JUMPDEST SWAP1 POP SWAP2 SWAP1 POP JUMP JUMPDEST PUSH32 0x696E666F726D61C3A7C3B5657320696E76C3A16C696461730000000000000000 PUSH0 DUP3 ADD MSTORE POP JUMP JUMPDEST PUSH0 PUSH2 0x1F4C PUSH1 0x18 DUP4 PUSH2 0x16D5 JUMP JUMPDEST SWAP2 POP PUSH2 0x1F57 DUP3 PUSH2 0x1F18 JUMP JUMPDEST PUSH1 0x20 DUP3 ADD SWAP1 POP SWAP2 SWAP1 POP JUMP JUMPDEST PUSH0 PUSH1 0x20 DUP3 ADD SWAP1 POP DUP2 DUP2 SUB PUSH0 DUP4 ADD MSTORE PUSH2 0x1F79 DUP2 PUSH2 0x1F40 JUMP JUMPDEST SWAP1 POP SWAP2 SWAP1 POP JUMP JUMPDEST PUSH0 DUP2 SWAP1 POP DUP2 PUSH0 MSTORE PUSH1 0x20 PUSH0 KECCAK256 SWAP1 POP SWAP2 SWAP1 POP JUMP JUMPDEST PUSH0 PUSH1 0x20 PUSH1 0x1F DUP4 ADD DIV SWAP1 POP SWAP2 SWAP1 POP JUMP JUMPDEST PUSH0 DUP3 DUP3 SHL SWAP1 POP SWAP3 SWAP2 POP POP JUMP JUMPDEST PUSH0 PUSH1 0x8 DUP4 MUL PUSH2 0x1FDC PUSH32 0xFFFFFFFFFFFFFFFFFFFFFFFFFFFFFFFFFFFFFFFFFFFFFFFFFFFFFFFFFFFFFFFF DUP3 PUSH2 0x1FA1 JUMP JUMPDEST PUSH2 0x1FE6 DUP7 DUP4 PUSH2 0x1FA1 JUMP JUMPDEST SWAP6 POP DUP1 NOT DUP5 AND SWAP4 POP DUP1 DUP7 AND DUP5 OR SWAP3 POP POP POP SWAP4 SWAP3 POP POP POP JUMP JUMPDEST PUSH0 DUP2 SWAP1 POP SWAP2 SWAP1 POP JUMP JUMPDEST PUSH0 PUSH2 0x2021 PUSH2 0x201C PUSH2 0x2017 DUP5 PUSH2 0x15F5 JUMP JUMPDEST PUSH2 0x1FFE JUMP JUMPDEST PUSH2 0x15F5 JUMP JUMPDEST SWAP1 POP SWAP2 SWAP1 POP JUMP JUMPDEST PUSH0 DUP2 SWAP1 POP SWAP2 SWAP1 POP JUMP JUMPDEST PUSH2 0x203A DUP4 PUSH2 0x2007 JUMP JUMPDEST PUSH2 0x204E PUSH2 0x2046 DUP3 PUSH2 0x2028 JUMP JUMPDEST DUP5 DUP5 SLOAD PUSH2 0x1FAD JUMP JUMPDEST DUP3 SSTORE POP POP POP POP JUMP JUMPDEST PUSH0 SWAP1 JUMP JUMPDEST PUSH2 0x2062 PUSH2 0x2056 JUMP JUMPDEST PUSH2 0x206D DUP2 DUP5 DUP5 PUSH2 0x2031 JUMP JUMPDEST POP POP POP JUMP JUMPDEST JUMPDEST DUP2 DUP2 LT ISZERO PUSH2 0x2090 JUMPI PUSH2 0x2085 PUSH0 DUP3 PUSH2 0x205A JUMP JUMPDEST PUSH1 0x1 DUP2 ADD SWAP1 POP PUSH2 0x2073 JUMP JUMPDEST POP POP JUMP JUMPDEST PUSH1 0x1F DUP3 GT ISZERO PUSH2 0x20D5 JUMPI PUSH2 0x20A6 DUP2 PUSH2 0x1F80 JUMP JUMPDEST PUSH2 0x20AF DUP5 PUSH2 0x1F92 JUMP JUMPDEST DUP2 ADD PUSH1 0x20 DUP6 LT ISZERO PUSH2 0x20BE JUMPI DUP2 SWAP1 POP JUMPDEST PUSH2 0x20D2 PUSH2 0x20CA DUP6 PUSH2 0x1F92 JUMP JUMPDEST DUP4 ADD DUP3 PUSH2 0x2072 JUMP JUMPDEST POP POP JUMPDEST POP POP POP JUMP JUMPDEST PUSH0 DUP3 DUP3 SHR SWAP1 POP SWAP3 SWAP2 POP POP JUMP JUMPDEST PUSH0 PUSH2 0x20F5 PUSH0 NOT DUP5 PUSH1 0x8 MUL PUSH2 0x20DA JUMP JUMPDEST NOT DUP1 DUP4 AND SWAP2 POP POP SWAP3 SWAP2 POP POP JUMP JUMPDEST PUSH0 PUSH2 0x210D DUP4 DUP4 PUSH2 0x20E6 JUMP JUMPDEST SWAP2 POP DUP3 PUSH1 0x2 MUL DUP3 OR SWAP1 POP SWAP3 SWAP2 POP POP JUMP JUMPDEST PUSH2 0x2126 DUP3 PUSH2 0x16CB JUMP JUMPDEST PUSH8 0xFFFFFFFFFFFFFFFF DUP2 GT ISZERO PUSH2 0x213F JUMPI PUSH2 0x213E PUSH2 0x1AE0 JUMP JUMPDEST JUMPDEST PUSH2 0x2149 DUP3 SLOAD PUSH2 0x1D51 JUMP JUMPDEST PUSH2 0x2154 DUP3 DUP3 DUP6 PUSH2 0x2094 JUMP JUMPDEST PUSH0 PUSH1 0x20 SWAP1 POP PUSH1 0x1F DUP4 GT PUSH1 0x1 DUP2 EQ PUSH2 0x2185 JUMPI PUSH0 DUP5 ISZERO PUSH2 0x2173 JUMPI DUP3 DUP8 ADD MLOAD SWAP1 POP JUMPDEST PUSH2 0x217D DUP6 DUP3 PUSH2 0x2102 JUMP JUMPDEST DUP7 SSTORE POP PUSH2 0x21E4 JUMP JUMPDEST PUSH1 0x1F NOT DUP5 AND PUSH2 0x2193 DUP7 PUSH2 0x1F80 JUMP JUMPDEST PUSH0 JUMPDEST DUP3 DUP2 LT ISZERO PUSH2 0x21BA JUMPI DUP5 DUP10 ADD MLOAD DUP3 SSTORE PUSH1 0x1 DUP3 ADD SWAP2 POP PUSH1 0x20 DUP6 ADD SWAP5 POP PUSH1 0x20 DUP2 ADD SWAP1 POP PUSH2 0x2195 JUMP JUMPDEST DUP7 DUP4 LT ISZERO PUSH2 0x21D7 JUMPI DUP5 DUP10 ADD MLOAD PUSH2 0x21D3 PUSH1 0x1F DUP10 AND DUP3 PUSH2 0x20E6 JUMP JUMPDEST DUP4 SSTORE POP JUMPDEST PUSH1 0x1 PUSH1 0x2 DUP9 MUL ADD DUP9 SSTORE POP POP POP JUMPDEST POP POP POP POP POP POP JUMP JUMPDEST PUSH0 PUSH2 0x21F6 DUP3 PUSH2 0x15F5 JUMP JUMPDEST SWAP2 POP PUSH2 0x2201 DUP4 PUSH2 0x15F5 JUMP JUMPDEST SWAP3 POP DUP3 DUP3 SUB SWAP1 POP DUP2 DUP2 GT ISZERO PUSH2 0x2219 JUMPI PUSH2 0x2218 PUSH2 0x1E16 JUMP JUMPDEST JUMPDEST SWAP3 SWAP2 POP POP JUMP JUMPDEST PUSH0 DUP2 SWAP1 POP SWAP3 SWAP2 POP POP JUMP JUMPDEST PUSH0 PUSH2 0x2233 DUP3 PUSH2 0x16CB JUMP JUMPDEST PUSH2 0x223D DUP2 DUP6 PUSH2 0x221F JUMP JUMPDEST SWAP4 POP PUSH2 0x224D DUP2 DUP6 PUSH1 0x20 DUP7 ADD PUSH2 0x16E5 JUMP JUMPDEST DUP1 DUP5 ADD SWAP2 POP POP SWAP3 SWAP2 POP POP JUMP JUMPDEST PUSH0 PUSH2 0x2264 DUP3 DUP5 PUSH2 0x2229 JUMP JUMPDEST SWAP2 POP DUP2 SWAP1 POP SWAP3 SWAP2 POP POP JUMP JUMPDEST PUSH32 0x4175746F722C206F7520546974756C6F2C206F7520446573637269C3A7C3A36F PUSH0 DUP3 ADD MSTORE PUSH32 0x20726570657469646F7300000000000000000000000000000000000000000000 PUSH1 0x20 DUP3 ADD MSTORE POP JUMP JUMPDEST PUSH0 PUSH2 0x22C9 PUSH1 0x2A DUP4 PUSH2 0x16D5 JUMP JUMPDEST SWAP2 POP PUSH2 0x22D4 DUP3 PUSH2 0x226F JUMP JUMPDEST PUSH1 0x40 DUP3 ADD SWAP1 POP SWAP2 SWAP1 POP JUMP JUMPDEST PUSH0 PUSH1 0x20 DUP3 ADD SWAP1 POP DUP2 DUP2 SUB PUSH0 DUP4 ADD MSTORE PUSH2 0x22F6 DUP2 PUSH2 0x22BD JUMP JUMPDEST SWAP1 POP SWAP2 SWAP1 POP JUMP JUMPDEST PUSH32 0x736F6D656E7465206F2061646D696E6973747261646F7220706F646520696E73 PUSH0 DUP3 ADD MSTORE PUSH32 0x65726972206E6120626C61636B6C697374000000000000000000000000000000 PUSH1 0x20 DUP3 ADD MSTORE POP JUMP JUMPDEST PUSH0 PUSH2 0x2357 PUSH1 0x31 DUP4 PUSH2 0x16D5 JUMP JUMPDEST SWAP2 POP PUSH2 0x2362 DUP3 PUSH2 0x22FD JUMP JUMPDEST PUSH1 0x40 DUP3 ADD SWAP1 POP SWAP2 SWAP1 POP JUMP JUMPDEST PUSH0 PUSH1 0x20 DUP3 ADD SWAP1 POP DUP2 DUP2 SUB PUSH0 DUP4 ADD MSTORE PUSH2 0x2384 DUP2 PUSH2 0x234B JUMP JUMPDEST SWAP1 POP SWAP2 SWAP1 POP JUMP JUMPDEST PUSH32 0x656E64657265C3A76F206AC3A120657374C3A1206E6120626C61636B6C697374 PUSH0 DUP3 ADD MSTORE POP JUMP JUMPDEST PUSH0 PUSH2 0x23BF PUSH1 0x20 DUP4 PUSH2 0x16D5 JUMP JUMPDEST SWAP2 POP PUSH2 0x23CA DUP3 PUSH2 0x238B JUMP JUMPDEST PUSH1 0x20 DUP3 ADD SWAP1 POP SWAP2 SWAP1 POP JUMP JUMPDEST PUSH0 PUSH1 0x20 DUP3 ADD SWAP1 POP DUP2 DUP2 SUB PUSH0 DUP4 ADD MSTORE PUSH2 0x23EC DUP2 PUSH2 0x23B3 JUMP JUMPDEST SWAP1 POP SWAP2 SWAP1 POP JUMP JUMPDEST PUSH0 PUSH2 0x23FD DUP3 PUSH2 0x15F5 JUMP JUMPDEST SWAP2 POP PUSH2 0x2408 DUP4 PUSH2 0x15F5 JUMP JUMPDEST SWAP3 POP DUP3 DUP3 ADD SWAP1 POP DUP1 DUP3 GT ISZERO PUSH2 0x2420 JUMPI PUSH2 0x241F PUSH2 0x1E16 JUMP JUMPDEST JUMPDEST SWAP3 SWAP2 POP POP JUMP JUMPDEST PUSH32 0x566F63C3AA206EC3A36F20706F64652066656368617220657374652070656469 PUSH0 DUP3 ADD MSTORE PUSH32 0x646F000000000000000000000000000000000000000000000000000000000000 PUSH1 0x20 DUP3 ADD MSTORE POP JUMP JUMPDEST PUSH0 PUSH2 0x2480 PUSH1 0x22 DUP4 PUSH2 0x16D5 JUMP JUMPDEST SWAP2 POP PUSH2 0x248B DUP3 PUSH2 0x2426 JUMP JUMPDEST PUSH1 0x40 DUP3 ADD SWAP1 POP SWAP2 SWAP1 POP JUMP JUMPDEST PUSH0 PUSH1 0x20 DUP3 ADD SWAP1 POP DUP2 DUP2 SUB PUSH0 DUP4 ADD MSTORE PUSH2 0x24AD DUP2 PUSH2 0x2474 JUMP JUMPDEST SWAP1 POP SWAP2 SWAP1 POP JUMP JUMPDEST PUSH32 0x6EC3A36F20706F646520646F61722076616C6F72206E756C6F00000000000000 PUSH0 DUP3 ADD MSTORE POP JUMP JUMPDEST PUSH0 PUSH2 0x24E8 PUSH1 0x19 DUP4 PUSH2 0x16D5 JUMP JUMPDEST SWAP2 POP PUSH2 0x24F3 DUP3 PUSH2 0x24B4 JUMP JUMPDEST PUSH1 0x20 DUP3 ADD SWAP1 POP SWAP2 SWAP1 POP JUMP JUMPDEST PUSH0 PUSH1 0x20 DUP3 ADD SWAP1 POP DUP2 DUP2 SUB PUSH0 DUP4 ADD MSTORE PUSH2 0x2515 DUP2 PUSH2 0x24DC JUMP JUMPDEST SWAP1 POP SWAP2 SWAP1 POP JUMP JUMPDEST PUSH32 0x636F6E747261746F2061696E6461206EC3A36F206170726F7661646F00000000 PUSH0 DUP3 ADD MSTORE POP JUMP JUMPDEST PUSH0 PUSH2 0x2550 PUSH1 0x1C DUP4 PUSH2 0x16D5 JUMP JUMPDEST SWAP2 POP PUSH2 0x255B DUP3 PUSH2 0x251C JUMP JUMPDEST PUSH1 0x20 DUP3 ADD SWAP1 POP SWAP2 SWAP1 POP JUMP JUMPDEST PUSH0 PUSH1 0x20 DUP3 ADD SWAP1 POP DUP2 DUP2 SUB PUSH0 DUP4 ADD MSTORE PUSH2 0x257D DUP2 PUSH2 0x2544 JUMP JUMPDEST SWAP1 POP SWAP2 SWAP1 POP JUMP INVALID LOG2 PUSH5 0x6970667358 0x22 SLT KECCAK256 0xE1 DUP9 0xAF 0xD7 0xC2 0xAB PUSH32 0xEA36E53E84B617F5D9034CB748C44FA0977EBAB8936D90D84664736F6C634300 ADDMOD NOT STOP CALLER "
				},
				"gasEstimates": {
					"creation": {
						"codeDepositCost": "1931600",
						"executionCost": "36314",
						"totalCost": "1967914"
					},
					"external": {
						"addblacklist(uint256)": "4989",
						"admin()": "2618",
						"aprove(uint256)": "27058",
						"closeRequest(uint256)": "infinite",
						"donate(uint256)": "infinite",
						"getOpenRequests(uint256,uint256)": "infinite",
						"lastId()": "2424",
						"nBlacklist()": "2426",
						"newBlackList(address)": "infinite",
						"openRequest(string,string,string,uint256,uint256)": "infinite",
						"requests(uint256)": "infinite"
					}
				},
				"methodIdentifiers": {
					"addblacklist(uint256)": "a4de13e5",
					"admin()": "f851a440",
					"aprove(uint256)": "b7aaeb4d",
					"closeRequest(uint256)": "f0282b7f",
					"donate(uint256)": "f14faf6f",
					"getOpenRequests(uint256,uint256)": "b45243dc",
					"lastId()": "c1292cc3",
					"nBlacklist()": "540021ad",
					"newBlackList(address)": "dc6deb47",
					"openRequest(string,string,string,uint256,uint256)": "d6121c22",
					"requests(uint256)": "81d12c58"
				}
			},
			"storageLayout": {
				"storage": [
					{
						"astId": 29,
						"contract": "contracts/FloodHelpV2.sol:FloodHelpV2",
						"label": "lastId",
						"offset": 0,
						"slot": "0",
						"type": "t_uint256"
					},
					{
						"astId": 34,
						"contract": "contracts/FloodHelpV2.sol:FloodHelpV2",
						"label": "requests",
						"offset": 0,
						"slot": "1",
						"type": "t_mapping(t_uint256,t_struct(Request)26_storage)"
					},
					{
						"astId": 36,
						"contract": "contracts/FloodHelpV2.sol:FloodHelpV2",
						"label": "admin",
						"offset": 0,
						"slot": "2",
						"type": "t_address"
					},
					{
						"astId": 39,
						"contract": "contracts/FloodHelpV2.sol:FloodHelpV2",
						"label": "addblacklist",
						"offset": 0,
						"slot": "3",
						"type": "t_array(t_address)dyn_storage"
					},
					{
						"astId": 42,
						"contract": "contracts/FloodHelpV2.sol:FloodHelpV2",
						"label": "nBlacklist",
						"offset": 0,
						"slot": "4",
						"type": "t_uint256"
					}
				],
				"types": {
					"t_address": {
						"encoding": "inplace",
						"label": "address",
						"numberOfBytes": "20"
					},
					"t_array(t_address)dyn_storage": {
						"base": "t_address",
						"encoding": "dynamic_array",
						"label": "address[]",
						"numberOfBytes": "32"
					},
					"t_bool": {
						"encoding": "inplace",
						"label": "bool",
						"numberOfBytes": "1"
					},
					"t_mapping(t_uint256,t_struct(Request)26_storage)": {
						"encoding": "mapping",
						"key": "t_uint256",
						"label": "mapping(uint256 => struct Request)",
						"numberOfBytes": "32",
						"value": "t_struct(Request)26_storage"
					},
					"t_string_storage": {
						"encoding": "bytes",
						"label": "string",
						"numberOfBytes": "32"
					},
					"t_struct(Request)26_storage": {
						"encoding": "inplace",
						"label": "struct Request",
						"members": [
							{
								"astId": 3,
								"contract": "contracts/FloodHelpV2.sol:FloodHelpV2",
								"label": "id",
								"offset": 0,
								"slot": "0",
								"type": "t_uint256"
							},
							{
								"astId": 5,
								"contract": "contracts/FloodHelpV2.sol:FloodHelpV2",
								"label": "author",
								"offset": 0,
								"slot": "1",
								"type": "t_address"
							},
							{
								"astId": 7,
								"contract": "contracts/FloodHelpV2.sol:FloodHelpV2",
								"label": "title",
								"offset": 0,
								"slot": "2",
								"type": "t_string_storage"
							},
							{
								"astId": 9,
								"contract": "contracts/FloodHelpV2.sol:FloodHelpV2",
								"label": "description",
								"offset": 0,
								"slot": "3",
								"type": "t_string_storage"
							},
							{
								"astId": 11,
								"contract": "contracts/FloodHelpV2.sol:FloodHelpV2",
								"label": "contact",
								"offset": 0,
								"slot": "4",
								"type": "t_string_storage"
							},
							{
								"astId": 13,
								"contract": "contracts/FloodHelpV2.sol:FloodHelpV2",
								"label": "timestamp",
								"offset": 0,
								"slot": "5",
								"type": "t_uint256"
							},
							{
								"astId": 15,
								"contract": "contracts/FloodHelpV2.sol:FloodHelpV2",
								"label": "goal",
								"offset": 0,
								"slot": "6",
								"type": "t_uint256"
							},
							{
								"astId": 17,
								"contract": "contracts/FloodHelpV2.sol:FloodHelpV2",
								"label": "balance",
								"offset": 0,
								"slot": "7",
								"type": "t_uint256"
							},
							{
								"astId": 19,
								"contract": "contracts/FloodHelpV2.sol:FloodHelpV2",
								"label": "totaldoacoes",
								"offset": 0,
								"slot": "8",
								"type": "t_uint256"
							},
							{
								"astId": 21,
								"contract": "contracts/FloodHelpV2.sol:FloodHelpV2",
								"label": "open",
								"offset": 0,
								"slot": "9",
								"type": "t_bool"
							},
							{
								"astId": 23,
								"contract": "contracts/FloodHelpV2.sol:FloodHelpV2",
								"label": "aproved",
								"offset": 1,
								"slot": "9",
								"type": "t_bool"
							},
							{
								"astId": 25,
								"contract": "contracts/FloodHelpV2.sol:FloodHelpV2",
								"label": "timeduration",
								"offset": 0,
								"slot": "10",
								"type": "t_uint256"
							}
						],
						"numberOfBytes": "352"
					},
					"t_uint256": {
						"encoding": "inplace",
						"label": "uint256",
						"numberOfBytes": "32"
					}
				}
			},
			"userdoc": {
				"kind": "user",
				"methods": {},
				"version": 1
			}
		}
	}
}